:020000040800F2
:1000000000800120810A0008DD090008E3090008DA
:10001000E9090008EF090008F509000800000000E0
:10002000000000000000000000000000FB090008C4
:10003000090A000800000000170A0008250A000845
:10004000D10A0008D10A0008D10A0008D10A000824
:10005000D10A0008D10A0008D10A0008310A0008B4
:10006000D10A0008D10A00083F0A0008D10A000896
:10007000D10A0008D10A0008D10A0008D10A0008F4
:10008000D10A0008D10A0008D10A000800000000C7
:10009000000000000000000000000000D10A00087D
:1000A000D10A0008D10A0008D10A0008D10A0008C4
:1000B000D10A0008D10A0008D10A0008D10A0008B4
:1000C000D10A0008D10A0008D10A0008D10A0008A4
:1000D000D10A0008D10A0008D10A00080000000077
:1000E0004D0A0008D10A0008D10A000800000000EB
:1000F000000000000000000000000000D10A00081D
:1001000000000000D10A0008D10A0008D10A000846
:1001100000000000000000000000000000000000DF
:10012000D10A0008D10A0008D10A0008D10A000843
:10013000D10A0008000000000000000000000000DC
:10014000000000000000000000000000D10A0008CC
:10015000D10A0008D10A0008D10A0008D10A000813
:10016000D10A0008D10A00080000000000000000C9
:10017000000000000000000000000000000000007F
:1001800000000000D10A000800000000000000008C
:04019000D10A000888
:1001940010B5054C237833B9044B13B10448AFF3BD
:1001A40000800123237010BD100000200000000017
:1001B4007827000808B5034B1BB103490348AFF384
:1001C400008008BD0000000014000020782700080B
:1001D40053B94AB9002908BF00281CBF4FF0FF31AA
:1001E4004FF0FF3000F070B9ADF1080C6DE904CEAA
:1001F40000F006F8DDF804E0DDE9022304B07047FE
:100204002DE9F047089E0D4604460F46002B4AD1BF
:100214008A42944665D9B2FA82F343B102FA03FCE6
:10022400C3F120029F4020FA02F217439C404FEA98
:100234001C4E1FFA8CF5B7FBFEF1220C0EFB117756
:1002440042EA074201FB05F090420AD91CEB020284
:1002540001F1FF3780F01C81904240F2198102398C
:100264006244121AA4B2B2FBFEF00EFB102244EA5E
:10027400024400FB05F5A5420AD91CEB040400F175
:10028400FF3280F00781A54240F2048164440238C1
:1002940040EA0140641B00211EB1DC400023C6E992
:1002A4000043BDE8F0878B4208D9002E00F0ED80B2
:1002B4000021C6E900050846BDE8F087B3FA83F1DA
:1002C400002949D1AB4202D3824200F2F880841A59
:1002D40065EB030201201746002EE2D0C6E9004771
:1002E400DFE702B9FFDEB2FA82F3002B40F0908020
:1002F4008A1A4FEA1C471FFA8CFE0121B2FBF7F55C
:1003040007FB1520220C42EA00420EFB05F0904246
:1003140008D91CEB020205F1FF3802D2904200F228
:10032400CB804546121AA4B2B2FBF7F007FB1022A9
:1003340044EA02440EFB00FEA64508D91CEB040463
:1003440000F1FF3202D2A64500F2BB801046A4EBB6
:100354000E0440EA05409FE7C1F120078B4022FAD2
:1003640007FC4CEA030C05FA01F420FA07F3FD40FC
:100374004FEA1C492343B5FBF9F81FFA8CFE09FB2D
:1003840018551C0C44EA054408FB0EF5A54202FA74
:1003940001F200FA01F00BD91CEB040408F1FF3A56
:1003A40080F08880A54240F28580A8F10208644468
:1003B400641B9DB2B4FBF9F309FB134445EA0444FE
:1003C40003FB0EFEA64508D91CEB040403F1FF351C
:1003D4006CD2A6456AD9023B644443EA0843A3FBB2
:1003E4000295A4EB0E04AC42C846AE4656D353D095
:1003F40056B1B0EB080264EB0E0404FA07F7CA40E6
:10040400CC401743C6E9007418460021BDE8F087C4
:10041400C3F1200102FA03FC20FA01F225FA01F1EA
:100424009D402A434FEA1C471FFA8CFEB1FBF7F0AC
:1004340007FB1015110C41EA054100FB0EF58D4236
:1004440004FA03F408D91CEB010100F1FF382FD2A0
:100454008D422DD902386144491B92B2B1FBF7F5A4
:1004640007FB151142EA014205FB0EF1914208D93E
:100474001CEB020205F1FF3816D2914214D9023D59
:100484006244521A45EA004138E73146304608E7EB
:100494003946E6E61046FBE64845A9D2B9EB020820
:1004A40065EB0C0E013BA3E74546EAE72B4694E7D0
:1004B4004046D1E7D0467BE7023D624432E7084636
:1004C4000AE76444023842E7704700BF80B582B04F
:1004D40000AF0346FB80FB88B3F5005F0ED14FF4F9
:1004E4008061124800F015FE2021104800F011FE32
:1004F4000F4B1B78013BDAB20D4B1A70FB88102BA3
:1005040010D14021094800F004FE094B1B780A333E
:10051400DAB2074B1A70064B1B785A2B02D9044BDC
:1005240000221A7000BF0837BD4680BD000002409B
:100534000000002080B500AF00F0CAFA00F014F803
:1005440000F01CF900F07AF8044B1A78044B5A6353
:100554000021044801F01CFBF6E700BF0000002066
:10056400000001402C00002080B594B000AF07F1DA
:10057400200330220021184602F0D0F807F10C03C2
:1005840000221A605A609A60DA601A610023BB6024
:10059400284B1B6C274A43F080531364254B1B6C78
:1005A40003F08053BB60BB6800237B60224B1B6855
:1005B40023F44043204A43F4004313601E4B1B685A
:1005C40003F440437B607B6801233B624FF4803338
:1005D4007B620223BB634FF48003FB6304233B640D
:1005E4003C237B640223BB640423FB6407F12003E4
:1005F400184600F0C1FD0346002B01D000F062F95B
:100604000F23FB6002233B6100237B614FF4805383
:10061400BB610023FB6107F10C030121184601F0C3
:1006240023F80346002B01D000F04CF900BF5037EB
:10063400BD4680BD003802400070004080B596B0D1
:1006440000AF07F1480300221A605A609A60DA602A
:1006540007F1400300221A605A6007F124030022C4
:100664001A605A609A60DA601A615A619A613B1D95
:1006740020220021184602F051F83E4B3E4A1A60EF
:100684003C4B4F225A603B4B00229A60394B632209
:10069400DA60384B00221A61364B00225A61354B1E
:1006A40000229A61334801F0CBF90346002B01D0B4
:1006B40000F008F94FF48053BB6407F1480319466E
:1006C4002C4801F0D7FB0346002B01D000F0FAF8C8
:1006D400284801F004FA0346002B01D000F0F2F898
:1006E40000233B6400237B6407F14003194621483F
:1006F40001F054FF0346002B01D000F0E3F860231F
:100704007B620023BB620023FB6200233B63002364
:100714007B630023BB630023FB6307F124030022F4
:100724001946144801F0E4FA0346002B01D000F006
:10073400C9F800237B600023BB600023FB60002317
:100744003B6100237B614FF40053BB6100233B6298
:100754003B1D1946074801F08FFF0346002B01D0CB
:1007640000F0B0F8034800F0FDF800BF5837BD466C
:1007740080BD00BF2C0000200000014080B58AB07D
:1007840000AF07F1140300221A605A609A60DA601D
:100794001A6100233B61474B1B6B464A43F0040339
:1007A4001363444B1B6B03F004033B613B6900235D
:1007B400FB60404B1B6B3F4A43F0800313633D4B8C
:1007C4001B6B03F08003FB60FB680023BB60394BA9
:1007D4001B6B384A43F001031363364B1B6B03F066
:1007E4000103BB60BB6800237B60324B1B6B314A47
:1007F40043F0020313632F4B1B6B03F002037B6074
:100804007B6800224FF48C612B4800F069FC4FF4A4
:1008140000537B614FF48813BB610023FB6107F134
:1008240014031946254800F0D7FA10237B614FF4CE
:100834000413BB610023FB6107F1140319461E482E
:1008440000F0CAFA4FF48C637B610123BB6100237F
:10085400FB6100233B6207F114031946164800F0BC
:10086400BBFA02237B614FF48813BB610023FB6155
:1008740007F114031946124800F0AEFA00220021D1
:10088400072000F072FA072000F08BFA0022012101
:100894000A2000F06AFA0A2000F083FA00220021FC
:1008A400282000F062FA282000F07BFA00BF2837E5
:1008B400BD4680BD003802400000024000080240EE
:1008C4000004024080B400AF72B600BFFEE700002F
:1008D40080B483B000AF00237B60104B5B6C0F4A85
:1008E40043F4804353640D4B5B6C03F480437B609F
:1008F4007B6800233B60094B1B6C084A43F0805320
:100904001364064B1B6C03F080533B603B6800BFD1
:100914000C37BD465DF8047B704700BF00380240C9
:1009240080B485B000AF78607B681B680B4A934243
:100934000DD10023FB600A4B5B6C094A43F00103B1
:100944005364074B5B6C03F00103FB60FB6800BF5F
:100954001437BD465DF8047B704700BF00000140BA
:100964000038024080B588B000AF786007F10C030E
:1009740000221A605A609A60DA601A617B681B6808
:10098400124A93421ED10023BB60114B1B6B104AC9
:1009940043F0010313630E4B1B6B03F00103BB60B5
:1009A400BB684FF48073FB6002233B6100237B61CF
:1009B4000023BB610123FB6107F10C0319460548C1
:1009C40000F00AFA00BF2037BD4680BD0000014098
:1009D400003802400000024080B400AFFEE780B45B
:1009E40000AFFEE780B400AFFEE780B400AFFEE7DF
:1009F40080B400AFFEE780B400AF00BFBD465DF831
:100A0400047B704780B400AF00BFBD465DF8047B33
:100A1400704780B400AF00BFBD465DF8047B7047EB
:100A240080B500AF00F0A6F800BF80BD80B500AF70
:100A3400022000F089FB00BF80BD80B500AF10200C
:100A440000F082FB00BF80BD80B500AF4FF40050C2
:100A540000F07AFB00BF80BD80B400AF064BD3F832
:100A64008830054A43F47003C2F8883000BFBD469D
:100A74005DF8047B704700BF00ED00E0DFF834D080
:100A84000D480E490E4A002302E0D458C4500433E2
:100A9400C4188C42F9D30B4A0B4C002301E01360B9
:100AA4000432A242FBD3FFF7D7FF01F03FFEFFF76A
:100AB40041FD70470080012000000020100000204C
:100AC400B02700081000002078000020FEE7000096
:100AD40080B500AF0E4B1B680D4A43F400731360DE
:100AE4000B4B1B680A4A43F480631360084B1B6872
:100AF400074A43F480731360032000F02BF90F209E
:100B040000F008F8FFF7E4FE0023184680BD00BF9C
:100B1400003C024080B582B000AF7860124B1A6886
:100B2400124B1B7819464FF47A73B3FBF1F3B2FB03
:100B3400F3F3184600F043F90346002B01D00123D8
:100B44000EE07B680F2B0AD8002279684FF0FF3043
:100B540000F00BF9064A7B681360002300E00123D0
:100B640018460837BD4680BD040000200C00002054
:100B74000800002080B400AF064B1B781A46064BD1
:100B84001B681344044A136000BFBD465DF8047B30
:100B9400704700BF0C0000207400002080B400AF38
:100BA400034B1B681846BD465DF8047B704700BFC5
:100BB4007400002080B485B000AF78607B6803F0D7
:100BC4000703FB600C4BDB68BB60BA684FF6FF039E
:100BD4001340BB60FB681A02BB68134343F0BF6356
:100BE40043F40033BB60044ABB68D36000BF1437CE
:100BF400BD465DF8047B704700ED00E080B400AFB3
:100C0400044BDB681B0A03F007031846BD465DF876
:100C1400047B704700ED00E080B483B000AF03466E
:100C2400FB7197F90730002B0BDBFB7903F01F02F4
:100C3400074997F907305B09012000FA02F241F8ED
:100C4400232000BF0C37BD465DF8047B704700BF0E
:100C540000E100E080B483B000AF03463960FB716B
:100C640097F90730002B0ADB3B68DAB20C4997F995
:100C740007301201D2B20B4483F800230AE03B6828
:100C8400DAB20849FB7903F00F03043B1201D2B234
:100C94000B441A7600BF0C37BD465DF8047B7047E1
:100CA40000E100E000ED00E080B489B000AFF8603E
:100CB400B9607A60FB6803F00703FB61FB69C3F169
:100CC4000703042B28BF0423BB61FB690433062BF1
:100CD40002D9FB69033B00E000237B614FF0FF3244
:100CE400BB6902FA03F3DA43BB681A407B699A4092
:100CF4004FF0FF317B6901FA03F3D9437B680B4062
:100D0400134318462437BD465DF8047B7047000042
:100D140080B582B000AF78607B68013BB3F1807F1F
:100D240001D301230FE00A4A7B68013B53600F2182
:100D34004FF0FF30FFF78EFF054B00229A60044B03
:100D440007221A60002318460837BD4680BD00BF3D
:100D540010E000E080B582B000AF78607868FFF7FB
:100D640029FF00BF0837BD4680BD80B586B000AFFF
:100D74000346B9607A60FB7300237B61FFF73EFF93
:100D840078617A68B9687869FFF78EFF024697F947
:100D94000F3011461846FFF75DFF00BF1837BD46F8
:100DA40080BD80B582B000AF0346FB7197F9073070
:100DB4001846FFF731FF00BF0837BD4680BD80B538
:100DC40082B000AF78607868FFF7A2FF0346184648
:100DD4000837BD4680BD000080B489B000AF78609C
:100DE400396000237B6100233B610023BB61002346
:100DF400FB6159E10122FB6902FA03F37B613B6861
:100E04001B687A6913403B613A697B699A4240F0F6
:100E140048813B685B6803F00303012B05D03B6802
:100E24005B6803F00303022B30D17B689B68BB61D2
:100E3400FB695B00032202FA03F3DB43BA69134044
:100E4400BB613B68DA68FB695B0002FA03F3BA69C9
:100E54001343BB617B68BA699A607B685B68BB615A
:100E64000122FB6902FA03F3DB43BA691340BB6155
:100E74003B685B681B0903F00102FB6902FA03F398
:100E8400BA691343BB617B68BA695A603B685B68A3
:100E940003F00303032B17D07B68DB68BB61FB699A
:100EA4005B00032202FA03F3DB43BA691340BB611C
:100EB4003B689A68FB695B0002FA03F3BA6913435F
:100EC400BB617B68BA69DA603B685B6803F0030363
:100ED400022B23D1FB69DA087B68083253F82230ED
:100EE400BB61FB6903F007039B000F2202FA03F3C3
:100EF400DB43BA691340BB613B681A69FB6903F0C1
:100F040007039B0002FA03F3BA691343BB61FB694D
:100F1400DA087B680832B96943F822107B681B68D9
:100F2400BB61FB695B00032202FA03F3DB43BA698A
:100F34001340BB613B685B6803F00302FB695B0021
:100F440002FA03F3BA691343BB617B68BA691A6096
:100F54003B685B6803F44033002B00F0A28000235D
:100F6400FB60574B5B6C564A43F480435364544BC9
:100F74005B6C03F48043FB60FB68524AFB699B088B
:100F8400023352F82330BB61FB6903F003039B0077
:100F94000F2202FA03F3DB43BA691340BB617B6897
:100FA400494A934219D07B68484A934213D07B68DC
:100FB400474A93420DD07B68464A934207D07B68E8
:100FC400454A934201D1042308E0072306E00323A2
:100FD40004E0022302E0012300E00023FA6902F0A6
:100FE400030292009340BA691343BB613549FB691C
:100FF4009B080233BA6941F82320384B9B68BB61D4
:101004003B69DB43BA691340BB613B685B6803F42B
:101014008013002B03D0BA693B691343BB612F4A89
:10102400BB6993602D4BDB68BB613B69DB43BA69E9
:101034001340BB613B685B6803F40013002B03D0CF
:10104400BA693B691343BB61244ABB69D360234B30
:101054005B68BB613B69DB43BA691340BB613B68B6
:101064005B6803F40033002B03D0BA693B69134374
:10107400BB611A4ABB695360184B1B68BB613B696F
:10108400DB43BA691340BB613B685B6803F480339C
:10109400002B03D0BA693B691343BB610F4ABB6998
:1010A4001360FB690133FB61FB690F2B7FF6A2AE72
:1010B40000BF00BF2437BD465DF8047B704700BF06
:1010C40000380240003801400000024000040240A1
:1010D40000080240000C024000100240003C0140A5
:1010E40080B483B000AF78600B467B8013467B707E
:1010F4007B78002B03D07A887B689A6103E07B8835
:101104001A047B689A6100BF0C37BD465DF8047B06
:10111400704780B485B000AF78600B467B807B68F5
:101124005B69FB607A88FB6813401A04FB68D94347
:101134007B880B401A437B689A6100BF1437BD4615
:101144005DF8047B7047000080B582B000AF0346B1
:10115400FB80084B5A69FB881340002B06D0054AD4
:10116400FB885361FB881846FFF7B0F900BF0837C6
:10117400BD4680BD003C014080B586B000AF7860BC
:101184007B68002B01D1012367E27B681B6803F0B5
:101194000103002B75D0884B9B6803F00C03042BD0
:1011A4000CD0854B9B6803F00C03082B12D1824BA7
:1011B4005B6803F48003B3F5800F0BD17E4B1B688F
:1011C40003F40033002B5BD07B685B68002B57D1A2
:1011D400012342E27B685B68B3F5803F06D1764B1E
:1011E4001B68754A43F4803313601DE07B685B68B9
:1011F400B3F5A02F0CD1704B1B686F4A43F48023C6
:1012040013606D4B1B686C4A43F4803313600BE02E
:10121400694B1B68684A23F480331360664B1B6870
:10122400654A23F4802313607B685B68002B13D02A
:10123400FFF7B4FC386108E0FFF7B0FC02463B69F5
:10124400D31A642B01D9032307E25B4B1B6803F415
:101254000033002BF0D014E0FFF7A0FC386108E065
:10126400FFF79CFC02463B69D31A642B01D9032384
:10127400F3E1514B1B6803F40033002BF0D100E081
:1012840000BF7B681B6803F00203002B63D04A4B4A
:101294009B6803F00C03002B0BD0474B9B6803F0B7
:1012A4000C03082B1CD1444B5B6803F48003002B14
:1012B40016D1414B1B6803F00203002B05D07B6859
:1012C400DB68012B01D00123C7E13B4B1B6823F0F2
:1012D400F8027B681B69DB00374913430B603AE073
:1012E4007B68DB68002B20D0344B01221A60FFF7A7
:1012F40055FC386108E0FFF751FC02463B69D31AFC
:10130400022B01D90323A8E12B4B1B6803F0020332
:10131400002BF0D0284B1B6823F0F8027B681B6974
:10132400DB00254913430B6015E0244B00221A60AF
:10133400FFF734FC386108E0FFF730FC02463B69F4
:10134400D31A022B01D9032387E11B4B1B6803F03B
:101354000203002BF0D17B681B6803F00803002B09
:1013640036D07B685B69002B16D0154B01221A60BE
:10137400FFF714FC386108E0FFF710FC02463B69F4
:10138400D31A022B01D9032367E10B4B5B6F03F0E4
:101394000203002BF0D01BE0094B00221A60FFF778
:1013A400FDFB38610EE0FFF7F9FB02463B69D31AF7
:1013B400022B07D9032350E10038024000004742C2
:1013C400800E4742884B5B6F03F00203002BEAD187
:1013D4007B681B6803F00403002B00F09780002354
:1013E400FB75814B1B6C03F08053002B0FD1002342
:1013F400BB607D4B1B6C7C4A43F0805313647A4B77
:101404001B6C03F08053BB60BB680123FB75774BF7
:101414001B6803F48073002B18D1744B1B68734A48
:1014240043F480731360FFF7B9FB386108E0FFF7FA
:10143400B5FB02463B69D31A022B01D903230CE105
:101444006A4B1B6803F48073002BF0D07B689B68A5
:10145400012B06D1644B1B6F634A43F001031367EE
:101464001CE07B689B68052B0CD15F4B1B6F5E4AAD
:1014740043F0040313675C4B1B6F5B4A43F00103A7
:1014840013670BE0584B1B6F574A23F00103136794
:10149400554B1B6F544A23F0040313677B689B6806
:1014A400002B15D0FFF77AFB38610AE0FFF776FBD3
:1014B40002463B69D31A41F28832934201D903238D
:1014C400CBE0494B1B6F03F00203002BEED014E07A
:1014D400FFF764FB38610AE0FFF760FB02463B69F3
:1014E400D31A41F28832934201D90323B5E03E4B2B
:1014F4001B6F03F00203002BEED1FB7D012B05D102
:10150400394B1B6C384A23F0805313647B689B6906
:10151400002B00F0A180344B9B6803F00C03082BD4
:101524005CD07B689B69022B41D1314B00221A604D
:10153400FFF734FB386108E0FFF730FB02463B69F4
:10154400D31A022B01D9032387E0274B1B6803F02E
:101554000073002BF0D17B68DA697B681B6A1A433D
:101564007B685B6A9B011A437B689B6A5B08013B4F
:101574001B041A437B68DB6A1B061B4913434B603D
:101584001B4B01221A60FFF709FB386108E0FFF7E3
:1015940005FB02463B69D31A022B01D903235CE005
:1015A400114B1B6803F00073002BF0D054E0104B78
:1015B40000221A60FFF7F2FA386108E0FFF7EEFA4A
:1015C40002463B69D31A022B01D9032345E0064B9B
:1015D4001B6803F00073002BF0D13DE07B689B692E
:1015E400012B07D1012338E000380240007000408D
:1015F400600047421B4B5B68FB607B689B69012B67
:1016040028D0FB6803F480027B68DB699A4221D10D
:10161400FB6803F03F027B681B6A9A421AD1FA689E
:1016240047F6C07313407A68526A9201934211D10B
:10163400FB6803F440327B689B6A5B08013B1B0434
:101644009A4207D1FB6803F070627B68DB6A1B0671
:101654009A4201D0012300E0002318461837BD4602
:1016640080BD00BF0038024080B584B000AF786010
:1016740039607B68002B01D10123CCE0684B1B68E7
:1016840003F007033A689A420CD9654B3A68D2B220
:101694001A70634B1B6803F007033A689A4201D03F
:1016A4000123B8E07B681B6803F00203002B20D001
:1016B4007B681B6803F00403002B05D0594B9B681F
:1016C400584A43F4E05393607B681B6803F00803B3
:1016D400002B05D0534B9B68524A43F460439360FC
:1016E400504B9B6823F0F0027B689B684D49134381
:1016F4008B607B681B6803F00103002B44D07B687C
:101704005B68012B07D1474B1B6803F40033002BA4
:1017140019D101237FE07B685B68022B03D07B68CF
:101724005B68032B07D13F4B1B6803F00073002B4E
:1017340009D101236FE03B4B1B6803F00203002B2C
:1017440001D1012367E0374B9B6823F003027B68D8
:101754005B68344913438B60FFF720FAF8600AE0B2
:10176400FFF71CFA0246FB68D31A41F2883293420F
:1017740001D903234FE02B4B9B6803F00C027B68D9
:101784005B689B009A42EBD1254B1B6803F007036F
:101794003A689A420CD2224B3A68D2B21A70204B61
:1017A4001B6803F007033A689A4201D0012332E030
:1017B4007B681B6803F00403002B08D0194B9B685B
:1017C40023F4E0527B68DB68164913438B607B6823
:1017D4001B6803F00803002B09D0124B9B6823F409
:1017E40060427B681B69DB000E4913438B6000F089
:1017F40021F802460B4B9B681B0903F00F030A49AF
:10180400CB5C22FA03F3094A1360094B1B681846A0
:10181400FFF780F9002318461037BD4680BD00BF8E
:10182400003C0240003802409027000804000020D9
:10183400080000202DE9B04F94B000AF00237B6472
:101844000023FB6400233B640023BB64794B9B6847
:1018540003F00C03082B0DD0082B00F2E180002BC1
:1018640002D0042B03D0DBE0734BBB64DBE0734B8F
:10187400BB64D8E06F4B5B6803F03F037B646D4B44
:101884005B6803F48003002B63D06A4B5B689B099D
:101894000022BB63FA63BB6BC3F308033B630023FF
:1018A4007B63D7E90C4522462B464FF000004FF0EE
:1018B4000001590141EAD261500102460B4621461A
:1018C400511A3961294663EB01037B614FF0000231
:1018D4004FF00003D7E904AB59468B01514643EA64
:1018E400916351468A015146B2EB0108594663EBB4
:1018F40001094FF000024FF000034FEAC90343EA25
:1019040058734FEAC80290469946234618EB0303DE
:10191400BB602B4649EB0303FB604FF000024FF022
:101924000003D7E9024529464B02214643EAD15335
:1019340021464A02104619467B6C0022BB62FA62B9
:10194400D7E90A23FEF744FC02460B461346FB6420
:1019540058E0384B5B689B09002218461146C0F3D7
:1019640008033B6200237B62D7E9088942464B4661
:101974004FF000004FF00001590141EAD2615001DB
:1019840002460B464146B2EB010A494663EB010BA2
:101994004FF000024FF000034FEA8B1343EA9A63BF
:1019A4004FEA8A12B2EB0A0463EB0B054FF0000214
:1019B4004FF00003EB0043EA5473E20014461D4663
:1019C4004346E3183B604B4645EB03037B604FF013
:1019D40000024FF00003D7E9004529468B02214657
:1019E40043EA915321468A02104619467B6C002231
:1019F400BB61FA61D7E90623FEF7EAFB02460B4610
:101A04001346FB640B4B5B681B0C03F003030133AD
:101A14005B003B64FA6C3B6CB2FBF3F3BB6402E027
:101A2400054BBB6400BFBB6C18465037BD46BDE8D0
:101A3400B08F00BF003802400024F40000127A0086
:101A440080B582B000AF78607B68002B01D10123A0
:101A540041E07B6893F83D30DBB2002B06D17B6814
:101A6400002283F83C207868FEF75AFF7B68022244
:101A740083F83D207B681A687B6804331946104656
:101A840000F0C0FA7B68012283F846207B680122BB
:101A940083F83E207B68012283F83F207B68012283
:101AA40083F840207B68012283F841207B6801226F
:101AB40083F842207B68012283F843207B6801225B
:101AC40083F844207B68012283F845207B68012247
:101AD40083F83D20002318460837BD4680BD80B5F5
:101AE40082B000AF78607B68002B01D1012341E014
:101AF4007B6893F83D30DBB2002B06D17B68002273
:101B040083F83C20786800F039F87B68022283F877
:101B14003D207B681A687B6804331946104600F040
:101B240071FA7B68012283F846207B68012283F8DE
:101B34003E207B68012283F83F207B68012283F8E2
:101B440040207B68012283F841207B68012283F8CE
:101B540042207B68012283F843207B68012283F8BA
:101B640044207B68012283F845207B68012283F8A6
:101B74003D20002318460837BD4680BD80B483B09D
:101B840000AF786000BF0C37BD465DF8047B70473A
:101B940080B584B000AF786039603B68002B09D110
:101BA4007B6893F83E30DBB2012B14BF0123002382
:101BB400DBB222E03B68042B09D17B6893F83F3009
:101BC400DBB2012B14BF01230023DBB215E03B6819
:101BD400082B09D17B6893F84030DBB2012B14BF8A
:101BE40001230023DBB208E07B6893F84130DBB2C9
:101BF400012B14BF01230023DBB2002B01D00123EE
:101C040068E03B68002B04D17B68022283F83E2005
:101C140013E03B68042B04D17B68022283F83F2045
:101C24000BE03B68082B04D17B68022283F8402038
:101C340003E07B68022283F841207B681B68012251
:101C44003968184600F084FC7B681B68234A934279
:101C540007D17B681B685A6C7B681B6842F400429E
:101C64005A647B681B681D4A934218D07B681B68C2
:101C7400B3F1804F13D07B681B68194A93420ED08E
:101C84007B681B68174A934209D07B681B68164A15
:101C9400934204D07B681B68144A934211D17B6839
:101CA4001B689B6803F00703FB60FB68062B10D0DE
:101CB4007B681B681A687B681B6842F001021A6023
:101CC40007E07B681B681A687B681B6842F00102A6
:101CD4001A60002318461037BD4680BD000001403D
:101CE4000004004000080040000C00400040014097
:101CF40080B586B000AFF860B9607A600023FB75E8
:101D0400FB6893F83C30012B01D10223AEE0FB6861
:101D1400012283F83C207B680C2B00F29F8001A2F7
:101D240052F823F05D1D0008611E0008611E0008C2
:101D3400611E00089D1D0008611E0008611E000848
:101D4400611E0008DF1D0008611E0008611E0008F6
:101D5400611E00081F1E0008FB681B68B96818464E
:101D640000F0D0F9FB681B689A69FB681B6842F0B5
:101D740008029A61FB681B689A69FB681B6822F079
:101D840004029A61FB681B689969BB681A69FB685D
:101D94001B680A439A6164E0FB681B68B9681846CB
:101DA40000F016FAFB681B689A69FB681B6842F42A
:101DB40000629A61FB681B689A69FB681B6822F4DD
:101DC40080629A61FB681B689969BB681B691A0287
:101DD400FB681B680A439A6143E0FB681B68B968A7
:101DE400184600F061FAFB681B68DA69FB681B6837
:101DF40042F00802DA61FB681B68DA69FB681B6859
:101E040022F00402DA61FB681B68D969BB681A69AD
:101E1400FB681B680A43DA6123E0FB681B68B96846
:101E2400184600F0ABFAFB681B68DA69FB681B68AC
:101E340042F40062DA61FB681B68DA69FB681B68BC
:101E440022F48062DA61FB681B68D969BB681B698C
:101E54001A02FB681B680A43DA6102E00123FB757E
:101E640000BFFB68002283F83C20FB7D184618372E
:101E7400BD4680BD80B584B000AF78603960002372
:101E8400FB737B6893F83C30012B01D10223B4E04F
:101E94007B68012283F83C207B68022283F83D2082
:101EA4007B681B689B68BB60BB6823F07703BB60DF
:101EB400BB6823F47F43BB607B681B68BA689A6085
:101EC4003B681B68B3F5005F3ED0B3F5005F00F2DA
:101ED4008780B3F5805F00F08680B3F5805F7FD89C
:101EE400702B1AD0702B7BD8602B50D0602B77D8F6
:101EF400502B3CD0502B73D8402B58D0402B6FD84C
:101F0400302B64D0302B6BD8202B60D0202B67D89B
:101F1400002B5CD0102B5AD062E07B6818683B68B9
:101F240099683B685A683B68DB6800F0F1FA7B68A3
:101F34001B689B68BB60BB6843F07703BB607B682E
:101F44001B68BA689A604FE07B6818683B689968B8
:101F54003B685A683B68DB6800F0DAFA7B681B6808
:101F64009A687B681B6842F480429A603CE07B6814
:101F740018683B6859683B68DB681A4600F04EFAFB
:101F84007B681B685021184600F0A7FA2CE07B6898
:101F940018683B6859683B68DB681A4600F06DFABC
:101FA4007B681B686021184600F097FA1CE07B6888
:101FB40018683B6859683B68DB681A4600F02EFADB
:101FC4007B681B684021184600F087FA0CE07B68A8
:101FD4001A683B681B681946104600F07EFA03E055
:101FE4000123FB7300E000BF7B68012283F83D20DE
:101FF4007B68002283F83C20FB7B18461037BD46E3
:1020040080BD000080B485B000AF786039607B6823
:102014001B68FB607B68344A93420FD07B68B3F142
:10202400804F0BD07B68314A934207D07B68304A9B
:10203400934203D07B682F4A934208D1FB6823F074
:102044007003FB603B685B68FA681343FB607B6862
:10205400254A93421BD07B68B3F1804F17D07B682D
:10206400224A934213D07B68214A93420FD07B6863
:10207400204A93420BD07B681F4A934207D07B6867
:102084001E4A934203D07B681D4A934208D1FB68E1
:1020940023F44073FB603B68DB68FA681343FB601E
:1020A400FB6823F080023B685B691343FB607B6839
:1020B400FA681A603B689A687B68DA623B681A6857
:1020C4007B689A627B68084A934203D13B681A6929
:1020D4007B681A637B6801225A6100BF1437BD46CE
:1020E4005DF8047B704700BF00000140000400401D
:1020F40000080040000C0040004001400044014042
:102104000048014080B487B000AF786039607B68D4
:102114001B6A23F001027B681A627B681B6A7B617D
:102124007B685B683B617B689B69FB60FB6823F0B1
:102134007003FB60FB6823F00303FB603B681B68D0
:10214400FA681343FB607B6923F002037B613B68FD
:102154009B687A6913437B617B681C4A93420CD168
:102164007B6923F008037B613B68DB687A6913436E
:102174007B617B6923F004037B617B68134A934290
:1021840011D13B6923F480733B613B6923F40073F1
:102194003B613B685B693A6913433B613B689B69FC
:1021A4003A6913433B617B683A695A607B68FA6811
:1021B4009A613B685A687B685A637B687A691A62D9
:1021C40000BF1C37BD465DF8047B7047000001402A
:1021D40080B487B000AF786039607B681B6A23F0F5
:1021E40010027B681A627B681B6A7B617B685B6890
:1021F4003B617B689B69FB60FB6823F4E043FB6005
:10220400FB6823F44073FB603B681B681B02FA689D
:102214001343FB607B6923F020037B613B689B686D
:102224001B017A6913437B617B681E4A93420DD17B
:102234007B6923F080037B613B68DB681B017A695F
:1022440013437B617B6923F040037B617B68154A00
:10225400934213D13B6923F480633B613B6923F4CC
:1022640000633B613B685B699B003A6913433B61D4
:102274003B689B699B003A6913433B617B683A69FD
:102284005A607B68FA689A613B685A687B689A630B
:102294007B687A691A6200BF1C37BD465DF8047B0F
:1022A400704700BF0000014080B487B000AF786081
:1022B40039607B681B6A23F480727B681A627B68CE
:1022C4001B6A7B617B685B683B617B68DB69FB60E5
:1022D400FB6823F07003FB60FB6823F00303FB60DF
:1022E4003B681B68FA681343FB607B6923F4007343
:1022F4007B613B689B681B027A6913437B617B6843
:102304001D4A93420DD17B6923F400637B613B68D2
:10231400DB681B027A6913437B617B6923F4806366
:102324007B617B68144A934213D13B6923F4805345
:102334003B613B6923F400533B613B685B691B01D0
:102344003A6913433B613B689B691B013A69134338
:102354003B617B683A695A607B68FA68DA613B687A
:102364005A687B68DA637B687A691A6200BF1C3733
:10237400BD465DF8047B70470000014080B487B01F
:1023840000AF786039607B681B6A23F480527B68F5
:102394001A627B681B6A3B617B685B687B617B6854
:1023A400DB69FB60FB6823F4E043FB60FB6823F418
:1023B4004073FB603B681B681B02FA681343FB60B5
:1023C4003B6923F400533B613B689B681B033A69F8
:1023D40013433B617B68104A934209D17B6923F420
:1023E40080437B613B685B699B017A6913437B6132
:1023F4007B687A695A607B68FA68DA613B685A6874
:102404007B681A647B683A691A6200BF1C37BD4650
:102414005DF8047B704700BF0000014080B487B0C2
:1024240000AFF860B9607A60FB681B6A7B61FB6887
:102434001B6A23F00102FB681A62FB689B693B611B
:102444003B6923F0F0033B617B681B013A6913434A
:102454003B617B6923F00A037B617A69BB681343A0
:102464007B61FB683A699A61FB687A691A6200BF0A
:102474001C37BD465DF8047B704780B487B000AF5D
:10248400F860B9607A60FB681B6A23F01002FB688D
:102494001A62FB689B697B61FB681B6A3B617B6911
:1024A40023F470437B617B681B037A6913437B616C
:1024B4003B6923F0A0033B61BB681B013A691343EA
:1024C4003B61FB687A699A61FB683A691A6200BFEA
:1024D4001C37BD465DF8047B704780B485B000AFFF
:1024E400786039607B689B68FB60FB6823F070034D
:1024F400FB603A68FB68134343F00703FB607B68A7
:10250400FA689A6000BF1437BD465DF8047B7047D3
:1025140080B487B000AFF860B9607A603B60FB6854
:102524009B687B617B6923F47F437B613B681A0270
:102534007B681A43BB6813437A6913437B61FB6866
:102544007A699A6000BF1C37BD465DF8047B70470A
:1025540080B487B000AFF860B9607A60BB6803F0FC
:102564001F03012202FA03F37B61FB681A6A7B6989
:10257400DB431A40FB681A62FB681A6ABB6803F003
:102584001F03796801FA03F31A43FB681A6200BF58
:102594001C37BD465DF8047B7047000080B485B0ED
:1025A40000AF786039607B6893F83C30012B01D12F
:1025B400022350E07B68012283F83C207B680222DE
:1025C40083F83D207B681B685B68FB607B681B6845
:1025D4009B68BB60FB6823F07003FB603B681B686F
:1025E400FA681343FB607B681B68FA685A607B686F
:1025F4001B681C4A934218D07B681B68B3F1804F58
:1026040013D07B681B68184A93420ED07B681B6802
:10261400164A934209D07B681B68154A934204D03A
:102624007B681B68134A93420CD1BB6823F0800378
:10263400BB603B685B68BA681343BB607B681B681C
:10264400BA689A607B68012283F83D207B68002287
:1026540083F83C20002318461437BD465DF8047BFC
:10266400704700BF00000140000400400008004023
:10267400000C00400040014080B485B000AF786099
:1026840039600023FB607B6893F83C30012B01D157
:1026940002233DE07B68012283F83C20FB6823F0A1
:1026A400FF023B68DB681343FB60FB6823F4407262
:1026B4003B689B681343FB60FB6823F480623B68C0
:1026C4005B681343FB60FB6823F400623B681B6890
:1026D4001343FB60FB6823F480523B681B6913437C
:1026E400FB60FB6823F400523B685B691343FB60A7
:1026F400FB6823F480423B68DB691343FB607B681F
:102704001B68FA685A647B68002283F83C20002323
:1027140018461437BD465DF8047B704702440346EF
:10272400934200D1704703F8011BF9E770B50D4DD2
:102734000D4C641BA4100026A64209D10B4D0C4C71
:1027440000F018F8641BA4100026A64205D170BD41
:1027540055F8043B98470136EEE755F8043B984793
:102764000136F2E7A8270008A8270008A8270008D0
:10277400AC270008F8B500BFF8BC08BC9E467047FB
:0C278400F8B500BFF8BC08BC9E467047CA
:102790000000000000000000010203040607080911
:0827A00064DAFF7F0100000074
:0427A800B90100086B
:0427AC00950100088B
:1027B0000A0000000024F4001000000001000000E6
:0400000508000A8164
:00000001FF
