:020000040800F2
:100000000000022081260008092600080B260008AF
:100010000D2600080F260008112600080000000029
:10002000000000000000000000000000132600088F
:1000300015260008000000001726000819260008F1
:10004000D1260008D1260008D1260008D1260008B4
:10005000D1260008D1260008D1260008D1260008A4
:10006000D1260008D1260008D1260008D126000894
:10007000D1260008D1260008D1260008D126000884
:10008000D1260008D1260008D1260008D126000874
:10009000D1260008D1260008D1260008D126000864
:1000A000D1260008D1260008D1260008D126000854
:1000B000D1260008D1260008D1260008D126000844
:1000C000D1260008D1260008D1260008D126000834
:1000D000D1260008D1260008D1260008D126000824
:1000E000D126000825260008D1260008D1260008C0
:1000F000D1260008D1260008D1260008D126000804
:10010000D1260008D1260008D1260008D1260008F3
:10011000D1260008D1260008D1260008D1260008E3
:10012000D1260008D1260008D1260008D1260008D3
:10013000D12600080000000000000000D1260008C1
:10014000D1260008D1260008D1260008D1260008B3
:10015000D1260008D1260008D1260008D1260008A3
:10016000D1260008D1260008D1260008D126000893
:10017000D1260008D1260008D12600080000000082
:1001800000000000D1260008000000000000000070
:10019000D12600080000000000000000D126000861
:1001A000000000000000000000000000D126000850
:1001B000D1260008D1260008D1260008D126000843
:0401C000D12600083C
:1001D00010B5054C237833B9044B13B10448AFF381
:1001E00000800123237010BD5C000020000000008F
:1001F0001C30000808B5034B1BB103490348AFF39B
:10020000008008BD00000000600000201C300008D5
:1002100001F0FF01102A2BDB10F0070F08D010F8B7
:10022000013B013A8B422DD010F0070F42B3F6D1BB
:10023000F0B441EA012141EA014122F007047FF0D4
:1002400000070023F0E80256083C85EA010586EA2B
:10025000010685FA47F5A3FA87F586FA47F6A5FA67
:1002600087F68EB9EED1F0BC01F0FF0102F0070273
:1002700032B110F8013B013A83EA010313B1F8D11E
:100280000020704701387047002D06BF35460338FF
:10029000073815F0010F07D1013015F4807F02BF38
:1002A000013015F4C03F0130F0BC0138704700BF89
:1002B00053B94AB9002908BF00281CBF4FF0FF31CD
:1002C0004FF0FF3000F070B9ADF1080C6DE904CECD
:1002D00000F006F8DDF804E0DDE9022304B0704721
:1002E0002DE9F047089E0D4604460F46002B4AD1E3
:1002F0008A42944665D9B2FA82F343B102FA03FC0A
:10030000C3F120029F4020FA02F217439C404FEABB
:100310001C4E1FFA8CF5B7FBFEF1220C0EFB117779
:1003200042EA074201FB05F090420AD91CEB0202A7
:1003300001F1FF3780F01C81904240F219810239AF
:100340006244121AA4B2B2FBFEF00EFB102244EA81
:10035000024400FB05F5A5420AD91CEB040400F198
:10036000FF3280F00781A54240F2048164440238E4
:1003700040EA0140641B00211EB1DC400023C6E9B5
:100380000043BDE8F0878B4208D9002E00F0ED80D5
:100390000021C6E900050846BDE8F087B3FA83F1FD
:1003A000002949D1AB4202D3824200F2F880841A7C
:1003B00065EB030201201746002EE2D0C6E9004794
:1003C000DFE702B9FFDEB2FA82F3002B40F0908043
:1003D0008A1A4FEA1C471FFA8CFE0121B2FBF7F57F
:1003E00007FB1520220C42EA00420EFB05F090426A
:1003F00008D91CEB020205F1FF3802D2904200F24C
:10040000CB804546121AA4B2B2FBF7F007FB1022CC
:1004100044EA02440EFB00FEA64508D91CEB040486
:1004200000F1FF3202D2A64500F2BB801046A4EBD9
:100430000E0440EA05409FE7C1F120078B4022FAF5
:1004400007FC4CEA030C05FA01F420FA07F3FD401F
:100450004FEA1C492343B5FBF9F81FFA8CFE09FB50
:1004600018551C0C44EA054408FB0EF5A54202FA97
:1004700001F200FA01F00BD91CEB040408F1FF3A79
:1004800080F08880A54240F28580A8F1020864448B
:10049000641B9DB2B4FBF9F309FB134445EA044421
:1004A00003FB0EFEA64508D91CEB040403F1FF353F
:1004B0006CD2A6456AD9023B644443EA0843A3FBD5
:1004C0000295A4EB0E04AC42C846AE4656D353D0B8
:1004D00056B1B0EB080264EB0E0404FA07F7CA4009
:1004E000CC401743C6E9007418460021BDE8F087E8
:1004F000C3F1200102FA03FC20FA01F225FA01F10E
:100500009D402A434FEA1C471FFA8CFEB1FBF7F0CF
:1005100007FB1015110C41EA054100FB0EF58D4259
:1005200004FA03F408D91CEB010100F1FF382FD2C3
:100530008D422DD902386144491B92B2B1FBF7F5C7
:1005400007FB151142EA014205FB0EF1914208D961
:100550001CEB020205F1FF3816D2914214D9023D7C
:100560006244521A45EA004138E73146304608E70E
:100570003946E6E61046FBE64845A9D2B9EB020843
:1005800065EB0C0E013BA3E74546EAE72B4694E7F3
:100590004046D1E7D0467BE7023D624432E7084659
:1005A0000AE76444023842E7704700BF10B50446CA
:1005B0000E4B1A784FF47A73B3FBF2F30C4A1068BF
:1005C000B0FBF3F000F0ACF868B90F2C01D90120B2
:1005D0000AE0002221464FF0FF3000F05DF8034BA7
:1005E0005C60002000E0012010BD00BF0000002082
:1005F0000800002008B50B4B1A6842F400721A601C
:100600001A6842F480621A601A6842F480721A60B2
:10061000032000F02FF80020FFF7C8FF01F066FF6D
:10062000002008BD003C0240034A1168034B1B78C0
:100630000B441360704700BF7800002000000020CA
:10064000014B1868704700BF7800002038B5044699
:10065000FFF7F6FF0546B4F1FF3F02D0044B1B78CD
:100660001C44FFF7EDFF401BA042FAD338BD00BF8A
:1006700000000020074AD36823F4E0631B041B0C2E
:10068000000200F4E060034343F0BF6343F400332F
:10069000D360704700ED00E000B5194BDB68C3F391
:1006A0000223C3F1070CBCF1040F28BF4FF0040C68
:1006B00003F1040EBEF1060F18D9033B4FF0FF3EC5
:1006C0000EFA0CFC21EA0C0199400EFA03FE22EA14
:1006D0000E020A4300280BDB1201D2B200F1604087
:1006E00000F5614080F800235DF804FB0023E5E796
:1006F00000F00F001201D2B2024B1A54F4E700BF0F
:1007000000ED00E014ED00E000F01F0240090123BD
:100710009340024A42F82030704700BF00E100E0F9
:100720000138B0F1807F0BD24FF0E0235861054AC9
:10073000F02182F823100020986107221A61704787
:100740000120704700ED00E0042806D04FF0E022C1
:10075000136923F00403136170474FF0E02213691B
:1007600043F0040313617047704708B5FFF7FCFFBF
:1007700008BD000000230F2B00F2D48070B582B0BA
:100780003AE0062200E00022AA4032430234664DDD
:1007900045F82420654A14686FEA0C0224EA0C0527
:1007A0004E6816F4803F01D04CEA04055F4C25608A
:1007B000646802EA04054E6816F4003F01D04CEA72
:1007C00004055A4C6560A46802EA04054E6816F4F4
:1007D000801F01D04CEA0405544CA560E468224017
:1007E0004D6815F4001F01D04CEA04024F4CE26042
:1007F00001330F2B00F2948001229A400C6804EA26
:10080000020C32EA0404F3D14C68022C01D0122C01
:1008100012D1DD08083550F8254003F00706B60070
:100820004FF00F0E0EFA06FE24EA0E0E0C69B440CD
:1008300044EA0E0440F8254006684FEA430E0324BC
:1008400004FA0EF4E54326EA04064C6804F00304B7
:1008500004FA0EF4344304604C68661E012E03D97A
:10086000112C01D0122C0FD186682E40CC6804FACE
:100870000EF434438460446824EA02044A68C2F3F4
:1008800000129A4022434260C26815408A6802FA08
:100890000EF22A43C2604A6812F0805FA8D000229C
:1008A0000192234A546C44F480445464526C02F420
:1008B00080420192019A9C08A51C1B4A52F82560AF
:1008C00003F00305AD000F22AA4026EA0206194AEA
:1008D00090423FF458AF02F58062904216D002F584
:1008E0008062904214D002F58062904212D002F5EC
:1008F0008062904210D002F5806290420ED002F5E4
:10090000806290423FF43DAF07223DE701223BE782
:10091000022239E7032237E7042235E7052233E7CD
:1009200002B070BD704700BF00380140003C01407C
:1009300000380240000002400AB18161704709049A
:100940008161704703685A6912F4806F01D10020F9
:1009500070476FF480625A610423036400230363C9
:10096000202280F83D2080F83C30012070472DE99E
:10097000F04107460D4690461E4620E02EB1FFF797
:100980005FFE069BC01AB04219D900233B632022A8
:1009900087F83D2087F83E3087F83C3003201EE082
:1009A0003B689C6925EA040C1FFA8CFCBCFA8CFCA1
:1009B0004FEA5C1CE04511D1B6F1FF3FDED1C5F333
:1009C0000743012BECD13B685B6925EA030C1FFA56
:1009D0008CFCBCFA8CFC4FEA5C1CEBE70020BDE809
:1009E000F0812DE9F04105460E461746984633E062
:1009F0001A6842F400721A602B686FF480625A61C0
:100A000004232B6400232B63202285F83D2085F8E6
:100A10003C3001202EE02FB1FFF712FEA0EB0800C2
:100A2000B84219D900232B63202285F83D2085F890
:100A30003C3003201EE02B689C6926EA0404A4B223
:100A4000003C18BF0124A4B12B685A6912F4806FCE
:100A5000CED1B7F1FF3FDED1C6F30743012BEAD178
:100A60002B685C6926EA0404A4B2003C18BF012488
:100A7000E9E70020BDE8F081F0B583B004460D46FB
:100A800016461F46C36A042B0DD0012B0BD013F55D
:100A9000803F08D0036B122B0AD10268136843F41D
:100AA0008073136004E02268136843F4807313605A
:100AB0000097334600224FF001112046FFF757FF01
:100AC00070BB2369B3F5804F0FD1236805F0FE0595
:100AD0001D613B46324614492046FFF782FF00B3B2
:100AE000236C042B1AD003201BE0EB11226803F0C7
:100AF000060343F0F00313613B4632460B492046A0
:100B0000FFF76FFF30B1236C042B01D0032008E006
:100B1000012006E02368EDB21D61DAE7012000E064
:100B2000032003B0F0BD00BF020001000800010077
:100B300070B504460D46164623685B6913F0800FB6
:100B400019D12046FFF7FEFEB8B9B5F1FF3FF3D04B
:100B500025B1FFF775FD801BA842EDD9236C43F04A
:100B60002003236400232363202284F83D2084F89B
:100B70003C30032000E0002070BD0120FCE770B590
:100B800004460D46164623685B6913F0040F19D11D
:100B90002046FFF7D7FEB8B9B5F1FF3FF3D025B136
:100BA000FFF74EFD801BA842EDD9236C43F02003D4
:100BB000236400232363202284F83D2084F83C3002
:100BC000032000E0002070BD0120FCE7002800F0B9
:100BD000828010B5044690F83D30002B41D024238C
:100BE00084F83D302268136823F00103136000F09D
:100BF00033FA3A4BA3FB00239B0C226853606168D5
:100C0000374A914232D80133226813626368344A0A
:100C1000934235D85B00B0FBF3F040F6FC7318420A
:100C200000D104202368D861E369216A22680B435C
:100C300013602369E16822680B4393606369A169CB
:100C400022680B43D3602268136843F001031360EA
:100C500000202064202384F83D30206384F83E0087
:100C600010BD80F83C3001F08BFCB8E74FF4967271
:100C700002FB03F31B4AA2FB03239B090133C3E7D7
:100C8000A16889B903EB4302B0FBF2F2C2F30B0295
:100C9000B2FA82F25209E2B991B903EB4303B0FB15
:100CA000F3F343F40040BDE703EB830202EB82025F
:100CB000B0FBF2F2C2F30B02B2FA82F25209EAE797
:100CC00003EB830303EB8303B0FBF3F040F44040FA
:100CD000A8E70120A6E70120704700BF83DE1B4381
:100CE000A0860100D34D62102DE9F04385B0044683
:100CF0000F46914698460C9EFFF7A2FC054694F8D5
:100D00003D00C0B2202804D00227384605B0BDE817
:100D1000F08300951923012255492046FFF727FE4D
:100D2000002840F0A08094F83C30012B00F09D801A
:100D3000012384F83C3023681A6812F0010F03D1B4
:100D40001A6842F001021A602268136823F40063F3
:100D50001360212384F83D30102384F83E300023B3
:100D60002364C4F82490A4F82A80A3F58033E362B6
:100D7000638D23852B46324639462046FFF77CFE9D
:100D8000074660B1236C042B04D0002384F83C3068
:100D90000327BAE7002384F83C300127B5E7002396
:100DA000039323685A6903929B690393039B12E0A0
:100DB000236C042B01D00327A7E72268136843F4B0
:100DC000007313600127A0E72A4631462046FFF74B
:100DD000D6FE00282DD1238D002B36D02A46314651
:100DE0002046FFF7A5FE0028E2D1636A5A1C626222
:100DF00022681B781361618D89B2013989B26185DE
:100E0000238D013B9BB223852268516911F0040FA9
:100E1000DAD0002BD8D0636A591C61621B78136149
:100E2000638D9BB2013B9BB26385238D013B238580
:100E3000CAE7236C042B01D0032766E722681368F6
:100E400043F40073136001275FE72268136843F4DB
:100E500000731360202384F83D30002384F83E3073
:100E600084F83C3051E702274FE702274DE700BFE7
:100E70000200100010B582B000230193194B1A6CC8
:100E800042F080521A641B6C03F080530193019B63
:100E9000154B01221A64FFF7D3FB0446134B5B6822
:100EA00013F4803F08D1FFF7CBFB001BB0F57A7F2E
:100EB000F4D9032002B010BD0B4B01225A64FFF796
:100EC000BFFB0446094B5B6813F4003F07D1FFF7F3
:100ED000B7FB001BB0F57A7FF4D90320EAE70020C6
:100EE000E8E700BF0038024000000E4200700040FA
:100EF000002800F09A8070B50D4604464F4B1B68E1
:100F000003F00F038B4208D2CBB24C4A1370136824
:100F100003F00F038B4240F08A80236813F0020F26
:100F200017D013F0040F04D0454A936843F4E053FC
:100F30009360236813F0080F04D0414A936843F488
:100F4000604393603E4A936823F0F003A1680B432B
:100F50009360236813F0010F32D06368012B21D016
:100F60009A1E012A25D9364A126812F0020F60D063
:100F700033498A6822F0030213438B60FFF760FB5A
:100F800006462F4B9B6803F00C036268B3EB820F9D
:100F900016D0FFF755FB801B41F288339842F0D9F9
:100FA000032041E0264A126812F4003FE0D10120FC
:100FB0003AE0234A126812F0007FD9D1012033E0D1
:100FC0001E4B1B6803F00F03AB4207D9EAB21B4B61
:100FD0001A701B6803F00F03AB422CD1236813F087
:100FE000040F06D0164A936823F4E053E1680B43DC
:100FF0009360236813F0080F07D0114A936823F415
:101000006043216943EAC103936000F06FFA0C4B1F
:101010009B68C3F303130B4AD35CD8400A4B186098
:101020000020FFF7C3FA002070BD012070470120A7
:10103000FAE70120F8E70120F6E700BF003C024094
:10104000003802403430000808000020014B1868C6
:10105000704700BF0800002008B5FFF7F7FF044BFA
:101060009B68C3F38223034AD35CD84008BD00BF0A
:101070000038024044300008F0B583B004460668EA
:1010800016F001060DD0964AD2F88C3023F0C063DA
:10109000816B0B43C2F88C30836B002B00F09B807C
:1010A0000026236813F0020F0BD08D4AD2F88C3043
:1010B00023F0C053E16B0B43C2F88C30E36B03B9F0
:1010C0000126256815F004050FD0854AD2F88C302A
:1010D00023F44013216B0B43C2F88C30236BB3F520
:1010E000801F7AD0002B7AD00025236813F0080FD8
:1010F0000ED07B4AD2F88C3023F44003616B0B4353
:10110000C2F88C30636BB3F5800F6AD003B9012548
:10111000236813F0200F66D1236813F0100F04D05A
:1011200094F858206F4BC3F8E021236813F0800F28
:1011300008D06B4AD2F8943023F44003E16C0B439F
:10114000C2F89430236813F0400F08D0644AD2F8F4
:10115000943023F08063A16C0B43C2F89430236871
:1011600013F4807F0DD05E4AD2F8943023F00063F0
:10117000616D0B43C2F89430636DB3F1006F00F002
:101180009B80236813F4007F08D0554AD2F894302E
:1011900023F08053616C0B43C2F89430236813F43E
:1011A000806F0CD04E4AD2F8943023F00053216D5A
:1011B0000B43C2F89430236DB3F1005F7ED0002E54
:1011C0007CD12368B3F5006F78D0012D00F0258124
:1011D000002003B0F0BD012663E7012682E7012568
:1011E00083E7012692E7002301933D4B1A6C42F0FE
:1011F00080521A641B6C03F080530193019B3A4A9E
:10120000136843F480731360FFF71AFA0746364BEE
:101210001B6813F4807F06D1FFF712FAC01B022867
:10122000F5D90320D5E72E4B1B6F13F4407314D070
:10123000226C02F440729A420FD0294B1A6F22F4AA
:1012400040722A490120C1F8400E0020C1F8400E2A
:101250001A671B6F13F0010F12D1236C03F4407255
:10126000B2F5407F1DD01E4A936823F4F8139360B3
:101270001B490B6F226CC2F30B0213430B674BE746
:10128000FFF7DEF90746164B1B6F13F0020FE4D190
:10129000FFF7D6F9C01B41F288339842F3D90320F7
:1012A00097E70F498A6822F4F81223F0704323F479
:1012B000407313438B60DBE7012562E70B4B002291
:1012C0009A66FFF7BDF90646054B1B6813F0006FE1
:1012D0000ED0FFF7B5F9801B0228F5D9032078E777
:1012E00000380240001047420070004000004742B2
:1012F000236813F0010F01D0A26B22B113F0020F8B
:1013000015D0E36B9BB9774AD2F88400D2F88410E9
:101310006368A66843EA861300F44030034301F093
:1013200070610B43616943EA0173C2F8843023683A
:1013300013F0040F03D0226BB2F5801F06D013F018
:10134000080F20D0636BB3F5800F1CD1654AD2F82B
:101350008400D2F884106368A66843EA861300F418
:1013600040300343206943EA006301F0E0410B434E
:10137000C2F88430D2F88C3023F01F03A16A0139FF
:101380000B43C2F88C30236813F4806F03D0236DB5
:10139000B3F1005F28D0236813F4006F11D06368A5
:1013A000A26843EA8213E2685208013A43EA024320
:1013B000226943EA0263626943EA0273494AC2F856
:1013C0008430494B01229A66FFF73AF90646454BAD
:1013D0001B6813F0006F7FF4F8AEFFF731F9801B44
:1013E0000228F4D90320F4E63E48D0F88420C2F362
:1013F00001420132D0F884606368A16843EA811336
:10140000E1684908013943EA014343EA426306F0CF
:10141000E0421343C0F88430BDE7334B00221A6723
:10142000FFF70EF905462F4B1B6813F0005F06D03F
:10143000FFF706F9401B0228F5D90320C9E6236807
:1014400013F0040F01D0226B22B113F0080F1AD051
:10145000636BC3B9234AD2F88810A369E06943EAF1
:10146000801301F440310B43616A43EA0163C2F81F
:101470008830D2F88C3023F4F853E16A013943EA1A
:101480000123C2F88C30236813F4807F03D0636D8E
:10149000B3F1006F11D0144B01221A67FFF7D0F897
:1014A0000446104B1B6813F0005F18D1FFF7C8F813
:1014B000001B0228F5D903208BE60A48D0F88810D3
:1014C000A369E26943EA8213226A5208013A43EAB5
:1014D000024301F070621343C0F88830DBE700205C
:1014E00077E600BF003802400000474208B5604B75
:1014F0009B6803F00C03082B07D00C2B5FD0042B48
:1015000001D05C4808BD5C48FCE7594B5A6802F0C2
:101510003F025B6813F4800F2CD0554B5868C0F322
:1015200088104FEA401CBCEB000C6EEB0E0E4FEA2D
:101530008E1343EA9C634FEA8C11B1EB0C0163EB11
:101540000E03DB0043EA5173C90011EB000C43F1B9
:101550000003590200234FEA4C2041EADC51FEF718
:10156000A7FE434B5B68C3F3014301335B00B0FB51
:10157000F3F0C7E73E4B5868C0F388104FEA401CB1
:10158000BCEB000C6EEB0E0E4FEA8E1343EA9C632D
:101590004FEA8C11B1EB0C0163EB0E03DB0043EA65
:1015A0005173C90011EB000C43F1000399020023B1
:1015B0004FEA8C2041EA9C51FEF77AFED1E72C4B92
:1015C0005A6802F03F025B6813F4800F2AD0284B60
:1015D0005868C0F388104FEA401CBCEB000C6EEB5F
:1015E0000E0E4FEA8E1343EA9C634FEA8C11B1EB67
:1015F0000C0163EB0E03DB0043EA5173C90011EBEE
:10160000000C43F10003590200234FEA4C2041EA49
:10161000DC51FEF74DFE164B5B68C3F30273B0FB63
:10162000F3F06FE7124B5868C0F388104FEA401C84
:10163000BCEB000C6EEB0E0E4FEA8E1343EA9C637C
:101640004FEA8C11B1EB0C0163EB0E03DB0043EAB4
:101650005173C90011EB000C43F100039902002300
:101660004FEA8C2041EA9C51FEF722FED3E700BFEF
:10167000003802400024F40000127A0070B582B0F5
:101680000446036813F0010F41D09A4B9B6803F0A6
:101690000C03042B32D0974B9B6803F00C03082BF0
:1016A00027D0944B9B6803F00C030C2B59D0636834
:1016B000B3F5803F5BD0B3F5A02F5ED08D4B1A6899
:1016C00022F480321A601A6822F480221A60636859
:1016D000002B5CD0FEF7B4FF0546864B1B6813F465
:1016E000003F14D1FEF7ACFF401B6428F5D903205E
:1016F0009FE1804B5B6813F4800FD2D07D4B1B6859
:1017000013F4003F03D06368002B00F08D81236841
:1017100013F0020F60D0774B9B6813F00C0F4AD088
:10172000744B9B6803F00C03082B3FD0714B9B68F4
:1017300003F00C030C2B69D0E368002B75D06E4BC3
:1017400001221A60FEF77CFF05466A4B1B6813F006
:10175000020F61D1FEF774FF401B0228F5D9032068
:1017600067E1644B5B6813F4800FA0D0C6E7614A61
:10177000136843F480331360A9E75E4B1A6842F4A0
:1017800080221A601A6842F480321A609FE7FEF7DE
:1017900057FF0546574B1B6813F4003FB7D0FEF7C1
:1017A0004FFF401B6428F5D9032042E1514B5B6891
:1017B00013F4800FBAD14F4B1B6813F0020F03D004
:1017C000E368012B40F032814A4A136823F0F803A2
:1017D000216943EAC1031360236813F0080F49D05D
:1017E0006369002B33D0444B0122C3F8802EFEF7EF
:1017F00027FF05463F4B5B6F13F0020F3AD1FEF710
:101800001FFF401B0228F5D9032012E1394B5B680A
:1018100013F4800F90D1CEE7364A136823F0F80313
:10182000216943EAC1031360D6E7334B00221A60F3
:10183000FEF706FF05462F4B1B6813F0020FCBD0B7
:10184000FEF7FEFE401B0228F5D90320F1E02A4BEB
:101850000022C3F8802EFEF7F3FE0546254B5B6F92
:1018600013F0020F06D0FEF7EBFE401B0228F5D95D
:101870000320DEE0236813F0040F77D01D4B1B6CB0
:1018800013F0805F33D1002301931A4B1A6C42F09E
:1018900080521A641B6C03F080530193019B012555
:1018A000164B1B6813F4807F2AD0A368012B3BD012
:1018B000052B3FD00F4B1A6F22F001021A671A6FE7
:1018C00022F004021A67A368002B3DD0FEF7B8FE91
:1018D0000646084B1B6F13F0020F46D1FEF7B0FE11
:1018E000801B41F288339842F3D90320A1E0002500
:1018F000D6E700BF003802400000474200700040B9
:101900004E4A136843F480731360FEF799FE06464F
:101910004A4B1B6813F4807FC7D1FEF791FE801BF2
:101920000228F5D9032084E0454A136F43F00103F0
:101930001367C8E7424B1A6F42F004021A671A6F26
:1019400042F001021A67BEE7FEF77AFE06463C4BFC
:101950001B6F13F0020F08D0FEF772FE801B41F2DE
:1019600088339842F3D9032063E0E5B9A369002BDB
:101970005ED0334A926802F00C02082A5BD0022B38
:1019800017D0304B00221A66FEF75AFE04462C4B45
:101990001B6813F0007F45D0FEF752FE001B0228A3
:1019A000F5D9032045E0264A136C23F080531364D5
:1019B000DCE7244B00221A66FEF742FE0546204B68
:1019C0001B6813F0007F06D0FEF73AFE401B02288A
:1019D000F5D903202DE0E369226A1343626A43EAE2
:1019E0008213A26A5208013A43EA0243E26A43EAD6
:1019F0000263226B43EA0273114A5360114B0122C6
:101A00001A66FEF71DFE04460D4B1B6813F0007F9F
:101A100006D1FEF715FE001B0228F5D9032008E0C9
:101A2000002006E0002004E0012002E0012000E0A8
:101A3000002002B070BD0120FBE700BF0070004035
:101A4000003802400000474210B504460368DA68D7
:101A500012F4807F03D09B6813F4805F0FD123685A
:101A6000DA6812F4007F03D09B6813F4005F0FD193
:101A70000C4B4FF400325A610123637710BD00F024
:101A8000B3FB2268D368DBB263F4C073D360E6E7CC
:101A9000204600F0C2FA2268D368DBB263F42073F8
:101AA000D360E5E7003C014038B504460268D368DE
:101AB00023F0A003D360FEF7C3FD05462368DB686F
:101AC00013F0200F07D1FEF7BBFD401BB0F57A7F66
:101AD000F4D9032000E0002038BD38B50368DA6887
:101AE00012F0400F01D0002038BD04464FF0FF3205
:101AF000DA60FEF7A5FD05462368DB6813F0400FAA
:101B000007D1FEF79DFD431BB3F57A7FF4D903207F
:101B1000EAE70020E8E738B500285CD00446437FB8
:101B2000002B41D0022363772368CA225A622368BC
:101B300053225A622046FFF7D0FF0546002837D1CE
:101B40002268936823F4E00323F040039360216844
:101B50008A686368206903436069034313438B60A9
:101B60002368E2681A6122681369A16843EA0143A5
:101B700013612268D36823F08003D36023689B68D5
:101B800013F0200F1BD02268136C23F480231364FE
:101B90002268136CA1690B4313642368FF225A6205
:101BA00001236377284638BD037700F015FDB9E7B8
:101BB0002368FF225A62042363770125F2E7204657
:101BC000FFF772FF0028DED02368FF225A62042349
:101BD00063770125E6E70125E4E7002302E001330E
:101BE0000A38C0B20928FAD81B01DBB21843704783
:101BF00070B5037F012B66D004460E4601230377A0
:101C0000022343773AB94B7813F0100F03D003F057
:101C1000EF030A334B70002A33D1F078FFF7DDFF72
:101C200005047078FFF7D9FF45EA0025B078FFF783
:101C3000D4FF0543337845EA43352368CA225A6204
:101C4000236853225A622046FFF747FF064618BB17
:101C5000226825F07F4525F0C00555602268D368CD
:101C600023F08003D36023689B6813F0200F1CD0FF
:101C70002368FF225A6201236377002323773046CB
:101C800070BDF27873781B0243EA0243B2781343C3
:101C9000327843EA4235D0E72368FF225A620423B0
:101CA0006377002323770126E9E72046FFF7FCFE50
:101CB0000028DDD02368FF225A62042363770023C3
:101CC00023770126DBE70226D9E7F8B5037F012B4E
:101CD00078D004460E460123037702234377002A77
:101CE00047D103689B6813F0400F01D10023CB70EC
:101CF0003078FFF772FF05047078FFF76EFF45EA52
:101D00000025B078FFF769FF0543F37845EA0345FE
:101D10002368CA225A62236853225A622046FFF778
:101D2000DCFE0746002836D1226805F07F3525F015
:101D3000FE4515602268936823F480239360216830
:101D40008B68F2683069024313438B602268D36862
:101D500023F08003D36023689B6813F0200F23D007
:101D60002368FF225A6201236377002323773846D2
:101D7000F8BD03689B6813F0400F01D10023CB70BE
:101D8000327873781B0243EA0243B2781343F27845
:101D900043EA0245BCE72368FF225A6204236377C3
:101DA000002323770127E2E72046FFF77DFE002886
:101DB000D6D02368FF225A62042363770023237757
:101DC0000127D4E70227D2E7F0B583B00D46634B75
:101DD0001B686349A1FB0313DB0A4FF47A7101FB13
:101DE00003F30193037F012B00F0B6800446012327
:101DF000037702234377002A61D103689B6813F0BD
:101E0000400F01D10023EB70EF692878FFF7E5FE62
:101E100006046878FFF7E1FE46EA0026A878FFF797
:101E2000DCFE0643EB7846EA034695F82000FFF710
:101E3000D4FE46EA006637436B691F436868AB69A6
:101E400018432368CA225A62236853225A626B6A73
:101E5000B3F5807F4ED02268936823F400739360BB
:101E60002268D368DBB263F42073D360019B5A1EEF
:101E70000192002B68D02368DA6812F0020FF5D0C7
:101E80001F62236898642268936843F40073936028
:101E90002268936843F400539360324B1A6842F40B
:101EA00000321A609A6842F400329A602368FF2276
:101EB0005A62012363770020207703B0F0BD0368E6
:101EC0009B6813F0400F01D10023EB70EA69297879
:101ED0006B781B0243EA0143A9780B43E97843EA94
:101EE000014395F8201043EA016342EA03076B6956
:101EF0001F43A3E72268936823F4807393602268EA
:101F0000D368DBB263F4C073D360019B5A1E0192A5
:101F100093B12368D96811F0010FF6D0DF6123680F
:101F200058642268936843F48073936022689368CE
:101F300043F480539360B0E72368FF225A62032082
:101F4000607700232377B8E72368FF225A620320D3
:101F5000607700232377B0E70220AEE70800002077
:101F6000D34D6210003C0140030903EB830300F0F2
:101F70000F0000EB4300C0B2704770B50C46036819
:101F80009B6A4B6003681B69C3F30E038B60036895
:101F90001D68C5F30641C5F305402070C5F306264C
:101FA000667005F07F05A57001F04003E37052B93B
:101FB000FFF7DAFF20703046FFF7D6FF6070284643
:101FC000FFF7D2FFA070002070BD70B503685B689A
:101FD000C3F30740C870C3F304264E7003F03F05F7
:101FE0008D70C3F342330B705AB90C46FFF7BCFF38
:101FF000E0703046FFF7B8FF60702846FFF7B4FF87
:10200000A070002070BD0368503343F82120704752
:102010000368503353F821007047704700B585B00E
:1020200000F0F0030001C0B243F00C028DF80C2068
:1020300043F008038DF80D3040F00C038DF80E309E
:1020400040F008008DF80F0064230093042303AAD6
:102050004E210348FEF748FE05B05DF804FB00BFC3
:10206000B400002000B585B000F0F0030001C0B25C
:1020700043F00D028DF80C2043F009038DF80D306C
:1020800040F00D038DF80E3040F009008DF80F0080
:1020900064230093042303AA4E210348FEF724FE81
:1020A00005B05DF804FB00BFB400002008B50220B5
:1020B000FFF7B4FF2820FFF7B1FF0C20FFF7AEFFBA
:1020C0008020FFF7ABFF08BD10B5044602E00134E5
:1020D000FFF7C8FF20780028F9D110BD30B58BB0CC
:1020E000002401941C4B1A6B42F004021A631A6B11
:1020F00002F004020192019A02941A6B42F08002EB
:102100001A631A6B02F080020292029A03941A6B0D
:1021100042F001021A631A6B02F001020392039A61
:1021200004941A6B42F002021A631B6B03F0020361
:102130000493049B094D224620212846FEF7FCFB10
:1021400020230593012306930794089405A92846A4
:10215000FEF710FB0BB030BD00380240000002401B
:1021600010B588B0134C002202A92046FFF705FFE6
:10217000002207A92046FFF728FF9DF80A300093A8
:102180009DF809309DF808200B4904F1200000F06B
:10219000A1FA9DF81F3003F5FA6300939DF81D30F6
:1021A0009DF81E20054904F12C0000F093FA08B0B8
:1021B00010BD00BF7C0000204C3000085C300008DF
:1021C00010B58020FFF72AFF064C04F12000FFF72E
:1021D0007BFFC020FFF722FF04F12C00FFF774FF04
:1021E00010BD00BF7C000020024B012283F8362086
:1021F000704700BF7C00002010B5012220210F484D
:10220000FEF79AFB8020FFF709FF0D48FFF75CFF00
:10221000C020FFF703FF0B48FFF756FF40F6B8302A
:10222000FEF714FA8020FFF7F9FE002403E02020D7
:10223000FFF718FF01343B2CF9DD10BD0000024010
:102240006C3000087C300008FEE7000000B587B065
:1022500010238DF8043020238DF8053030238DF8BD
:102260000630002304930593012201A91348FFF7C8
:102270002CFDD0B902238DF8003008238DF80130F1
:1022800012238DF8023000238DF8033001226946B5
:102290000A48FFF7ADFC60B943F2F222012107487A
:1022A000FFF7B1FE07B05DF804FB57210448FFF7C4
:1022B000CBFF64210248FFF7C7FF00BF7C0000206E
:1022C0008C30000800B58BB010238DF8003021232E
:1022D0008DF8013000238DF80230019303930493AD
:1022E00005930693079312238DF820304FF48073E3
:1022F0000993012269460548FFF766FD10B90BB046
:102300005DF804FB80210248FFF79EFF7C0000205F
:102310008C30000808B50C480C4B83630C4BC3632E
:102320000023036443644FF480428264C364036502
:10233000436583653830FEF749FC00B908BD4FF4AA
:10234000AA710448FFF780FF7C0000200054004081
:10235000A08601008C30000808B50A480A4B0360CB
:10236000002343607F228260FF22C26003614361D9
:102370008361FFF7D0FB00B908BD40F27311034839
:10238000FFF762FF7C000020002800408C3000082E
:1023900000B5ADB000210191384B1A6C42F080526B
:1023A0001A641B6C03F080530193019B0291344B20
:1023B0001A6842F440421A601B6803F440430293D7
:1023C000029B05231F934FF4803320930123219315
:1023D000022325934FF48002269204222792B422EE
:1023E000289229932A932B931FA8FFF747F980BBC4
:1023F000FEF740FD90BB0F231A9302231B9300238B
:102400001C934FF4A0531D934FF480531E9305214A
:102410001AA8FEF76DFD30BB202303934FF48073A1
:10242000139303A8FEF728FE10BBFEF70FFE154B13
:10243000A3FB00308009FEF773F90420FEF784F94E
:10244000002211464FF0FF30FEF726F92DB05DF85F
:1024500004FB4FF48D710C48FFF7F6FE40F221119A
:102460000948FFF7F1FE40F22F110748FFF7ECFE95
:102470004FF49B710448FFF7E7FE00BF00380240AD
:1024800000700040D34D62108C30000808B5FEF794
:10249000B1F8FFF77DFFFFF721FEFFF73BFFFFF7E6
:1024A0005BFFFFF703FE01210F48FFF7B1FD43F289
:1024B000F223984215D1FFF705FFFFF751FEFFF712
:1024C0007FFE4FF4FA70FEF7C1F8074B93F83630F1
:1024D000002BF2D0FFF790FE034B002283F836204A
:1024E000EBE7FFF7B3FEE6E77C00002010B582B013
:1024F00000240094214B5A6C42F480425A645A6C76
:1025000002F480420092009A01941A6C42F08052C8
:102510001A641B6C03F080530193019B0320FEF7A8
:10252000A9F8224621466FF00B00FEF7B5F82246C7
:1025300021466FF00A00FEF7AFF8224621466FF001
:102540000900FEF7A9F8224621466FF00400FEF7C5
:10255000A3F8224621466FF00300FEF79DF82246BD
:1025600021466FF00100FEF797F8224621464FF012
:10257000FF30FEF791F802B010BD00BF00380240F6
:102580000268124B9A4200D0704700B587B04FF4F2
:1025900040730193122302930123039303230493B3
:1025A000042305930DEB03010948FEF7E3F800232C
:1025B0000093084B1A6C42F400121A641B6C03F46B
:1025C00000130093009B07B05DF804FB005400402B
:1025D000000402400038024008B50268084B9A42E5
:1025E00000D008BD074B0122C3F83C2E0022114643
:1025F0002920FEF751F82920FEF786F8F1E700BF01
:1026000000280040000047427047FEE7FEE7FEE773
:10261000FEE770477047704708B5FEF705F8FEF70C
:10262000A4F808BD08B50248FFF70EFA08BD00BFC0
:102630007C0000200F49D1F8883043F47003C1F8C2
:1026400088300D4B1A6842F001021A600020986031
:102650001A6822F0847222F480321A60074A5A60A3
:102660001A6822F480221A60D8604FF000638B60F1
:10267000704700BF00ED00E0003802401030002439
:10268000DFF834D0002103E00C4B5B584350043199
:102690000B480C4B42189A42F6D30B4A02E0002337
:1026A00042F8043B094B9A42F9D3FFF7C3FF00F00D
:1026B00031F8FFF7EBFE704700000220E030000821
:1026C000000000205C0000205C000020540200207C
:1026D000FEE700000EB400B59CB01DAB0290069062
:1026E0006FF00041094807910491094953F8042B00
:1026F00005910068019302A900F084F9029B002271
:102700001A701CB05DF804EB03B07047580000204D
:102710000802FFFF70B50D4D0D4C641BA410002680
:10272000A64209D10B4D0C4C00F078FC641BA410A0
:102730000026A64205D170BD55F8043B98470136E6
:10274000EEE755F8043B98470136F2E7D830000829
:10275000D8300008D8300008DC30000870477047D7
:1027600037B5002944D051F8043C0190002BA1F169
:102770000404B8BFE41800F0DFF81E4A019813689B
:1027800033B96360146003B0BDE8304000F0DAB8DC
:10279000A34208D9256861198B4201BF19685B689B
:1027A00049192160EDE71A465B680BB1A342FAD9DB
:1027B00011685518A5420BD1246821445418A3422E
:1027C0001160E0D11C685B6853600C441460DAE768
:1027D00002D90C230360D6E7256861198B4204BF38
:1027E00019685B68636004BF491921605460CAE7D7
:1027F00003B030BD4802002070B50E4E0C46316863
:10280000054611B900F0A6FB30602146284600F0CD
:10281000A1FB431C0AD0C41C24F00304A04207D02F
:10282000211A284600F096FB013001D14FF0FF3409
:10283000204670BD4C0200202DE9F843CD1C25F048
:10284000030508350C2D38BF0C25002D074601DB8C
:10285000A94205D90C233B6000263046BDE8F88329
:10286000DFF8D08000F068F8D8F800301C465CBB78
:1028700029463846FFF7C0FF431C044655D1D8F817
:1028800000402646002E45D1002C48D02368314612
:10289000384604EB030900F05DFB81453FD1216818
:1028A0006D1A29463846FFF7A7FF013037D0236855
:1028B0002B442360D8F80030002B38D05A68A2424D
:1028C0002BD100225A600FE02268521B1FD40B2A22
:1028D00017D96119A342256018BF5960636808BF02
:1028E000C8F8001062514B60384604F10B0600F046
:1028F00029F826F00706231DF21AAED09B1BA35021
:10290000ABE7A3426268DDD1C8F80020ECE72346BC
:102910006468ACE734467668B4E71346CCE70C232A
:102920003B60384600F00EF897E72560DCE75B6017
:10293000FFDE00BF480200200148FFF70FBF00BFC5
:10294000440200200148FFF70ABF00BF44020020F4
:102950002DE9F0478E681F46BE420B6882460C4642
:1029600090462CD88A8912F4906F26D0656909693F
:1029700005EB4505A3EB010905EBD5757B1C4B4425
:102980006D109D4238BF1D46530527D52946FFF7D8
:1029900053FF064660B321694A4600F0EBFAA3896B
:1029A00023F4906343F08003A381266165614E4464
:1029B000A5EB09052660A5603E46BE4200D93E460D
:1029C00020683246414600F0ABFAA3689B1BA36027
:1029D0002368334423600020BDE8F0872A4600F0D6
:1029E000D7FA06460028E0D121695046FFF7B8FE25
:1029F0000C23CAF80030A38943F04003A3814FF0B1
:102A0000FF30E9E72DE9F04F98468B891B069DB012
:102A100007460D4614460ED50B6963B94021FFF7F2
:102A20000BFF2860286120B90C233B604FF0FF307A
:102A3000D0E040236B610023099320238DF82930D7
:102A4000CDF80C803023DFF8A4818DF82A304FF0C8
:102A5000010923469A4613F8012B0AB1252AF9D118
:102A6000BAEB040B0BD05B46224629463846FFF7EB
:102A70006FFF013000F0A980099A5A4409929AF830
:102A80000030002B00F0A18000234FF0FF32CDE991
:102A900005230AF1010A049307938DF853301A9322
:102AA0005446052214F8011B5048FDF7B1FB049A67
:102AB000D8B9D00644BF20238DF85330110744BF46
:102AC0002B238DF853309AF800302A2B15D0079A13
:102AD000544600204FF00A0C214611F8013B303BD0
:102AE000092B4DD9B0B1079214E0A0EB080309FA05
:102AF00003F313430493A246D2E7039B191D1B68FB
:102B00000391002BBBBF5B4242F002020793079385
:102B1000B8BF049223782E2B0CD163782A2B34D1A2
:102B2000039B1A1D1B680392002BB8BF4FF0FF33A5
:102B300002340593DFF8C4A0217803225046FDF744
:102B400067FB38B1049BA0EB0A004022824013438C
:102B50000134049314F8011B25488DF8281006222F
:102B6000FDF756FB002838D0224B1BBB039B0733D5
:102B700023F0070308330393099B3344099368E761
:102B80000CFB02320C460120A6E70023013405931A
:102B900019464FF00A0C204610F8012B303A092A4A
:102BA00003D9002BC6D00591C4E70CFB01210446D4
:102BB0000123F0E703AB00932A460F4B04A93846E4
:102BC000AFF30080421C0646D6D1AB895B063FF5C9
:102BD0002DAF09981DB0BDE8F08F03AB00932A46D6
:102BE000054B04A9384600F079F8EBE79A30000865
:102BF000A43000080000000051290008A03000089F
:102C00002DE9F047164699468A680B69DDF8208061
:102C10009342B8BF1346336091F8432007460C46F1
:102C20000AB1013333602368990642BF3368023327
:102C30003360256815F0060506D104F1190AE3682A
:102C400032689B1AAB4226DC94F84320131E22689C
:102C500018BF012392062BD404F14302494638469B
:102C6000C04701301ED02368226903F00603042BFD
:102C700002BFE5683368ED1AA3680CBF25EAE57565
:102C800000259342C4BF9B1AED1800261A34B542A2
:102C90001AD1002008E00123524649463846C04771
:102CA000013003D14FF0FF30BDE8F0870135C6E7B2
:102CB000E1185A1C302081F84300224494F8451052
:102CC00082F843100233C7E70123224649463846BB
:102CD000C0470130E6D00136D9E700002DE9FF47B3
:102CE0000F7E0C9D782F914680460C469A4601F146
:102CF000430207D8622F0AD8002F00F0D480582F43
:102D000000F0C08004F1420584F842703AE0A7F177
:102D10006303152BF6D801A151F823F0752D000897
:102D2000892D0008052D0008052D0008052D000837
:102D3000052D0008892D0008052D0008052D000827
:102D4000052D0008052D00088D2E0008B52D000862
:102D5000472E0008052D0008052D0008AF2E00089D
:102D6000052D0008B52D0008052D0008052D0008CB
:102D70004F2E00082B681A1D1B682A6004F14205BB
:102D800084F8423001239FE020682B68070603F196
:102D90000401296001D51E6803E04606FBD5B3F99E
:102DA0000060002E03DA2D23764284F843305A481F
:102DB0000A2312E02B682068191D2960050601D539
:102DC0001E6802E04106FBD51E8853486F2F0CBFDA
:102DD00008230A23002184F843106568A560002DAC
:102DE000A2BF216821F0040121600EB9002D4BD053
:102DF0001546B6FBF3F103FB1167C75D05F8017DCE
:102E00003746BB420E46F4D9082B0BD12368DE07A8
:102E100008D5236961689942DEBF302305F8013C7B
:102E200005F1FF35521B2261CDF800A04B4603AAE5
:102E300021464046FFF7E4FE01304AD14FF0FF3013
:102E400004B0BDE8F087236843F0200323603348D3
:102E5000782784F84570236829681F0651F8046BA9
:102E600002D45F0648BFB6B2DF0748BF43F0200375
:102E7000296048BF23601EB9236823F02003236024
:102E80001023A7E72448E4E71546BDE72B6826682A
:102E90006169181D286035061B6801D5196002E0BC
:102EA0007006FBD51980002323611546BCE72B680B
:102EB0001A1D2A601D68626800212846FDF7A8F9DE
:102EC00008B1401B606063682361002384F84330CD
:102ED000AAE723692A4649464046D0470130ADD08B
:102EE00023689B0713D4E068039B9842B8BF184639
:102EF000A6E70123324649464046D04701309DD0DF
:102F00000135E36803995B1AAB42F2DCEBE700257D
:102F100004F11906F5E700BFAB300008BC3000082B
:102F2000884210B501EB020402D98442234607D837
:102F3000431EA14208D011F8012B03F8012FF8E736
:102F4000024401468A4200D110BD13F8014D02F837
:102F5000014DF7E738B5064D0023044608462B60BF
:102F600000F04EF8431C02D12B6803B1236038BD3A
:102F7000400200200A44914200F1FF3300D1704723
:102F800010B511F8014B03F8014F9142F9D110BD72
:102F90002DE9F041804614460E4621B9BDE8F041C6
:102FA0001146FFF749BC2AB9FFF7DAFB2546284648
:102FB000BDE8F08100F01BF88442074602D8B4EB6C
:102FC000500F12D821464046FFF736FC0546002830
:102FD000EDD0BC422246314628BF3A46FFF7CAFF31
:102FE00031464046FFF7BCFBE1E73546DFE751F8E5
:102FF000043C181F002BBCBF0B58C01870470000C2
:10300000044A1168034609B9034911601068034472
:10301000136070475002002058020020F8B500BF2E
:10302000F8BC08BC9E467047F8B500BFF8BC08BCA9
:043030009E46704701
:103034000000000000000000010203040607080964
:103044000000000001020304253032643A253032C6
:10305400643A253032640000253032642D25303244
:10306400642D2532640000005355425343524942B3
:103074004520544F000000007468697320434841A0
:103084004E4E454C000000002E2E2F5372632F6DC0
:1030940061696E2E6300232D302B2000686C4C0078
:1030A4006566674546470030313233343536373844
:1030B40039414243444546003031323334353637A2
:0C30C4003839616263646566000000003A
:0830D00010D2FF7F0100000097
:0430D800F5010008F6
:0430DC00D101000816
:1030E00001000000100000000024F40000000000B7
:1030F0000801002070010020D8010020000000001D
:1031000000000000000000000000000000000000BF
:1031100000000000000000000000000000000000AF
:10312000000000000000000000000000000000009F
:0C31300000000000000000000C00002067
:040000050800268148
:00000001FF
