:020000040800F2
:10000000008001206D1400086113000867130008C8
:100010006D13000873130008791300080000000036
:100020000000000000000000000000007F13000836
:100030008D130008000000009B130008A91300089E
:10004000BD140008BD140008BD140008BD1400084C
:10005000BD140008BD140008BD140008BD1400083C
:10006000BD140008BD140008BD140008BD1400082C
:10007000BD140008BD140008BD140008BD1400081C
:10008000BD140008BD140008B513000800000000EE
:10009000000000000000000000000000BD14000887
:1000A000BD140008BD140008BD140008BD140008EC
:1000B000BD140008BD140008BD140008BD140008DC
:1000C000BD140008BD140008BD140008BD140008CC
:1000D000BD140008C9130008BD140008000000008A
:1000E000BD140008BD140008BD1400080000000085
:1000F000000000000000000000000000BD14000827
:1001000000000000BD140008BD140008BD14000864
:1001100000000000000000000000000000000000DF
:10012000BD140008BD140008BD140008BD1400086B
:10013000BD140008000000000000000000000000E6
:10014000000000000000000000000000BD140008D6
:10015000BD140008BD140008BD140008BD1400083B
:10016000BD140008BD1400080000000000000000DD
:10017000000000000000000000000000000000007F
:1001800000000000BD140008000000000000000096
:04019000BD14000892
:1001A00010B5054C237833B9044B13B10448AFF3B1
:1001B00000800123237010BD5C00002000000000BF
:1001C000604C000808B5034B1BB103490348AFF36B
:1001D000008008BD0000000060000020604C0008A6
:1001E000034613F8012B002AFBD1181A0138704777
:1001F00001F0FF01102A2BDB10F0070F08D010F8D8
:10020000013B013A8B422DD010F0070F42B3F6D1DB
:10021000F0B441EA012141EA014122F007047FF0F4
:1002200000070023F0E80256083C85EA010586EA4B
:10023000010685FA47F5A3FA87F586FA47F6A5FA87
:1002400087F68EB9EED1F0BC01F0FF0102F0070293
:1002500032B110F8013B013A83EA010313B1F8D13E
:100260000020704701387047002D06BF354603381F
:10027000073815F0010F07D1013015F4807F02BF58
:10028000013015F4C03F0130F0BC0138704700BFA9
:1002900081F0004102E000BF83F0004330B54FEA37
:1002A00041044FEA430594EA050F08BF90EA020FA4
:1002B0001FBF54EA000C55EA020C7FEA645C7FEA37
:1002C000655C00F0E2804FEA5454D4EB5555B8BF5A
:1002D0006D420CDD2C4480EA020281EA030382EACB
:1002E000000083EA010180EA020281EA0303362D5D
:1002F00088BF30BD11F0004F4FEA01314FF4801C30
:100300004CEA113102D0404261EB410113F0004F41
:100310004FEA03334CEA133302D0524263EB4303F8
:1003200094EA050F00F0A780A4F10104D5F1200E96
:100330000DDB02FA0EFC22FA05F2801841F10001F1
:1003400003FA0EF2801843FA05F359410EE0A5F1C5
:1003500020050EF1200E012A03FA0EFC28BF4CF0F6
:10036000020C43FA05F3C01851EBE37101F00045AC
:1003700007D54FF0000EDCF1000C7EEB00006EEBB9
:100380000101B1F5801F1BD3B1F5001F0CD3490843
:100390005FEA30004FEA3C0C04F101044FEA44529A
:1003A00012F5800F80F09A80BCF1004F08BF5FEA21
:1003B000500C50F1000041EB045141EA050130BD01
:1003C0005FEA4C0C404141EB0101013C28BFB1F513
:1003D000801FE9D291F0000F04BF01460020B1FA5E
:1003E00081F308BF2033A3F10B03B3F120020CDA31
:1003F0000C3208DD02F1140CC2F10C0201FA0CF00F
:1004000021FA02F10CE002F11402D8BFC2F1200C73
:1004100001FA02F120FA0CFCDCBF41EA0C01904029
:10042000E41AA2BF01EB0451294330BD6FEA040472
:100430001F3C1CDA0C340EDC04F11404C4F120025D
:1004400020FA04F001FA02F340EA030021FA04F36F
:1004500045EA030130BDC4F10C04C4F1200220FAC6
:1004600002F001FA04F340EA0300294630BD21FA04
:1004700004F0294630BD94F0000F83F4801306BFCA
:1004800081F480110134013D4EE77FEA645C18BFBE
:100490007FEA655C29D094EA050F08BF90EA020F55
:1004A00005D054EA000C04BF1946104630BD91EA4D
:1004B000030F1EBF0021002030BD5FEA545C05D150
:1004C0004000494128BF41F0004130BD14F580048F
:1004D0003CBF01F5801130BD01F0004545F0FE4103
:1004E00041F470014FF0000030BD7FEA645C1ABF38
:1004F000194610467FEA655C1CBF0B46024650EA6F
:10050000013406BF52EA033591EA030F41F400219A
:1005100030BD00BF90F0000F04BF0021704730B520
:100520004FF4806404F132044FF000054FF00001F5
:1005300050E700BF90F0000F04BF0021704730B5B6
:100540004FF4806404F1320410F0004548BF40428B
:100550004FF000013EE700BF42004FEAE2014FEAE0
:1005600031014FEA02701FBF12F07F4393F07F4FBB
:1005700081F06051704732F07F4208BF704793F0BE
:100580007F4F04BF41F40021704730B54FF46074D1
:1005900001F0004521F000411CE700BF50EA0102D4
:1005A00008BF704730B54FF000050AE050EA01027D
:1005B00008BF704730B511F0004502D5404261EBED
:1005C00041014FF4806404F132045FEA915C3FF42E
:1005D000D8AE4FF003025FEADC0C18BF03325FEACB
:1005E000DC0C18BF033202EBDC02C2F1200300FA7C
:1005F00003FC20FA02F001FA03FE40EA0E0021FAA1
:1006000002F11444BDE600BF70B54FF0FF0C4CF48E
:10061000E06C1CEA11541DBF1CEA135594EA0C0F40
:1006200095EA0C0F00F0DEF82C4481EA030621EA7B
:100630004C5123EA4C5350EA013518BF52EA0335B6
:1006400041F4801143F4801338D0A0FB02CE4FF068
:100650000005E1FB02E506F00042E0FB03E54FF098
:100660000006E1FB03569CF0000F18BF4EF0010E90
:10067000A4F1FF04B6F5007F64F5407404D25FEA8C
:100680004E0E6D4146EB060642EAC62141EA55513F
:100690004FEAC52040EA5E504FEACE2EB4F1FD0C81
:1006A00088BFBCF5E06F1ED8BEF1004F08BF5FEAFF
:1006B000500E50F1000041EB045170BD06F00046B1
:1006C00046EA010140EA020081EA0301B4EB5C045E
:1006D000C2BFD4EB0C0541EA045170BD41F4801156
:1006E0004FF0000E013C00F3AB8014F1360FDEBF7B
:1006F000002001F0004170BDC4F10004203C35DA57
:100700000C341BDC04F11404C4F1200500FA05F3D9
:1007100020FA04F001FA05F240EA020001F000427A
:1007200021F0004110EBD37021FA04F642EB0601F0
:100730005EEA430E08BF20EAD37070BDC4F10C041A
:10074000C4F1200500FA04F320FA05F001FA04F2DE
:1007500040EA020001F0004110EBD37041F10001CA
:100760005EEA430E08BF20EAD37070BDC4F12005D5
:1007700000FA05F24EEA020E20FA04F301FA05F23D
:1007800043EA020321FA04F001F0004121FA04F2E5
:1007900020EA020000EBD3705EEA430E08BF20EAB5
:1007A000D37070BD94F0000F0FD101F000464000EF
:1007B00041EB010111F4801F08BF013CF7D041EA71
:1007C000060195F0000F18BF704703F00046520075
:1007D00043EB030313F4801F08BF013DF7D043EA46
:1007E0000603704794EA0C0F0CEA135518BF95EAFC
:1007F0000C0F0CD050EA410618BF52EA4306D1D183
:1008000081EA030101F000414FF0000070BD50EAA1
:10081000410606BF1046194652EA430619D094EA2B
:100820000C0F02D150EA013613D195EA0C0F05D115
:1008300052EA03361CBF104619460AD181EA030169
:1008400001F0004141F0FE4141F470014FF0000021
:1008500070BD41F0FE4141F4780170BD70B54FF0BC
:10086000FF0C4CF4E06C1CEA11541DBF1CEA13553C
:1008700094EA0C0F95EA0C0F00F0A7F8A4EB05041E
:1008800081EA030E52EA03354FEA013100F0888015
:100890004FEA03334FF0805545EA131343EA1263DE
:1008A0004FEA022245EA111545EA10654FEA002693
:1008B0000EF000419D4208BF964244F1FD0404F54C
:1008C000407402D25B084FEA3202B61A65EB0305A8
:1008D0005B084FEA32024FF480104FF4002CB6EB65
:1008E000020E75EB030E22BFB61A754640EA0C00E5
:1008F0005B084FEA3202B6EB020E75EB030E22BF25
:10090000B61A754640EA5C005B084FEA3202B6EB65
:10091000020E75EB030E22BFB61A754640EA9C0024
:100920005B084FEA3202B6EB020E75EB030E22BFF4
:10093000B61A754640EADC0055EA060E18D04FEAB2
:10094000051545EA16754FEA06164FEAC30343EA52
:1009500052734FEAC2025FEA1C1CC0D111F4801F1F
:100960000BD141EA00014FF000004FF0004CB6E718
:1009700011F4801F04BF01430020B4F1FD0C88BFB7
:10098000BCF5E06F3FF6AFAEB5EB030C04BFB6EBC2
:10099000020C5FEA500C50F1000041EB045170BDB5
:1009A0000EF0004E4EEA113114EB5C04C2BFD4EBE2
:1009B0000C0541EA045170BD41F480114FF0000E66
:1009C000013C90E645EA060E8DE60CEA135594EAE2
:1009D0000C0F08BF95EA0C0F3FF43BAF94EA0C0FE5
:1009E0000AD150EA01347FF434AF95EA0C0F7FF45A
:1009F00025AF104619462CE795EA0C0F06D152EAAE
:100A000003353FF4FDAE1046194622E750EA410691
:100A100018BF52EA43067FF4C5AE50EA41047FF4A2
:100A20000DAF52EA43057FF4EBAE12E74FEA410205
:100A3000B2F1E04324BFB3F5001CDCF1FE5C0DD93C
:100A400001F0004C4FEAC0024CEA5070B2F1004F86
:100A500040EB830008BF20F00100704711F0804F89
:100A600021D113F13872BCBF01F00040704741F44E
:100A700080114FEA5252C2F11802C2F1200C10FA52
:100A80000CF320FA02F018BF40F001004FEAC12336
:100A90004FEAD32303FA0CFC40EA0C0023FA02F3DA
:100AA0004FEA4303CCE77FEA625307D150EA0133B0
:100AB0001EBF4FF0FE4040F44000704701F0004080
:100AC00040F0FE4040F40000704700BF53B94AB9FF
:100AD000002908BF00281CBF4FF0FF314FF0FF3046
:100AE00000F070B9ADF1080C6DE904CE00F006F825
:100AF000DDF804E0DDE9022304B070472DE9F0479A
:100B0000089E0D4604460F46002B4AD18A42944661
:100B100065D9B2FA82F343B102FA03FCC3F12002B1
:100B20009F4020FA02F217439C404FEA1C4E1FFAE6
:100B30008CF5B7FBFEF1220C0EFB117742EA07425F
:100B400001FB05F090420AD91CEB020201F1FF37CC
:100B500080F01C81904240F2198102396244121ADD
:100B6000A4B2B2FBFEF00EFB102244EA024400FBEA
:100B700005F5A5420AD91CEB040400F1FF3280F010
:100B80000781A54240F204816444023840EA0140F2
:100B9000641B00211EB1DC400023C6E90043BDE810
:100BA000F0878B4208D9002E00F0ED800021C6E9C5
:100BB00000050846BDE8F087B3FA83F1002949D162
:100BC000AB4202D3824200F2F880841A65EB030242
:100BD00001201746002EE2D0C6E90047DFE702B940
:100BE000FFDEB2FA82F3002B40F090808A1A4FEABF
:100BF0001C471FFA8CFE0121B2FBF7F507FB1520FD
:100C0000220C42EA00420EFB05F0904208D91CEB90
:100C1000020205F1FF3802D2904200F2CB80454635
:100C2000121AA4B2B2FBF7F007FB102244EA024406
:100C30000EFB00FEA64508D91CEB040400F1FF32B0
:100C400002D2A64500F2BB801046A4EB0E0440EA97
:100C500005409FE7C1F120078B4022FA07FC4CEAD0
:100C6000030C05FA01F420FA07F3FD404FEA1C4992
:100C70002343B5FBF9F81FFA8CFE09FB18551C0C31
:100C800044EA054408FB0EF5A54202FA01F200FA17
:100C900001F00BD91CEB040408F1FF3A80F08880C6
:100CA000A54240F28580A8F102086444641B9DB20D
:100CB000B4FBF9F309FB134445EA044403FB0EFEBD
:100CC000A64508D91CEB040403F1FF356CD2A645F8
:100CD0006AD9023B644443EA0843A3FB0295A4EBB0
:100CE0000E04AC42C846AE4656D353D056B1B0EB14
:100CF000080264EB0E0404FA07F7CA40CC4017431D
:100D0000C6E9007418460021BDE8F087C3F1200150
:100D100002FA03FC20FA01F225FA01F19D402A4370
:100D20004FEA1C471FFA8CFEB1FBF7F007FB1015CA
:100D3000110C41EA054100FB0EF58D4204FA03F463
:100D400008D91CEB010100F1FF382FD28D422DD9BB
:100D500002386144491B92B2B1FBF7F507FB15114C
:100D600042EA014205FB0EF1914208D91CEB020256
:100D700005F1FF3816D2914214D9023D6244521A4D
:100D800045EA004138E73146304608E73946E6E6AD
:100D90001046FBE64845A9D2B9EB020865EB0C0EFC
:100DA000013BA3E74546EAE72B4694E74046D1E7F7
:100DB000D0467BE7023D624432E708460AE76444D6
:100DC000023842E7704700BF80B500AF00F078FB03
:100DD00000F070F800F07EF900F0D8F800F050F95B
:100DE00000F028F92C4800F045FC20212B4801F0A8
:100DF00024FCC82000F0D6FB4021284801F01DFC4F
:100E0000254800F037FC42F21071234800F0E6FC60
:100E1000214800F07EFE0346214A1360204B1B68E8
:100E20001846FFF777FB1AA3D3E90023FFF7ECFB83
:100E300002460B46104619464FF00002194BFFF7C9
:100E40000DFD02460B4610461946FFF7EFFD03461F
:100E5000154A1360144B1B681846FFF77DFB0246CA
:100E60000B461249124803F057FA1148FFF7B8F938
:100E700003469AB242F210730D49074802F085FA10
:100E800041F2883000F08EFBAFE700BFAFF3008087
:100E90006666666666660A407800002000000240CA
:100EA000240100200000B04028010020784C0008F8
:100EB0002C01002080B594B000AF07F12003302250
:100EC0000021184603F048FA07F10C0300221A60CB
:100ED0005A609A60DA601A610023BB60294B1B6C70
:100EE000284A43F080531364264B1B6C03F0805355
:100EF000BB60BB6800237B60234B1B6823F440432B
:100F0000214A43F4004313601F4B1B6803F4404322
:100F10007B607B680A233B620123FB6210233B63F7
:100F200001237B630223BB630023FB6308233B6431
:100F300048237B640223BB640423FB6407F1200382
:100F4000184601F095FB0346002B01D000F012F982
:100F50000F23FB6002233B6100237B614FF480532E
:100F6000BB610023FB6107F10C030221184601F06D
:100F7000F7FD0346002B01D000F0FCF800BF50370E
:100F8000BD4680BD003802400070004080B584B08E
:100F900000AF3B4600221A605A609A60DA60224B2A
:100FA000224A1A60204B4FF480325A601E4B4FF099
:100FB00000729A601C4B00221A611B4B01221A76A8
:100FC000194B002283F82020174B0022DA62164BBF
:100FD000174A9A62144B0022DA60134B0122DA613D
:100FE000114B002283F830200F4B01225A610E482A
:100FF00000F0FCFA0346002B01D000F0BBF8002300
:101000003B6001237B600023BB603B4619460648DA
:1010100000F0AAFD0346002B01D000F0ABF800BFA2
:101020001037BD4680BD00BF780000200020014081
:101030000100000F80B500AF0F4B104A1A600E4B35
:1010400000225A600C4B7F229A600B4BFF22DA6021
:10105000094B00221A61084B00225A61064B0022FC
:101060009A61054802F04AF80346002B01D000F0CF
:1010700081F800BF80BD00BFC000002000280040F4
:1010800080B500AF114B124A1A60104B4FF4165244
:101090005A600E4B00229A600C4B0022DA600B4B18
:1010A00000221A61094B0C225A61084B00229A61F6
:1010B000064B0022DA61054802F01AF90346002BBC
:1010C00001D000F057F800BF80BD00BFE000002055
:1010D0000010014080B588B000AF07F10C0300227A
:1010E0001A605A609A60DA601A610023BB601F4B75
:1010F0001B6B1E4A43F0040313631C4B1B6B03F072
:101100000403BB60BB6800237B60184B1B6B174A52
:1011100043F080031363154B1B6B03F080037B606C
:101120007B6800233B60114B1B6B104A43F00103AB
:1011300013630E4B1B6B03F001033B603B68002203
:1011400060210B4801F060FA6023FB6001233B61E2
:1011500000237B610023BB6107F10C03194604489F
:1011600001F0CEF800BF2037BD4680BD00380240F8
:101170000000024080B400AF72B600BFFEE700007E
:1011800080B483B000AF00237B60104B5B6C0F4AD0
:1011900043F4804353640D4B5B6C03F480437B60EA
:1011A0007B6800233B60094B1B6C084A43F080536B
:1011B0001364064B1B6C03F080533B603B6800BF1D
:1011C0000C37BD465DF8047B704700BF0038024015
:1011D00080B58AB000AF786007F1140300221A606E
:1011E0005A609A60DA601A617B681B681B4A9342F6
:1011F0002FD100233B611A4B5B6C194A43F4807377
:101200005364174B5B6C03F480733B613B690023B1
:10121000FB60134B1B6B124A43F001031363104B2B
:101220001B6B03F00103FB60FB6801237B6103235D
:10123000BB610023FB6107F114031946094801F063
:101240005FF800220021122000F091FF122000F030
:10125000AAFF00BF2837BD4680BD00BF0020014067
:10126000003802400000024080B588B000AF7860CE
:1012700007F10C0300221A605A609A60DA601A6162
:101280007B681B680C4A934211D10223FB604FF428
:101290000073BB6107F10C03184601F041FE0346E1
:1012A000002B01D0FFF766FF044B01221A6000BF3C
:1012B0002037BD4680BD00BF002800403C0E47429D
:1012C00080B58AB000AF786007F1140300221A607D
:1012D0005A609A60DA601A617B681B681D4A934203
:1012E00034D100233B611C4B5B6C1B4A43F0100361
:1012F0005364194B5B6C03F010033B613B690023A3
:10130000FB60154B1B6B144A43F001031363124B34
:101310001B6B03F00103FB60FB684FF4C0637B6150
:101320000223BB610023FB6103233B6207237B6233
:1013300007F114031946094800F0E2FF00220021DA
:10134000252000F014FF252000F02DFF00BF2837D6
:10135000BD4680BD00100140003802400000024040
:1013600080B400AFFEE780B400AFFEE780B400AF0A
:10137000FEE780B400AFFEE780B400AFFEE780B4C4
:1013800000AF00BFBD465DF8047B704780B400AF7E
:1013900000BFBD465DF8047B704780B400AF00BF5E
:1013A000BD465DF8047B704780B500AF00F0DAF809
:1013B00000BF80BD80B500AF024800F09AFA00BFC0
:1013C00080BD00BF7800002080B500AF024802F069
:1013D0006FF800BF80BD00BFE000002080B586B080
:1013E00000AF7860144A154BD31A7B617B693B616F
:1013F000134B1B68002B02D1114B124A1A60104B81
:101400001A687B6813443A699A4207D202F0ACFF2B
:1014100003460C221A604FF0FF3309E0084B1B68AB
:10142000FB60074B1A687B681344054A1360FB682E
:1014300018461837BD4680BD00800120000400001A
:1014400054010020A802002080B400AF064BD3F85E
:101450008830054A43F47003C2F8883000BFBD46A7
:101460005DF8047B704700BF00ED00E0DFF834D08A
:101470000D480E490E4A002302E0D458C4500433EC
:10148000C4188C42F9D30B4A0B4C002301E01360C3
:101490000432A242FBD3FFF7D7FF02F06BFFFFF746
:1014A00093FC704700800120000000205C000020B9
:1014B000E84C00085C000020A4020020FEE70000C9
:1014C00080B500AF0E4B1B680D4A43F400731360E8
:1014D0000B4B1B680A4A43F480631360084B1B687C
:1014E000074A43F480731360032000F035FE0F2099
:1014F00000F008F8FFF744FE0023184680BD00BF47
:10150000003C024080B582B000AF7860124B1A6890
:10151000124B1B7819464FF47A73B3FBF1F3B2FB0D
:10152000F3F3184600F04DFE0346002B01D00123D3
:101530000EE07B680F2B0AD8002279684FF0FF304D
:1015400000F015FE064A7B681360002300E00123CB
:1015500018460837BD4680BD000000200800002066
:101560000400002080B400AF064B1B781A46064BDF
:101570001B681344044A136000BFBD465DF8047B3A
:10158000704700BF080000205801002080B400AF61
:10159000034B1B681846BD465DF8047B704700BFCF
:1015A0005801002080B584B000AF7860FFF7EEFFEF
:1015B000B8607B68FB60FB68B3F1FF3F05D00A4B66
:1015C0001B781A46FB681344FB6000BFFFF7DEFF81
:1015D0000246BB68D31AFA689A42F7D800BF00BF28
:1015E0001037BD4680BD00BF0800002080B584B024
:1015F00000AF78600023FB737B68002B01D10123CF
:1016000033E07B681B6C002B09D17868FFF7E0FDA5
:101610007B6800225A647B68002283F83C207B6848
:101620001B6C03F01003002B18D17B681B6C23F498
:10163000885323F0020343F002027B681A6478683F
:1016400000F0B4FB7B6800225A647B681B6C23F0BB
:10165000030343F001027B681A6401E00123FB737A
:101660007B68002283F83C20FB7B18461037BD4680
:1016700080BD000080B485B000AF78600023BB60FF
:101680007B6893F83C30012B01D1022397E07B6803
:10169000012283F83C207B681B689B6803F00103F0
:1016A000012B18D07B681B689A687B681B6842F026
:1016B00001029A60454B1B68454AA2FB03239A0C22
:1016C00013465B001344BB6002E0BB68013BBB6098
:1016D000BB68002BF9D17B681B689B6803F0010392
:1016E000012B5FD17B681B6C23F4E06323F00103C3
:1016F00043F480727B681A647B681B685B6803F440
:101700008063002B07D07B681B6C23F4405343F4A9
:1017100080527B681A647B681B6C03F48053B3F5BA
:10172000805F06D17B685B6C23F006027B685A649D
:1017300002E07B6800225A647B68002283F83C2028
:10174000244BFB607B681B686FF022021A60FB6809
:101750005B6803F01F03002B0FD17B681B689B683D
:1017600003F04053002B29D17B681B689A687B6883
:101770001B6842F080429A6020E07B681B68164A32
:1017800093421BD17B681B689B6803F04053002B7E
:1017900014D17B681B689A687B681B6842F08042A2
:1017A0009A600BE07B681B6C43F010027B681A6444
:1017B0007B685B6C43F001027B685A640023184627
:1017C0001437BD465DF8047B704700BF0000002061
:1017D00083DE1B43002301400020014080B584B01C
:1017E00000AF786039600023FB607B681B689B68F2
:1017F00003F48063B3F5806F13D17B681B689B682B
:1018000003F48073B3F5807F0BD17B681B6C43F0CE
:1018100020027B681A647B68002283F83C20012345
:1018200063E0FFF7B3FEF86021E03B68B3F1FF3FF0
:101830001DD03B68002B07D0FFF7A8FE0246FB68CF
:10184000D31A3A689A4212D27B681B681B6803F06D
:101850000203022B0BD07B681B6C43F004027B68F5
:101860001A647B68002283F83C2003233DE07B68F8
:101870001B681B6803F00203022BD6D17B681B6830
:101880006FF012021A607B681B6C43F400727B6875
:101890001A647B681B689B6803F04053002B23D1BC
:1018A0007B681B7E002B1FD17B681B68DB6A03F4FF
:1018B0007003002B06D07B681B689B6803F4806371
:1018C000002B11D17B681B6C23F480727B681A6437
:1018D0007B681B6C03F48053002B05D17B681B6C69
:1018E00043F001027B681A64002318461037BD4696
:1018F00080BD80B586B000AF786000237B61002397
:101900003B617B681B681B68FB607B681B685B68CE
:10191000BB60FB6803F002037B61BB6803F020033C
:101920003B617B69002B49D03B69002B46D07B682B
:101930001B6C03F01003002B05D17B681B6C43F478
:1019400000727B681A647B681B689B6803F04053D5
:10195000002B2BD17B681B7E002B27D17B681B685B
:10196000DB6A03F47003002B06D07B681B689B685E
:1019700003F48063002B19D17B681B685A687B686D
:101980001B6822F020025A607B681B6C23F4807273
:101990007B681A647B681B6C03F48053002B05D1B1
:1019A0007B681B6C43F001027B681A64786800F066
:1019B000BDF87B681B686FF012021A60FB6803F0C9
:1019C00004037B61BB6803F080033B617B69002BF0
:1019D00057D03B69002B54D07B681B6C03F010037D
:1019E000002B05D17B681B6C43F400527B681A64A2
:1019F0007B681B689B6803F44013002B39D17B681C
:101A00001B689B6B03F44013002B06D07B681B689C
:101A10009B6803F48063002B2BD17B681B685B6899
:101A200003F48063002B24D17B681B689B6803F060
:101A30004053002B1DD17B681B7E002B19D17B6886
:101A40001B685A687B681B6822F080025A607B68BA
:101A50001B6C23F480527B681A647B681B6C03F454
:101A60008073002B05D17B681B6C43F001027B68FF
:101A70001A64786800F096FA7B681B686FF00C02B5
:101A80001A60FB6803F001037B61BB6803F040034D
:101A90003B617B69002B17D03B69002B14D07B681E
:101AA0001B681B6803F00103012B0DD17B681B6CC5
:101AB00043F480327B681A64786800F041F87B68F0
:101AC0001B686FF001021A60FB6803F020037B6162
:101AD000BB6803F080633B617B69002B15D03B69D9
:101AE000002B12D07B685B6C43F002027B685A6467
:101AF0007B681B686FF020021A60786800F02AF893
:101B00007B681B686FF020021A6000BF1837BD4663
:101B100080BD80B483B000AF78607B681B68DB6CED
:101B200018460C37BD465DF8047B704780B483B01F
:101B300000AF786000BF0C37BD465DF8047B70478E
:101B400080B483B000AF786000BF0C37BD465DF84D
:101B5000047B704780B483B000AF786000BF0C375F
:101B6000BD465DF8047B704780B485B000AF7860F7
:101B700039600023BB607B6893F83C30012B01D1B6
:101B8000022305E17B68012283F83C203B681B6847
:101B9000092B25D97B681B68D9683B681B689BB2F9
:101BA0001A4613465B0013441E3B072202FA03F356
:101BB000DA437B681B680A40DA607B681B68D96877
:101BC0003B689A683B681B689BB2184603465B00FB
:101BD00003441E3B9A407B681B680A43DA6022E09C
:101BE0007B681B6819693B681B689BB21A461346E1
:101BF0005B001344072202FA03F3DA437B681B6895
:101C00000A401A617B681B6819693B689A683B68DF
:101C10001B689BB2184603465B0003449A407B68EE
:101C20001B680A431A613B685B68062B24D87B68F3
:101C30001B68596B3B685A6813469B001344053B6D
:101C40001F2202FA03F3DA437B681B680A405A63D7
:101C50007B681B68596B3B681B689BB218463B68E6
:101C60005A6813469B001344053B00FA03F27B6855
:101C70001B680A435A634CE03B685B680C2B24D812
:101C80007B681B68196B3B685A6813469B001344BA
:101C9000233B1F2202FA03F3DA437B681B680A40E6
:101CA0001A637B681B68196B3B681B689BB21846FC
:101CB0003B685A6813469B001344233B00FA03F227
:101CC0007B681B680A431A6323E07B681B68D96A38
:101CD0003B685A6813469B001344413B1F2202FA9B
:101CE00003F3DA437B681B680A40DA627B681B688F
:101CF000D96A3B681B689BB218463B685A68134612
:101D00009B001344413B00FA03F27B681B680A43C3
:101D1000DA62224BFB607B681B68214A934209D13F
:101D20003B681B68122B05D1FB685B6843F480029B
:101D3000FB685A607B681B68194A934223D13B6851
:101D40001B68102B03D03B681B68112B1BD1FB6851
:101D50005B6843F40002FB685A603B681B68102B09
:101D600011D1104B1B68104AA2FB03239A0C134697
:101D70009B0013445B00BB6002E0BB68013BBB609F
:101D8000BB68002BF9D17B68002283F83C2000233C
:101D900018461437BD465DF8047B704700230140A8
:101DA000002001400000002083DE1B4380B485B08A
:101DB00000AF7860794BFB60FB685B6823F44032CE
:101DC000FB685A60FB685A687B685B681A43FB686B
:101DD0005A607B681B685A687B681B6822F48072B3
:101DE0005A607B681B6859687B681B691A027B68AC
:101DF0001B680A435A607B681B685A687B681B68CB
:101E000022F040725A607B681B6859687B689A6848
:101E10007B681B680A435A607B681B689A687B680A
:101E20001B6822F400629A607B681B6899687B6873
:101E3000DA687B681B680A439A607B689B6A584A29
:101E4000934222D07B681B689A687B681B6822F0EB
:101E500070629A607B681B6899687B689A6A7B6885
:101E60001B680A439A607B681B689A687B681B68DA
:101E700022F040529A607B681B6899687B68DA6A36
:101E80007B681B680A439A600FE07B681B689A684E
:101E90007B681B6822F070629A607B681B689A6896
:101EA0007B681B6822F040529A607B681B689A68C6
:101EB0007B681B6822F002029A607B681B68996845
:101EC0007B681B7E5A007B681B680A439A607B68AC
:101ED00093F82030002B1BD07B681B685A687B6806
:101EE0001B6842F400625A607B681B685A687B6812
:101EF0001B6822F460425A607B681B6859687B68E3
:101F00005B6A013B5A037B681B680A435A6007E01F
:101F10007B681B685A687B681B6822F400625A6001
:101F20007B681B68DA6A7B681B6822F47002DA62DD
:101F30007B681B68D96A7B68DB69013B1A057B6893
:101F40001B680A43DA627B681B689A687B681B68B7
:101F500022F400729A607B681B6899687B6893F82A
:101F600030305A027B681B680A439A607B681B68A2
:101F70009A687B681B6822F480629A607B681B68A1
:101F800099687B685B699A027B681B680A439A6060
:101F900000BF1437BD465DF8047B70470023014045
:101FA0000100000F80B483B000AF786000BF0C3731
:101FB000BD465DF8047B704780B485B000AF7860A3
:101FC0007B6803F00703FB600C4BDB68BB60BA68FF
:101FD0004FF6FF031340BB60FB681A02BB68134354
:101FE00043F0BF6343F40033BB60044ABB68D36073
:101FF00000BF1437BD465DF8047B704700ED00E07C
:1020000080B400AF044BDB681B0A03F007031846DB
:10201000BD465DF8047B704700ED00E080B483B0FE
:1020200000AF0346FB7197F90730002B0BDBFB7900
:1020300003F01F02074997F907305B09012000FAF6
:1020400002F241F8232000BF0C37BD465DF8047B47
:10205000704700BF00E100E080B483B000AF0346EA
:102060003960FB7197F90730002B0ADB3B68DAB265
:102070000C4997F907301201D2B20B4483F80023C0
:102080000AE03B68DAB20849FB7903F00F03043B2E
:102090001201D2B20B441A7600BF0C37BD465DF870
:1020A000047B704700E100E000ED00E080B489B0FF
:1020B00000AFF860B9607A60FB6803F00703FB616A
:1020C000FB69C3F10703042B28BF0423BB61FB6931
:1020D0000433062B02D9FB69033B00E000237B613C
:1020E0004FF0FF32BB6902FA03F3DA43BB681A40D0
:1020F0007B699A404FF0FF317B6901FA03F3D943C2
:102100007B680B40134318462437BD465DF8047BBB
:102110007047000080B582B000AF78607B68013BFB
:10212000B3F1807F01D301230FE00A4A7B68013BB2
:1021300053600F214FF0FF30FFF78EFF054B002259
:102140009A60044B07221A60002318460837BD46E0
:1021500080BD00BF10E000E080B582B000AF7860C5
:102160007868FFF729FF00BF0837BD4680BD80B5FE
:1021700086B000AF0346B9607A60FB7300237B61D1
:10218000FFF73EFF78617A68B9687869FFF78EFFDC
:10219000024697F90F3011461846FFF75DFF00BF62
:1021A0001837BD4680BD80B582B000AF0346FB71D5
:1021B00097F907301846FFF731FF00BF0837BD46D3
:1021C00080BD80B582B000AF78607868FFF7A2FF6D
:1021D000034618460837BD4680BD80B584B000AFC1
:1021E00078607B689B6DFB60FFF7D0F9B8607B6817
:1021F00093F83530DBB2022B08D07B6880225A6519
:102200007B68002283F83420012352E07B681B683E
:102210001A687B681B6822F016021A607B681B68CC
:102220005A697B681B6822F080025A617B681B6CCC
:10223000002B03D17B689B6C002B07D07B681B684D
:102240001A687B681B6822F008021A607B681B68AA
:102250001A687B681B6822F001021A6013E0FFF71E
:1022600095F90246BB68D31A052B0CD97B6820224E
:102270005A657B68032283F835207B68002283F847
:102280003420032315E07B681B681B6803F00103FF
:10229000002BE4D17B68DB6D3F229A40FB689A609B
:1022A0007B68012283F835207B68002283F8342084
:1022B000002318461037BD4680BD80B483B000AF00
:1022C00078607B6893F83530DBB2022B04D07B68F2
:1022D00080225A6501230CE07B68052283F83520B3
:1022E0007B681B681A687B681B6822F001021A6011
:1022F000002318460C37BD465DF8047B704700008C
:1023000080B489B000AF7860396000237B6100231E
:102310003B610023BB610023FB6159E10122FB69A2
:1023200002FA03F37B613B681B687A6913403B61E7
:102330003A697B699A4240F048813B685B6803F0E8
:102340000303012B05D03B685B6803F00303022BFA
:1023500030D17B689B68BB61FB695B00032202FA9A
:1023600003F3DB43BA691340BB613B68DA68FB697E
:102370005B0002FA03F3BA691343BB617B68BA6975
:102380009A607B685B68BB610122FB6902FA03F318
:10239000DB43BA691340BB613B685B681B0903F010
:1023A0000102FB6902FA03F3BA691343BB617B685C
:1023B000BA695A603B685B6803F00303032B17D0CC
:1023C0007B68DB68BB61FB695B00032202FA03F3F5
:1023D000DB43BA691340BB613B689A68FB695B00E9
:1023E00002FA03F3BA691343BB617B68BA69DA6026
:1023F0003B685B6803F00303022B23D1FB69DA0817
:102400007B68083253F82230BB61FB6903F0070395
:102410009B000F2202FA03F3DB43BA691340BB614E
:102420003B681A69FB6903F007039B0002FA03F398
:10243000BA691343BB61FB69DA087B680832B96982
:1024400043F822107B681B68BB61FB695B000322B9
:1024500002FA03F3DB43BA691340BB613B685B6874
:1024600003F00302FB695B0002FA03F3BA6913434A
:10247000BB617B68BA691A603B685B6803F44033F0
:10248000002B00F0A2800023FB60574B5B6C564A88
:1024900043F480435364544B5B6C03F48043FB6010
:1024A000FB68524AFB699B08023352F82330BB6138
:1024B000FB6903F003039B000F2202FA03F3DB43E3
:1024C000BA691340BB617B68494A934219D07B6863
:1024D000484A934213D07B68474A93420DD07B68A9
:1024E000464A934207D07B68454A934201D1042370
:1024F00008E0072306E0032304E0022302E00123AF
:1025000000E00023FA6902F0030292009340BA69E6
:102510001343BB613549FB699B080233BA6941F833
:102520002320384B9B68BB613B69DB43BA6913408E
:10253000BB613B685B6803F48013002B03D0BA696E
:102540003B691343BB612F4ABB6993602D4BDB682A
:10255000BB613B69DB43BA691340BB613B685B68A5
:1025600003F40013002B03D0BA693B691343BB612A
:10257000244ABB69D360234B5B68BB613B69DB4387
:10258000BA691340BB613B685B6803F40033002BFE
:1025900003D0BA693B691343BB611A4ABB695360F4
:1025A000184B1B68BB613B69DB43BA691340BB61D5
:1025B0003B685B6803F48033002B03D0BA693B6946
:1025C0001343BB610F4ABB691360FB690133FB61B5
:1025D000FB690F2B7FF6A2AE00BF00BF2437BD46BC
:1025E0005DF8047B704700BF0038024000380140AE
:1025F000000002400004024000080240000C0240BB
:1026000000100240003C014080B483B000AF78600D
:102610000B467B8013467B707B78002B03D07A8837
:102620007B689A6103E07B881A047B689A6100BF2B
:102630000C37BD465DF8047B704780B485B000AFB1
:1026400078600B467B807B685B69FB607A88FB68FF
:1026500013401A04FB68D9437B880B401A437B68FC
:102660009A6100BF1437BD465DF8047B70470000D7
:1026700080B586B000AF78607B68002B01D1012364
:1026800067E27B681B6803F00103002B75D0884B61
:102690009B6803F00C03042B0CD0854B9B6803F064
:1026A0000C03082B12D1824B5B6803F48003B3F553
:1026B000800F0BD17E4B1B6803F40033002B5BD0E3
:1026C0007B685B68002B57D1012342E27B685B6823
:1026D000B3F5803F06D1764B1B68754A43F48033CF
:1026E00013601DE07B685B68B3F5A02F0CD1704BC5
:1026F0001B686F4A43F4802313606D4B1B686C4A60
:1027000043F4803313600BE0694B1B68684A23F481
:1027100080331360664B1B68654A23F48023136083
:102720007B685B68002B13D0FEF730FF386108E050
:10273000FEF72CFF02463B69D31A642B01D9032311
:1027400007E25B4B1B6803F40033002BF0D014E06E
:10275000FEF71CFF386108E0FEF718FF02463B69F0
:10276000D31A642B01D90323F3E1514B1B6803F403
:102770000033002BF0D100E000BF7B681B6803F042
:102780000203002B63D04A4B9B6803F00C03002B21
:102790000BD0474B9B6803F00C03082B1CD1444B18
:1027A0005B6803F48003002B16D1414B1B6803F0D8
:1027B0000203002B05D07B68DB68012B01D00123CD
:1027C000C7E13B4B1B6823F0F8027B681B69DB0009
:1027D000374913430B603AE07B68DB68002B20D05D
:1027E000344B01221A60FEF7D1FE386108E0FEF793
:1027F000CDFE02463B69D31A022B01D90323A8E17F
:102800002B4B1B6803F00203002BF0D0284B1B68F6
:1028100023F0F8027B681B69DB00254913430B603A
:1028200015E0244B00221A60FEF7B0FE386108E084
:10283000FEF7ACFE02463B69D31A022B01D90323F3
:1028400087E11B4B1B6803F00203002BF0D17B6870
:102850001B6803F00803002B36D07B685B69002BF4
:1028600016D0154B01221A60FEF790FE386108E081
:10287000FEF78CFE02463B69D31A022B01D90323D3
:1028800067E10B4B5B6F03F00203002BF0D01BE002
:10289000094B00221A60FEF779FE38610EE0FEF760
:1028A00075FE02463B69D31A022B07D9032350E178
:1028B0000038024000004742800E4742884B5B6F61
:1028C00003F00203002BEAD17B681B6803F00403CA
:1028D000002B00F097800023FB75814B1B6C03F0ED
:1028E0008053002B0FD10023BB607D4B1B6C7C4AB7
:1028F00043F0805313647A4B1B6C03F08053BB602E
:10290000BB680123FB75774B1B6803F48073002BB6
:1029100018D1744B1B68734A43F480731360FEF73D
:1029200035FE386108E0FEF731FE02463B69D31AF6
:10293000022B01D903230CE16A4B1B6803F480735B
:10294000002BF0D07B689B68012B06D1644B1B6F7A
:10295000634A43F0010313671CE07B689B68052B07
:102960000CD15F4B1B6F5E4A43F0040313675C4B53
:102970001B6F5B4A43F0010313670BE0584B1B6F5F
:10298000574A23F001031367554B1B6F544A23F03A
:10299000040313677B689B68002B15D0FEF7F6FDD8
:1029A00038610AE0FEF7F2FD02463B69D31A41F2B4
:1029B0008832934201D90323CBE0494B1B6F03F0CC
:1029C0000203002BEED014E0FEF7E0FD38610AE0D0
:1029D000FEF7DCFD02463B69D31A41F2883293428E
:1029E00001D90323B5E03E4B1B6F03F00203002B1C
:1029F000EED1FB7D012B05D1394B1B6C384A23F0FE
:102A0000805313647B689B69002B00F0A180344BDA
:102A10009B6803F00C03082B5CD07B689B69022B3E
:102A200041D1314B00221A60FEF7B0FD386108E059
:102A3000FEF7ACFD02463B69D31A022B01D90323F2
:102A400087E0274B1B6803F00073002BF0D17B68F5
:102A5000DA697B681B6A1A437B685B6A9B011A43CD
:102A60007B689B6A5B08013B1B041A437B68DB6A3B
:102A70001B061B4913434B601B4B01221A60FEF7D8
:102A800085FD386108E0FEF781FD02463B69D31AF7
:102A9000022B01D903235CE0114B1B6803F0007388
:102AA000002BF0D054E0104B00221A60FEF76EFDB0
:102AB000386108E0FEF76AFD02463B69D31A022B33
:102AC00001D9032345E0064B1B6803F00073002B7C
:102AD000F0D13DE07B689B69012B07D1012338E0F1
:102AE0000038024000700040600047421B4B5B68AA
:102AF000FB607B689B69012B28D0FB6803F4800294
:102B00007B68DB699A4221D1FB6803F03F027B6856
:102B10001B6A9A421AD1FA6847F6C07313407A6862
:102B2000526A9201934211D1FB6803F440327B68F0
:102B30009B6A5B08013B1B049A4207D1FB6803F0C8
:102B400070627B68DB6A1B069A4201D0012300E0B9
:102B5000002318461837BD4680BD00BF003802402C
:102B600080B584B000AF786039607B68002B01D1FC
:102B70000123CCE0684B1B6803F007033A689A42D4
:102B80000CD9654B3A68D2B21A70634B1B6803F0DC
:102B900007033A689A4201D00123B8E07B681B68BA
:102BA00003F00203002B20D07B681B6803F00403B2
:102BB000002B05D0594B9B68584A43F4E05393606F
:102BC0007B681B6803F00803002B05D0534B9B6800
:102BD000524A43F460439360504B9B6823F0F002E9
:102BE0007B689B684D4913438B607B681B6803F0CF
:102BF0000103002B44D07B685B68012B07D1474B56
:102C00001B6803F40033002B19D101237FE07B689C
:102C10005B68022B03D07B685B68032B07D13F4BBB
:102C20001B6803F00073002B09D101236FE03B4BBD
:102C30001B6803F00203002B01D1012367E0374B2F
:102C40009B6823F003027B685B68344913438B6005
:102C5000FEF79CFCF8600AE0FEF798FC0246FB6871
:102C6000D31A41F28832934201D903234FE02B4B10
:102C70009B6803F00C027B685B689B009A42EBD177
:102C8000254B1B6803F007033A689A420CD2224B8B
:102C90003A68D2B21A70204B1B6803F007033A68F7
:102CA0009A4201D0012332E07B681B6803F00403E1
:102CB000002B08D0194B9B6823F4E0527B68DB683B
:102CC000164913438B607B681B6803F00803002BD5
:102CD00009D0124B9B6823F460427B681B69DB00C0
:102CE0000E4913438B6000F021F802460B4B9B68A2
:102CF0001B0903F00F030A49CB5C22FA03F3094ACC
:102D00001360094B1B681846FEF7FCFB00231846AE
:102D10001037BD4680BD00BF003C02400038024075
:102D20008C4C000800000020040000202DE9B04F6A
:102D300090B000AF00237B630023FB6300233B6361
:102D40000023BB63594B9B6803F00C03082B0DD089
:102D5000082B00F2A180002B02D0042B03D09BE0B3
:102D6000534BBB639BE0534BBB6398E04F4B5B689B
:102D700003F03F037B634D4B5B6803F48003002B40
:102D800028D04A4B5B689B0900223B627A623B6A0F
:102D9000C3F308000021474B03FB01F2002300FBB3
:102DA00003F31344434AA0FB0212FA620A46BA62D2
:102DB000FA6A1344FB627B6B0022BB61FA61D7E9BC
:102DC0000623D7E90A01FDF781FE02460B461346AA
:102DD000FB6353E0354B5B689B0900223B617A61E2
:102DE0003B69C3F3080A4FF0000B52465B464FF0B5
:102DF00000004FF00001590141EAD2615001024642
:102E00000B46B2EB0A0863EB0B094FF000024FF0E0
:102E100000034FEA891343EA98634FEA8812B2EB42
:102E2000080463EB09054FF000024FF00003EB00CC
:102E300043EA5473E20014461D4614EB0A033B6058
:102E400045EB0B037B604FF000024FF00003D7E926
:102E5000004529468B02214643EA915321468A02C6
:102E6000104619467B6B0022BB60FA60D7E902234B
:102E7000FDF72CFE02460B461346FB630B4B5B68CB
:102E80001B0C03F0030301335B003B63FA6B3B6BEA
:102E9000B2FBF3F3BB6302E0054BBB6300BFBB6B4C
:102EA00018464037BD46BDE8B08F00BF003802402D
:102EB0000024F40040787D0180B400AF034B1B6810
:102EC0001846BD465DF8047B704700BF0000002037
:102ED00080B500AFFFF7F0FF0246054B9B689B0AE9
:102EE00003F007030349CB5C22FA03F3184680BDC5
:102EF000003802409C4C000880B500AFFFF7DCFFB3
:102F00000246054B9B685B0B03F007030349CB5C50
:102F100022FA03F3184680BD003802409C4C00089A
:102F200080B586B000AF786000237B6100233B61F1
:102F30007B681B6803F00103002B05D17B681B68CD
:102F400003F00403002B35D0674B00221A60FEF714
:102F50001DFB786108E0FEF719FB02467B69D31A76
:102F6000022B01D90323BAE0604B1B6803F0006316
:102F7000002BF0D17B685B689A017B689B681B071C
:102F80005A491343C1F88430574B01221A60FEF7A7
:102F9000FDFA786108E0FEF7F9FA02467B69D31A78
:102FA000022B01D903239AE0504B1B6803F0006306
:102FB000002BF0D07B681B6803F00203002B00F0AD
:102FC00083800023FB60494B1B6C484A43F08053CD
:102FD0001364464B1B6C03F08053FB60FB68444B4F
:102FE0001B68434A43F480731360FEF7CFFA78619D
:102FF00008E0FEF7CBFA02467B69D31A022B01D90F
:1030000003236CE03A4B1B6803F48073002BF0D071
:10301000364B1B6F03F440733B613B69002B2FD091
:103020007B68DB6803F440733A699A4228D02F4BDF
:103030001B6F23F440733B612E4B01221A602D4B12
:1030400000221A60294A3B691367284B1B6F03F063
:103050000103012B14D1FEF799FA78610AE0FEF71B
:1030600095FA02467B69D31A41F28832934201D91C
:10307000032334E01D4B1B6F03F00203002BEED043
:103080007B68DB6803F44073B3F5407F0DD1174BC9
:103090009B6823F4F8127B68DB6823F0704323F409
:1030A0004073124913438B6005E0104B9B680F4A35
:1030B00023F4F81393600D4B1A6F7B68DB68C3F33E
:1030C0000B030A4913430B677B681B6803F0080373
:1030D000002B03D07B681A7C074B1A60002318462C
:1030E0001837BD4680BD00BF680047420038024027
:1030F00000700040400E4742E011474280B584B066
:1031000000AF78600123FB737B68002B01D10123A2
:1031100066E07B685B7FDBB2002B05D17B68002219
:103120001A777868FEF7A0F87B6802225A777B68E6
:103130001B68CA225A627B681B6853225A627868ED
:1031400000F07AF80346FB73FB7B002B2CD17B68E5
:103150001B689B687A68126823F4E00323F040033D
:1031600093607B681B6899687B685A687B681B69F9
:103170001A437B685B691A437B681B680A439A6041
:103180007B681B687A68D2681A617B681B6819695A
:103190007B689B681A047B681B680A431A6178681D
:1031A00000F081F80346FB73FB7B002B13D17B6897
:1031B0001B681A6C7B681B6822F480221A647B6887
:1031C0001B68196C7B689A697B681B680A431A64E0
:1031D0007B6801225A777B681B68FF225A62FB7B5F
:1031E00018461037BD4680BD80B584B000AF78600A
:1031F0000023FB607B681B68DA687B681B6822F031
:10320000A002DA60FEF7C2F9F86009E0FEF7BEF945
:103210000246FB68D31AB3F57A7F01D9032307E08E
:103220007B681B68DB6803F02003002BEED00023D3
:1032300018461037BD4680BD80B584B000AF7860B9
:103240000023BB600023FB737B681B68DB6803F013
:103250004003002B22D17B681B68DA687B681B68FF
:1032600042F08002DA60FEF791F9B8600CE0FEF7F8
:103270008DF90246BB68D31AB3F57A7F04D97B680F
:1032800004225A770123FB737B681B68DB6803F019
:103290004003002B02D1FB7B012BE8D1FB7B1846BE
:1032A0001037BD4680BD80B584B000AF7860002384
:1032B000FB737B681B68DA687B681B6822F08002FE
:1032C000DA607B681B689B6803F02003002B0AD13F
:1032D0007868FFF789FF0346002B04D07B6804223F
:1032E0005A770123FB73FB7B18461037BD4680BD20
:1032F00080B582B000AF78607B68002B01D10123DC
:103300003FE07B6893F83D30DBB2002B06D17B6851
:10331000002283F83C207868FDF7D2FF7B682422E6
:1033200083F83D207B681B68DA687B681B6822F4A1
:103330000052DA60786800F07BFD7B681B681A69D0
:103340007B681B6822F490421A617B681B685A698B
:103350007B681B6822F02A025A617B681B68DA6866
:103360007B681B6842F40052DA607B6800221A64B2
:103370007B68202283F83D207B68202283F83E2052
:10338000002318460837BD4680BD80B58AB002AF1D
:10339000F860B9603B601346FB8000237B61FB68EB
:1033A00093F83D30DBB2202B7CD1BB68002B02D0E0
:1033B000FB88002B01D1012375E0FB6893F83C30BA
:1033C000012B01D102236EE0FB68012283F83C202F
:1033D000FB6800221A64FB68212283F83D20FEF777
:1033E000D5F87861FB68FA889A84FB68FA88DA84F1
:1033F000FB689B68B3F5805F08D1FB681B69002BF5
:1034000004D10023FB61BB68BB6103E0BB68FB61C7
:103410000023BB61FB68002283F83C202AE03B6864
:1034200000937B6900228021F86800F0F9FA0346D6
:10343000002B01D0032336E0FB69002B0BD1BB69C5
:103440001B881A46FB681B68C2F308025A60BB69F6
:103450000233BB6107E0FB691A78FB681B685A609E
:10346000FB690133FB61FB68DB8C9BB2013B9AB2C9
:10347000FB68DA84FB68DB8C9BB2002BCFD13B6806
:1034800000937B6900224021F86800F0C9FA0346E6
:10349000002B01D0032306E0FB68202283F83D20A7
:1034A000002300E0022318462037BD4680BD0000FF
:1034B00080B5BAB000AF78607B681B681B68C7F83E
:1034C000E4307B681B68DB68C7F8E0307B681B680A
:1034D0005B69C7F8DC300023C7F8D8300023C7F891
:1034E000D430D7F8E43003F00F03C7F8D830D7F85A
:1034F000D830002B0FD1D7F8E43003F02003002B95
:1035000009D0D7F8E03003F02003002B03D078680F
:1035100000F0D3FB56E2D7F8D830002B00F0DE8065
:10352000D7F8DC3003F00103002B06D1D7F8E030E8
:1035300003F49073002B00F0D180D7F8E43003F04F
:103540000103002B0BD0D7F8E03003F48073002B7D
:1035500005D07B681B6C43F001027B681A64D7F8C6
:10356000E43003F00403002B0BD0D7F8DC3003F079
:103570000103002B05D07B681B6C43F002027B68C3
:103580001A64D7F8E43003F00203002B0BD0D7F80D
:10359000DC3003F00103002B05D07B681B6C43F08B
:1035A00004027B681A64D7F8E43003F00803002BA8
:1035B00011D0D7F8E03003F02003002B05D1D7F865
:1035C000DC3003F00103002B05D07B681B6C43F05B
:1035D00008027B681A647B681B6C002B00F0ED818D
:1035E000D7F8E43003F02003002B08D0D7F8E03000
:1035F00003F02003002B02D0786800F05EFB7B68AC
:103600001B685B6903F04003402B0CBF01230023C0
:10361000DBB2C7F8D4307B681B6C03F00803002BC7
:1036200003D1D7F8D430002B4FD0786800F066FA79
:103630007B681B685B6903F04003402B41D17B68CA
:103640001B681433C7F89C30D7F89C3053E8003F10
:10365000C7F89830D7F8983023F04003C7F8D03037
:103660007B681B681433D7F8D020C7F8A820C7F8A8
:10367000A430D7F8A410D7F8A82041E80023C7F851
:10368000A030D7F8A030002BD9D17B689B6B002BE2
:1036900013D07B689B6B7D4A1A657B689B6B1846D1
:1036A000FEF70BFE0346002B16D07B689B6B1B6D51
:1036B0007A68926B104698470EE0786800F09AF9A5
:1036C0000AE0786800F096F906E0786800F092F970
:1036D0007B6800221A6470E100BF6EE17B681B6B9F
:1036E000012B40F04A81D7F8E43003F01003002B9F
:1036F00000F04381D7F8E03003F01003002B00F016
:103700003C810023BB607B681B681B68BB607B68D7
:103710001B685B68BB60BB687B681B685B6903F008
:103720004003402B40F0B4807B689B6B1B685B6858
:10373000A7F8BE30B7F8BE30002B00F040817B68A0
:103740009B8DB7F8BE209A4280F039817B68B7F82C
:10375000BE20DA857B689B6BDB69B3F5807F00F068
:1037600088807B681B680C33C7F88830D7F88830AE
:1037700053E8003FC7F88430D7F8843023F48073CF
:10378000C7F8B8307B681B680C33D7F8B820C7F887
:103790009420C7F89030D7F89010D7F8942041E8DB
:1037A0000023C7F88C30D7F88C30002BD9D17B6838
:1037B0001B6814337B677B6F53E8003F3B673B6FAD
:1037C00023F00103C7F8B4307B681B681433D7F8C3
:1037D000B420C7F88020FB67F96FD7F8802041E854
:1037E0000023BB67BB6F002BE1D17B681B681433E0
:1037F0003B663B6E53E8003FFB65FB6D23F04003E7
:10380000C7F8B0307B681B681433D7F8B020FA666D
:10381000BB66B96EFA6E41E800237B667B6E002BB7
:10382000E3D17B68202283F83E207B6800221A6364
:103830007B681B680C33FB64FB6C53E8003FBB6484
:10384000BB6C23F01003C7F8AC307B681B680C33EB
:10385000D7F8AC20BA657B65796DBA6D41E8002375
:103860003B653B6D002BE3D17B689B6B1846FEF7F5
:10387000B4FC7B689A8D7B68DB8D9BB2D31A9BB2BC
:103880001946786800F0C0F899E000BFC33B000813
:103890007B689A8D7B68DB8D9BB2D31AA7F8CE30FC
:1038A0007B68DB8D9BB2002B00F08B80B7F8CE30AD
:1038B000002B00F086807B681B680C33BB63BB6BFE
:1038C00053E8003F7B637B6B23F49073C7F8C830E9
:1038D0007B681B680C33D7F8C8207A643B64396C6A
:1038E0007A6C41E80023FB63FB6B002BE3D17B6820
:1038F0001B6814337B627B6A53E8003F3B623B6A80
:1039000023F00103C7F8C4307B681B681433D7F871
:10391000C4203A63FB62F96A3A6B41E80023BB6258
:10392000BB6A002BE3D17B68202283F83E207B68B2
:1039300000221A637B681B680C333B613B6953E8C8
:10394000003FFB60FB6823F01003C7F8C0307B68C2
:103950001B680C33D7F8C020FA61BB61B969FA69FA
:1039600041E800237B617B69002BE3D1B7F8CE30BF
:103970001946786800F048F823E0D7F8E43003F0FF
:103980008003002B09D0D7F8E03003F08003002B30
:1039900003D0786800F029F914E0D7F8E43003F098
:1039A0004003002B0ED0D7F8E03003F04003002B8B
:1039B00008D0786800F069F904E000BF02E000BFB9
:1039C00000E000BFE837BD4680BD00BF80B483B0D3
:1039D00000AF786000BF0C37BD465DF8047B7047D0
:1039E00080B483B000AF786000BF0C37BD465DF88F
:1039F000047B704780B483B000AF786000BF0C37A1
:103A0000BD465DF8047B704780B483B000AF78603A
:103A10000B467B8000BF0C37BD465DF8047B7047CA
:103A200080B590B000AFF860B9603B601346FB71A1
:103A300050E0BB6CB3F1FF3F4CD0BB6C002B07D008
:103A4000FDF7A4FD02463B68D31ABA6C9A4241D2F4
:103A5000FB681B680C33BB62BB6A53E8003F7B62A8
:103A60007B6A23F4D073FB63FB681B680C33FA6B2F
:103A70007A633B63396B7A6B41E80023FB62FB6A34
:103A8000002BE5D1FB681B6814337B617B6953E82D
:103A9000003F3B613B6923F00103BB63FB681B688C
:103AA0001433BA6B3A62FB61F9693A6A41E8002360
:103AB000BB61BB69002BE5D1FB68202283F83D2068
:103AC000FB68202283F83E20FB68002283F83C201C
:103AD00003230FE0FB681B681A68BB681340BA68D1
:103AE0009A420CBF01230023DBB21A46FB799A42AB
:103AF0009FD0002318464037BD4680BD80B495B0A6
:103B000000AF78607B681B680C337B637B6B53E88A
:103B1000003F3B633B6B23F49073FB647B681B6843
:103B20000C33FA6C3A64FB63F96B3A6C41E800239E
:103B3000BB63BB6B002BE5D17B681B6814333B6216
:103B40003B6A53E8003FFB61FB6923F00103BB6460
:103B50007B681B681433BA6CFA62BB62B96AFA6A92
:103B600041E800237B627B6A002BE5D17B681B6BFD
:103B7000012B19D17B681B680C33FB60FB6853E891
:103B8000003FBB60BB6823F010037B647B681B684D
:103B90000C337A6CBA617B617969BA6941E80023B8
:103BA0003B613B69002BE5D17B68202283F83E20F6
:103BB0007B6800221A6300BF5437BD465DF8047B62
:103BC000704780B584B000AF78607B689B6BFB600A
:103BD000FB680022DA85FB680022DA84F868FFF7C8
:103BE00009FF00BF1037BD4680BD80B485B000AF6F
:103BF00078607B6893F83D30DBB2212B3ED17B6847
:103C00009B68B3F5805F14D17B681B69002B10D1D2
:103C10007B681B6AFB60FB681B881A467B681B6815
:103C2000C2F308025A607B681B6A9A1C7B681A629E
:103C300008E07B681B6A591C7A6811621A787B68F5
:103C40001B685A607B68DB8C9BB2013B9BB27A6835
:103C50001946D184002B0FD17B681B68DA687B681A
:103C60001B6822F08002DA607B681B68DA687B6878
:103C70001B6842F04002DA60002300E0022318468D
:103C80001437BD465DF8047B704780B582B000AF45
:103C900078607B681B68DA687B681B6822F04002EA
:103CA000DA607B68202283F83D207868FFF78EFE7B
:103CB000002318460837BD4680BD80B58CB000AFE4
:103CC00078607B6893F83E30DBB2222B40F0AB800B
:103CD0007B689B68B3F5805F17D17B681B69002BFD
:103CE00013D10023FB627B689B6ABB627B681B6805
:103CF0005B689BB2C3F308039AB2BB6A1A807B6805
:103D00009B6A9A1C7B689A6226E07B689B6AFB62CE
:103D10000023BB627B689B68B3F5805F07D07B683C
:103D20009B68002B0AD17B681B69002B06D17B683E
:103D30001B685B68DAB2FB6A1A7008E07B681B6874
:103D40005B68DBB203F07F03DAB2FB6A1A707B6850
:103D50009B6A5A1C7B689A627B68DB8D9BB2013B35
:103D60009BB27A681946D185002B5AD17B681B68B3
:103D7000DA687B681B6822F02002DA607B681B68C7
:103D8000DA687B681B6822F48072DA607B681B68E3
:103D90005A697B681B6822F001025A617B68202205
:103DA00083F83E207B681B6B012B35D17B6800229A
:103DB0001A637B681B680C337B617B6953E8003FA7
:103DC0003B613B6923F010037B627B681B680C330B
:103DD0007A6A3A62FB61F9693A6A41E80023BB6199
:103DE000BB69002BE5D17B681B681B6803F01003DF
:103DF000102B0AD10023FB607B681B681B68FB60EB
:103E00007B681B685B68FB60FB687B689B8D194661
:103E10007868FFF7F9FD02E07868FFF7E1FD00231D
:103E200002E0002300E0022318463037BD4680BD83
:103E30002DE9B04FC0B000AFC7F8F400D7F8F430A8
:103E40001B681B6923F44050D7F8F430D968D7F8C1
:103E5000F4301A6840EA01031361D7F8F4309A6825
:103E6000D7F8F4301B691A43D7F8F4305B691A436A
:103E7000D7F8F430DB691343C7F8F830D7F8F430DB
:103E80001B68DB6823F4164121F00C01D7F8F430ED
:103E90001A68D7F8F8300B43D360D7F8F4301B68B2
:103EA0005B6923F44070D7F8F4309969D7F8F4309F
:103EB0001A6840EA01035361D7F8F4301A688F4B4F
:103EC0009A4205D0D7F8F4301A688D4B9A4204D143
:103ED000FFF712F8C7F8FC0003E0FEF7F9FFC7F898
:103EE000FC00D7F8F430DB69B3F5004F40F00C81EB
:103EF000D7F8FC300022C7F8E830C7F8EC20D7E943
:103F00003A4522462B469118B9655B41FB65D7E9D6
:103F10001623214612EB0108294643EB01094FF015
:103F200000024FF000034FEAC90343EA58734FEA17
:103F3000C80290469946234618EB0303C7F8E030C1
:103F40002B4649EB0303C7F8E430D7F8F4305B683D
:103F50000022C7F8D830C7F8DC20D7E936120B4664
:103F6000DB183B65134642EB03037B65D7E914235B
:103F7000D7E93801FCF7AAFD02460B46614BA3FBCB
:103F800002235B091C01D7F8FC300022C7F8D030AF
:103F9000C7F8D420D7E9348942464B469118B96412
:103FA0005B41FB64D7E91223414612EB010A494603
:103FB00043EB010B4FF000024FF000034FEACB033D
:103FC00043EA5A734FEACA0292469B4643461AEBAB
:103FD0000303C7F8C8304B464BEB0303C7F8CC309C
:103FE000D7F8F4305B680022C7F8C030C7F8C420A7
:103FF000D7E930120B46DB183B64134642EB030350
:104000007B64D7E91023D7E93201FCF75FFD024654
:104010000B4611463B4BA3FB01235B09642202FBC9
:1040200003F3CB1ADB0003F13202364BA3FB02236E
:104030005B095B0003F4F8731C44D7F8FC300022E2
:10404000C7F8B830C7F8BC20D7E92E8942464B469E
:104050009118B9635B41FB63D7E90E2341465118C0
:10406000396349464B417B634FF000024FF0000338
:10407000D7E90CAB5946CB00514643EA5173514640
:10408000CA0010461946034642469B18C7F8B0308E
:104090004B460A4642EB0303C7F8B430D7F8F43076
:1040A0005B680022C7F8A830C7F8AC20D7E92A120D
:1040B0000B46DB18BB62134642EB0303FB62D7E9F6
:1040C0000A23D7E92C01FCF701FD02460B460D4BF4
:1040D000A3FB02135B09642101FB03F3D31ADB008A
:1040E0003233084AA2FB03235B0903F00702D7F827
:1040F000F4301B6822449A6006E100BF00100140C2
:10410000001401401F85EB51D7F8FC300022C7F89E
:10411000A030C7F8A420D7E9288942464B46911819
:1041200039625B417B62D7E908234146541849460E
:1041300043EB01054FF000024FF00003EB0043EAB0
:104140005473E20014461D464346E318C7F89830FE
:104150004B4645EB0303C7F89C30D7F8F4305B6857
:104160000022C7F89030C7F894204FF000024FF0BB
:104170000003D7E9244529468B00214643EA917381
:1041800021468A00D7E92601FCF7A0FC02460B462F
:10419000604BA3FB02235B091C01D7F8FC30002213
:1041A000C7F88830C7F88C20D7E9228942464B46A9
:1041B0009118B9615B41FB61D7E90623414651186B
:1041C000396149464B417B614FF000024FF00003DB
:1041D000D7E904AB5946CB00514643EA51735146E7
:1041E000CA0010461946034642469B18C7F880305D
:1041F0004B460A4642EB0303C7F88430D7F8F43045
:104200005B680022BB67FA674FF000024FF00003C3
:10421000D7E91E8949468B00414643EA91734146DE
:104220008A00D7E92001FCF751FC02460B461146F3
:10423000384BA3FB01235B09642202FB03F3CB1A77
:104240001B013233334AA2FB03235B0903F0F00363
:104250001C44D7F8FC3000223B677A67D7E91C89F9
:1042600042464B469118B9605B41FB60D7E9022397
:1042700041465118396049464B417B604FF000027E
:104280004FF00003D7E900AB5946CB00514643EA53
:1042900051735146CA0010461946034642469B18C0
:1042A000BB664B460A4642EB0303FB66D7F8F43085
:1042B0005B6800223B667A664FF000024FF0000315
:1042C000D7E9188949468B00414643EA9173414634
:1042D0008A00D7E91A01FCF7F9FB02460B460D4BA1
:1042E000A3FB02135B09642101FB03F3D31A1B0137
:1042F0003233084AA2FB03235B0903F00F02D7F80D
:10430000F4301B6822449A6000BF07F58077BD46F1
:10431000BDE8B08F1F85EB510EB400B59CB01DAB4E
:10432000029006906FF000410948079104910949F5
:1043300053F8042B05910068019302A900F092F94B
:10434000029B00221A701CB05DF804EB03B07047AA
:10435000580000200802FFFF02440346934200D1A8
:10436000704703F8011BF9E7014B1868704700BF5D
:104370005800002070B50D4D0D4C641BA410002694
:10438000A64209D10B4D0C4C00F06AFC641BA41032
:104390000026A64205D170BD55F8043B984701366A
:1043A000EEE755F8043B98470136F2E7E04C000889
:1043B000E04C0008E04C0008E44C000870477047EF
:1043C00037B5002944D051F8043C0190002BA1F1ED
:1043D0000404B8BFE41800F0DFF81E4A019813681F
:1043E00033B96360146003B0BDE8304000F0DAB860
:1043F000A34208D9256861198B4201BF19685B681F
:1044000049192160EDE71A465B680BB1A342FAD95E
:1044100011685518A5420BD1246821445418A342B1
:104420001160E0D11C685B6853600C441460DAE7EB
:1044300002D90C230360D6E7256861198B4204BFBB
:1044400019685B68636004BF491921605460CAE75A
:1044500003B030BD9C02002070B50E4E0C46316892
:10446000054611B900F0A6FB30602146284600F051
:10447000A1FB431C0AD0C41C24F00304A04207D0B3
:10448000211A284600F096FB013001D14FF0FF348D
:10449000204670BDA00200202DE9F843CD1C25F078
:1044A000030508350C2D38BF0C25002D074601DB10
:1044B000A94205D90C233B6000263046BDE8F883AD
:1044C000DFF8D08000F068F8D8F800301C465CBBFC
:1044D00029463846FFF7C0FF431C044655D1D8F89B
:1044E00000402646002E45D1002C48D02368314696
:1044F000384604EB030900F05DFB81453FD121689C
:104500006D1A29463846FFF7A7FF013037D02368D8
:104510002B442360D8F80030002B38D05A68A242D0
:104520002BD100225A600FE02268521B1FD40B2AA5
:1045300017D96119A342256018BF5960636808BF85
:10454000C8F8001062514B60384604F10B0600F0C9
:1045500029F826F00706231DF21AAED09B1BA350A4
:10456000ABE7A3426268DDD1C8F80020ECE7234640
:104570006468ACE734467668B4E71346CCE70C23AE
:104580003B60384600F00EF897E72560DCE75B609B
:10459000FFDE00BF9C0200200148FFF70FBF00BFF5
:1045A000980200200148FFF70ABF00BF98020020D0
:1045B0002DE9F0478E681F46BE420B6882460C46C6
:1045C00090462CD88A8912F4906F26D065690969C3
:1045D00005EB4505A3EB010905EBD5757B1C4B44A9
:1045E0006D109D4238BF1D46530527D52946FFF75C
:1045F00053FF064660B321694A4600F0EBFAA389EF
:1046000023F4906343F08003A381266165614E44E7
:10461000A5EB09052660A5603E46BE4200D93E4690
:1046200020683246414600F0ABFAA3689B1BA360AA
:104630002368334423600020BDE8F0872A4600F059
:10464000D7FA06460028E0D121695046FFF7B8FEA8
:104650000C23CAF80030A38943F04003A3814FF034
:10466000FF30E9E72DE9F04F98468B891B069DB096
:1046700007460D4614460ED50B6963B94021FFF776
:104680000BFF2860286120B90C233B604FF0FF30FE
:10469000D0E040236B610023099320238DF829305B
:1046A000CDF80C803023DFF8A4818DF82A304FF04C
:1046B000010923469A4613F8012B0AB1252AF9D19C
:1046C000BAEB040B0BD05B46224629463846FFF76F
:1046D0006FFF013000F0A980099A5A4409929AF8B4
:1046E0000030002B00F0A18000234FF0FF32CDE915
:1046F00005230AF1010A049307938DF853301A93A6
:104700005446052214F8011B5048FBF771FD049A2A
:10471000D8B9D00644BF20238DF85330110744BFC9
:104720002B238DF853309AF800302A2B15D0079A96
:10473000544600204FF00A0C214611F8013B303B53
:10474000092B4DD9B0B1079214E0A0EB080309FA88
:1047500003F313430493A246D2E7039B191D1B687E
:104760000391002BBBBF5B4242F002020793079309
:10477000B8BF049223782E2B0CD163782A2B34D126
:10478000039B1A1D1B680392002BB8BF4FF0FF3329
:1047900002340593DFF8C4A0217803225046FBF7CA
:1047A00027FD38B1049BA0EB0A004022824013434E
:1047B0000134049314F8011B25488DF828100622B3
:1047C000FBF716FD002838D0224B1BBB039B073399
:1047D00023F0070308330393099B3344099368E7E5
:1047E0000CFB02320C460120A6E70023013405939E
:1047F00019464FF00A0C204610F8012B303A092ACE
:1048000003D9002BC6D00591C4E70CFB0121044657
:104810000123F0E703AB00932A460F4B04A9384667
:10482000AFF30080421C0646D6D1AB895B063FF54C
:104830002DAF09981DB0BDE8F08F03AB00932A4659
:10484000054B04A9384600F079F8EBE7A44C0008C2
:10485000AE4C000800000000B1450008AA4C00085A
:104860002DE9F047164699468A680B69DDF82080E5
:104870009342B8BF1346336091F8432007460C4675
:104880000AB1013333602368990642BF33680233AB
:104890003360256815F0060506D104F1190AE368AE
:1048A00032689B1AAB4226DC94F84320131E226820
:1048B00018BF012392062BD404F14302494638461F
:1048C000C04701301ED02368226903F00603042B81
:1048D00002BFE5683368ED1AA3680CBF25EAE575E9
:1048E00000259342C4BF9B1AED1800261A34B54226
:1048F0001AD1002008E00123524649463846C047F5
:10490000013003D14FF0FF30BDE8F0870135C6E735
:10491000E1185A1C302081F84300224494F84510D5
:1049200082F843100233C7E701232246494638463E
:10493000C0470130E6D00136D9E700002DE9FF4736
:104940000F7E0C9D782F914680460C469A4601F1C9
:10495000430207D8622F0AD8002F00F0D480582FC6
:1049600000F0C08004F1420584F842703AE0A7F1FB
:104970006303152BF6D801A151F823F0D54900089F
:10498000E9490008654900086549000865490008CB
:1049900065490008E94900086549000865490008BB
:1049A0006549000865490008ED4A0008154A0008F5
:1049B000A74A000865490008654900080F4B000830
:1049C00065490008154A000865490008654900085E
:1049D000AF4A00082B681A1D1B682A6004F14205C3
:1049E00084F8423001239FE020682B68070603F11A
:1049F0000401296001D51E6803E04606FBD5B3F922
:104A00000060002E03DA2D23764284F843305A48A2
:104A10000A2312E02B682068191D2960050601D5BC
:104A20001E6802E04106FBD51E8853486F2F0CBF5D
:104A300008230A23002184F843106568A560002D2F
:104A4000A2BF216821F0040121600EB9002D4BD0D6
:104A50001546B6FBF3F103FB1167C75D05F8017D51
:104A60003746BB420E46F4D9082B0BD12368DE072C
:104A700008D5236961689942DEBF302305F8013CFF
:104A800005F1FF35521B2261CDF800A04B4603AA69
:104A900021464046FFF7E4FE01304AD14FF0FF3097
:104AA00004B0BDE8F087236843F020032360334857
:104AB000782784F84570236829681F0651F8046B2D
:104AC00002D45F0648BFB6B2DF0748BF43F02003F9
:104AD000296048BF23601EB9236823F020032360A8
:104AE0001023A7E72448E4E71546BDE72B682668AE
:104AF0006169181D286035061B6801D5196002E040
:104B00007006FBD51980002323611546BCE72B688E
:104B10001A1D2A601D68626800212846FBF768FBA1
:104B200008B1401B606063682361002384F8433050
:104B3000AAE723692A4649464046D0470130ADD00E
:104B400023689B0713D4E068039B9842B8BF1846BC
:104B5000A6E70123324649464046D04701309DD062
:104B60000135E36803995B1AAB42F2DCEBE7002501
:104B700004F11906F5E700BFB54C0008C64C000863
:104B8000884210B501EB020402D98442234607D8BB
:104B9000431EA14208D011F8012B03F8012FF8E7BA
:104BA000024401468A4200D110BD13F8014D02F8BB
:104BB000014DF7E738B5064D0023044608462B6043
:104BC000FCF70CFC431C02D12B6803B1236038BDF9
:104BD000940200200A44914200F1FF3300D1704753
:104BE00010B511F8014B03F8014F9142F9D110BDF6
:104BF0002DE9F041804614460E4621B9BDE8F0414A
:104C00001146FFF749BC2AB9FFF7DAFB25462846CB
:104C1000BDE8F08100F01BF88442074602D8B4EBEF
:104C2000500F12D821464046FFF736FC05460028B3
:104C3000EDD0BC422246314628BF3A46FFF7CAFFB4
:104C400031464046FFF7BCFBE1E73546DFE751F868
:104C5000043C181F002BBCBF0B58C0187047000045
:104C6000F8B500BFF8BC08BC9E467047F8B500BF59
:084C7000F8BC08BC9E46704729
:104C78004144432076616C7565203D202568750D9B
:104C88000A00000000000000000000000102030408
:104C9800060708090000000001020304232D302B39
:104CA8002000686C4C006566674546470030313225
:104CB800333435363738394142434445460030317C
:104CC80032333435363738396162636465660000DB
:084CD80024BEFF7F0100000073
:044CE000C501000802
:044CE400A101000822
:104CE8000024F40010000000010000000000000093
:104CF8005C010020C40100202C02002000000000FC
:104D0800000000000000000000000000000000009B
:104D1800000000000000000000000000000000008B
:104D2800000000000000000000000000000000007B
:0C4D380000000000000000000C00002043
:040000050800146D6E
:00000001FF
