:020000040800F2
:1000000000800120CD090008450800084B080008C1
:1000100051080008570800085D08000800000000AB
:10002000000000000000000000000000630800085D
:1000300071080008000000007F0800088D08000813
:100040001D0A00081D0A00081D0A00081D0A0008F4
:100050001D0A00081D0A00081D0A00081D0A0008E4
:100060001D0A00081D0A00081D0A00081D0A0008D4
:100070001D0A00081D0A00081D0A00081D0A0008C4
:100080001D0A00081D0A00081D0A000800000000E3
:100090000000000000000000000000001D0A000831
:1000A0001D0A00081D0A00081D0A00081D0A000894
:1000B0001D0A00081D0A00081D0A00081D0A000884
:1000C0001D0A00081D0A00081D0A00081D0A000874
:1000D0001D0A00081D0A00081D0A00080000000093
:1000E0001D0A00081D0A00081D0A00080000000083
:1000F0000000000000000000000000001D0A0008D1
:10010000000000001D0A00081D0A00081D0A000862
:1001100000000000000000000000000000000000DF
:100120001D0A00081D0A00081D0A00081D0A000813
:100130001D0A000800000000000000000000000090
:100140000000000000000000000000001D0A000880
:100150001D0A00081D0A00081D0A00081D0A0008E3
:100160001D0A00081D0A0008000000000000000031
:10017000000000000000000000000000000000007F
:10018000000000001D0A0008000000000000000040
:040190001D0A00083C
:1001940010B5054C237833B9044B13B10448AFF3BD
:1001A40000800123237010BD6800002000000000BF
:1001B4009027000808B5034B1BB103490348AFF36C
:1001C400008008BD000000006C000020902700089B
:1001D40053B94AB9002908BF00281CBF4FF0FF31AA
:1001E4004FF0FF3000F070B9ADF1080C6DE904CEAA
:1001F40000F006F8DDF804E0DDE9022304B07047FE
:100204002DE9F047089E0D4604460F46002B4AD1BF
:100214008A42944665D9B2FA82F343B102FA03FCE6
:10022400C3F120029F4020FA02F217439C404FEA98
:100234001C4E1FFA8CF5B7FBFEF1220C0EFB117756
:1002440042EA074201FB05F090420AD91CEB020284
:1002540001F1FF3780F01C81904240F2198102398C
:100264006244121AA4B2B2FBFEF00EFB102244EA5E
:10027400024400FB05F5A5420AD91CEB040400F175
:10028400FF3280F00781A54240F2048164440238C1
:1002940040EA0140641B00211EB1DC400023C6E992
:1002A4000043BDE8F0878B4208D9002E00F0ED80B2
:1002B4000021C6E900050846BDE8F087B3FA83F1DA
:1002C400002949D1AB4202D3824200F2F880841A59
:1002D40065EB030201201746002EE2D0C6E9004771
:1002E400DFE702B9FFDEB2FA82F3002B40F0908020
:1002F4008A1A4FEA1C471FFA8CFE0121B2FBF7F55C
:1003040007FB1520220C42EA00420EFB05F0904246
:1003140008D91CEB020205F1FF3802D2904200F228
:10032400CB804546121AA4B2B2FBF7F007FB1022A9
:1003340044EA02440EFB00FEA64508D91CEB040463
:1003440000F1FF3202D2A64500F2BB801046A4EBB6
:100354000E0440EA05409FE7C1F120078B4022FAD2
:1003640007FC4CEA030C05FA01F420FA07F3FD40FC
:100374004FEA1C492343B5FBF9F81FFA8CFE09FB2D
:1003840018551C0C44EA054408FB0EF5A54202FA74
:1003940001F200FA01F00BD91CEB040408F1FF3A56
:1003A40080F08880A54240F28580A8F10208644468
:1003B400641B9DB2B4FBF9F309FB134445EA0444FE
:1003C40003FB0EFEA64508D91CEB040403F1FF351C
:1003D4006CD2A6456AD9023B644443EA0843A3FBB2
:1003E4000295A4EB0E04AC42C846AE4656D353D095
:1003F40056B1B0EB080264EB0E0404FA07F7CA40E6
:10040400CC401743C6E9007418460021BDE8F087C4
:10041400C3F1200102FA03FC20FA01F225FA01F1EA
:100424009D402A434FEA1C471FFA8CFEB1FBF7F0AC
:1004340007FB1015110C41EA054100FB0EF58D4236
:1004440004FA03F408D91CEB010100F1FF382FD2A0
:100454008D422DD902386144491B92B2B1FBF7F5A4
:1004640007FB151142EA014205FB0EF1914208D93E
:100474001CEB020205F1FF3816D2914214D9023D59
:100484006244521A45EA004138E73146304608E7EB
:100494003946E6E61046FBE64845A9D2B9EB020820
:1004A40065EB0C0E013BA3E74546EAE72B4694E7D0
:1004B4004046D1E7D0467BE7023D624432E7084636
:1004C4000AE76444023842E7704700BF80B483B04F
:1004D40000AF78604FF06043D3F8803E03F001032F
:1004E400002B13D04FF06043D3F8003E03F0010318
:1004F400002B0BD000E000BF4FF060431B68002BC3
:10050400F9D04FF060437A68D2B21A707B6818460B
:100514000C37BD465DF8047B7047000080B582B09F
:1005240000AF00F07BFA00F013F800F0CDF800F013
:1005340079F800237B6003233B60044801F090FDBD
:100544004FF47A7000F0DCFAF7E700BFA827000840
:1005540080B594B000AF07F1200330220021184683
:1005640001F05EFE07F10C0300221A605A609A60E3
:10057400DA601A610023BB60284B1B6C274A43F0E6
:1005840080531364254B1B6C03F08053BB60BB6822
:1005940000237B60224B1B6823F44043204A43F42E
:1005A400004313601E4B1B6803F440437B607B686D
:1005B40001233B624FF480337B620223BB634FF41D
:1005C4008003FB6308233B6450237B640223BB64E6
:1005D4000423FB6407F12003184600F039FD0346A9
:1005E400002B01D000F0DCF80F23FB6002233B61F9
:1005F40000237B614FF48053BB610023FB6107F14F
:100604000C030221184600F09BFF0346002B01D087
:1006140000F0C6F800BF5037BD4680BD0038024028
:100624000070004080B588B000AF07F10C030022D1
:100634001A605A609A60DA601A613B1D00221A60DF
:100644005A601F4B1F4A1A601D4B10225A601C4BE4
:1006540000229A601A4B4FF6FF72DA60184B0022A0
:100664001A61174B00225A61154B00229A611448F3
:1006740001F050F90346002B01D000F091F800235B
:10068400FB6000233B6107F10C0319460C4801F0A1
:1006940090F90346002B01D000F082F800237B6020
:1006A4000023BB603B1D1946054801F055FB03467A
:1006B400002B01D000F074F800BF2037BD4680BD88
:1006C400840000200000014080B588B000AF07F12D
:1006D4000C0300221A605A609A60DA601A610023DF
:1006E400BB601F4B1B6B1E4A43F0040313631C4B7C
:1006F4001B6B03F00403BB60BB6800237B60184BD7
:100704001B6B174A43F080031363154B1B6B03F0F9
:1007140080037B607B6800233B60114B1B6B104A9A
:1007240043F0010313630E4B1B6B03F001033B60A7
:100734003B68002210210B4800F070FC1023FB6082
:1007440001233B6100237B610023BB6107F10C03A0
:100754001946044800F0DEFA00BF2037BD4680BDCC
:10076400003802400000024080B586B000AFF86057
:10077400B9607A6000237B6109E0BB685A1CBA60E7
:100784001B781846FFF7A2FE7B6901337B617A6907
:100794007B689A42F1DB7B6818461837BD4680BDFA
:1007A40080B400AF72B600BFFEE7000080B483B02F
:1007B40000AF00237B60104B5B6C0F4A43F4804313
:1007C40053640D4B5B6C03F480437B607B680023B4
:1007D4003B60094B1B6C084A43F080531364064B7F
:1007E4001B6C03F080533B603B6800BF0C37BD4675
:1007F4005DF8047B704700BF0038024080B485B0C8
:1008040000AF78607B681B680B4A93420DD10023CC
:10081400FB600A4B5B6C094A43F001035364074BCA
:100824005B6C03F00103FB60FB6800BF1437BD463B
:100834005DF8047B704700BF0000014000380240AF
:1008440080B400AFFEE780B400AFFEE780B400AF31
:10085400FEE780B400AFFEE780B400AFFEE780B4EB
:1008640000AF00BFBD465DF8047B704780B400AFA5
:1008740000BFBD465DF8047B704780B400AF00BF85
:10088400BD465DF8047B704780B500AF00F018F9F1
:1008940000BF80BD80B586B000AFF860B9607A60F3
:1008A40000237B610AE0AFF300800146BB685A1C59
:1008B400BA60CAB21A707B6901337B617A697B685A
:1008C4009A42F0DB7B6818461837BD4680BD80B479
:1008D40083B000AF78604FF0FF3318460C37BD4645
:1008E4005DF8047B704780B483B000AF78603960F2
:1008F4003B684FF400525A60002318460C37BD463B
:100904005DF8047B704780B483B000AF7860012346
:1009140018460C37BD465DF8047B704780B485B03B
:1009240000AFF860B9607A60002318461437BD46FA
:100934005DF8047B7047000080B586B000AF786036
:10094400144A154BD31A7B617B693B61134B1B68BB
:10095400002B02D1114B124A1A60104B1A687B68A3
:1009640013443A699A4207D201F0A8FC03460C22C8
:100974001A604FF0FF3309E0084B1B68FB60074B1C
:100984001A687B681344054A1360FB6818461837D5
:10099400BD4680BD0080012000040000CC00002082
:1009A4002002002080B400AF064BD3F88830054AFB
:1009B40043F47003C2F8883000BFBD465DF8047B81
:1009C400704700BF00ED00E0DFF834D00D480E4959
:1009D4000E4A002302E0D458C4500433C4188C4295
:1009E400F9D30B4A0B4C002301E013600432A242FA
:1009F400FBD3FFF7D7FF01F067FCFFF78FFD7047CC
:100A0400008001200000002068000020D827000892
:100A14006800002020020020FEE7000080B500AF3F
:100A24000E4B1B680D4A43F4007313600B4B1B6899
:100A34000A4A43F480631360084B1B68074A43F473
:100A440080731360032000F031F90F2000F008F8E0
:100A5400FFF7ACFE0023184680BD00BF003C0240F7
:100A640080B582B000AF7860124B1A68124B1B78C5
:100A740019464FF47A73B3FBF1F3B2FBF3F3184660
:100A840000F03BF90346002B01D001230EE07B6804
:100A94000F2B0AD8002279684FF0FF3000F011F9CB
:100AA400064A7B681360002300E0012318460837D8
:100AB400BD4680BD00000020080000200400002086
:100AC40080B400AF064B1B781A46064B1B681344D0
:100AD400044A136000BFBD465DF8047B704700BF45
:100AE40008000020D000002080B400AF034B1B6836
:100AF4001846BD465DF8047B704700BFD000002057
:100B040080B584B000AF7860FFF7EEFFB8607B6813
:100B1400FB60FB68B3F1FF3F05D00A4B1B781A4614
:100B2400FB681344FB6000BFFFF7DEFF0246BB68AF
:100B3400D31AFA689A42F7D800BF00BF1037BD46EF
:100B440080BD00BF0800002080B485B000AF78608D
:100B54007B6803F00703FB600C4BDB68BB60BA687F
:100B64004FF6FF031340BB60FB681A02BB681343D4
:100B740043F0BF6343F40033BB60044ABB68D360F3
:100B840000BF1437BD465DF8047B704700ED00E0FC
:100B940080B400AF044BDB681B0A03F0070318465C
:100BA400BD465DF8047B704700ED00E080B483B07F
:100BB40000AF03463960FB7197F90730002B0ADB5D
:100BC4003B68DAB20C4997F907301201D2B20B44F0
:100BD40083F800230AE03B68DAB20849FB7903F0A2
:100BE4000F03043B1201D2B20B441A7600BF0C3738
:100BF400BD465DF8047B704700E100E000ED00E0D5
:100C040080B489B000AFF860B9607A60FB6803F023
:100C14000703FB61FB69C3F10703042B28BF04230B
:100C2400BB61FB690433062B02D9FB69033B00E07B
:100C340000237B614FF0FF32BB6902FA03F3DA430E
:100C4400BB681A407B699A404FF0FF317B6901FA17
:100C540003F3D9437B680B40134318462437BD463E
:100C64005DF8047B7047000080B582B000AF786007
:100C74007B68013BB3F1807F01D301230FE00A4A73
:100C84007B68013B53600F214FF0FF30FFF78EFF6D
:100C9400054B00229A60044B07221A600023184671
:100CA4000837BD4680BD00BF10E000E080B582B0CB
:100CB40000AF78607868FFF747FF00BF0837BD468C
:100CC40080BD80B586B000AF0346B9607A60FB731F
:100CD40000237B61FFF75CFF78617A68B968786903
:100CE400FFF78EFF024697F90F3011461846FFF7BB
:100CF4005DFF00BF1837BD4680BD80B582B000AF30
:100D040078607868FFF7B0FF034618460837BD4699
:100D140080BD000080B489B000AF786039600023E2
:100D24007B6100233B610023BB610023FB6159E12C
:100D34000122FB6902FA03F37B613B681B687A6951
:100D440013403B613A697B699A4240F048813B68B1
:100D54005B6803F00303012B05D03B685B6803F079
:100D64000303022B30D17B689B68BB61FB695B008A
:100D7400032202FA03F3DB43BA691340BB613B6805
:100D8400DA68FB695B0002FA03F3BA691343BB61D7
:100D94007B68BA699A607B685B68BB610122FB6906
:100DA40002FA03F3DB43BA691340BB613B685B6837
:100DB4001B0903F00102FB6902FA03F3BA69134346
:100DC400BB617B68BA695A603B685B6803F00303E4
:100DD400032B17D07B68DB68BB61FB695B000322D4
:100DE40002FA03F3DB43BA691340BB613B689A68B8
:100DF400FB695B0002FA03F3BA691343BB617B68C6
:100E0400BA69DA603B685B6803F00303022B23D101
:100E1400FB69DA087B68083253F82230BB61FB694E
:100E240003F007039B000F2202FA03F3DB43BA69C2
:100E34001340BB613B681A69FB6903F007039B001D
:100E440002FA03F3BA691343BB61FB69DA087B68EE
:100E54000832B96943F822107B681B68BB61FB69DF
:100E64005B00032202FA03F3DB43BA691340BB615C
:100E74003B685B6803F00302FB695B0002FA03F35F
:100E8400BA691343BB617B68BA691A603B685B68E3
:100E940003F44033002B00F0A2800023FB60574B87
:100EA4005B6C564A43F480435364544B5B6C03F4C9
:100EB4008043FB60FB68524AFB699B08023352F88B
:100EC4002330BB61FB6903F003039B000F2202FA8A
:100ED40003F3DB43BA691340BB617B68494A93421D
:100EE40019D07B68484A934213D07B68474A93429F
:100EF4000DD07B68464A934207D07B68454A9342AB
:100F040001D1042308E0072306E0032304E00223BD
:100F140002E0012300E00023FA6902F003029200D8
:100F24009340BA691343BB613549FB699B0802339B
:100F3400BA6941F82320384B9B68BB613B69DB43AA
:100F4400BA691340BB613B685B6803F48013002BF0
:100F540003D0BA693B691343BB612F4ABB699360F1
:100F64002D4BDB68BB613B69DB43BA691340BB6152
:100F74003B685B6803F40013002B03D0BA693B6938
:100F84001343BB61244ABB69D360234B5B68BB61D9
:100F94003B69DB43BA691340BB613B685B6803F49C
:100FA4000033002B03D0BA693B691343BB611A4A6F
:100FB400BB695360184B1B68BB613B69DB43BA696F
:100FC4001340BB613B685B6803F48033002B03D0A0
:100FD400BA693B691343BB610F4ABB691360FB6980
:100FE4000133FB61FB690F2B7FF6A2AE00BF00BF8C
:100FF4002437BD465DF8047B704700BF00380240CB
:101004000038014000000240000402400008024091
:10101400000C024000100240003C014080B483B048
:1010240000AF78600B467B8013467B707B78002B87
:1010340003D07A887B689A6103E07B881A047B6812
:101044009A6100BF0C37BD465DF8047B7047000011
:1010540080B586B000AF78607B68002B01D1012396
:1010640067E27B681B6803F00103002B75D0884B93
:101074009B6803F00C03042B0CD0854B9B6803F096
:101084000C03082B12D1824B5B6803F48003B3F585
:10109400800F0BD17E4B1B6803F40033002B5BD015
:1010A4007B685B68002B57D1012342E27B685B6855
:1010B400B3F5803F06D1764B1B68754A43F4803301
:1010C40013601DE07B685B68B3F5A02F0CD1704BF7
:1010D4001B686F4A43F4802313606D4B1B686C4A92
:1010E40043F4803313600BE0694B1B68684A23F4B4
:1010F40080331360664B1B68654A23F480231360B6
:101104007B685B68002B13D0FFF7EEFC386108E0C6
:10111400FFF7EAFC02463B69D31A642B01D9032387
:1011240007E25B4B1B6803F40033002BF0D014E0A0
:10113400FFF7DAFC386108E0FFF7D6FC02463B69AA
:10114400D31A642B01D90323F3E1514B1B6803F435
:101154000033002BF0D100E000BF7B681B6803F074
:101164000203002B63D04A4B9B6803F00C03002B53
:101174000BD0474B9B6803F00C03082B1CD1444B4A
:101184005B6803F48003002B16D1414B1B6803F00A
:101194000203002B05D07B68DB68012B01D00123FF
:1011A400C7E13B4B1B6823F0F8027B681B69DB003B
:1011B400374913430B603AE07B68DB68002B20D08F
:1011C400344B01221A60FFF78FFC386108E0FFF707
:1011D4008BFC02463B69D31A022B01D90323A8E1F5
:1011E4002B4B1B6803F00203002BF0D0284B1B6829
:1011F40023F0F8027B681B69DB00254913430B606D
:1012040015E0244B00221A60FFF76EFC386108E0F9
:10121400FFF76AFC02463B69D31A022B01D9032368
:1012240087E11B4B1B6803F00203002BF0D17B68A2
:101234001B6803F00803002B36D07B685B69002B26
:1012440016D0154B01221A60FFF74EFC386108E0F6
:10125400FFF74AFC02463B69D31A022B01D9032348
:1012640067E10B4B5B6F03F00203002BF0D01BE034
:10127400094B00221A60FFF737FC38610EE0FFF7D4
:1012840033FC02463B69D31A022B07D9032350E1EE
:101294000038024000004742800E4742884B5B6F93
:1012A40003F00203002BEAD17B681B6803F00403FC
:1012B400002B00F097800023FB75814B1B6C03F01F
:1012C4008053002B0FD10023BB607D4B1B6C7C4AE9
:1012D40043F0805313647A4B1B6C03F08053BB6060
:1012E400BB680123FB75774B1B6803F48073002BE9
:1012F40018D1744B1B68734A43F480731360FFF76F
:10130400F3FB386108E0FFF7EFFB02463B69D31AB1
:10131400022B01D903230CE16A4B1B6803F480738D
:10132400002BF0D07B689B68012B06D1644B1B6FAC
:10133400634A43F0010313671CE07B689B68052B39
:101344000CD15F4B1B6F5E4A43F0040313675C4B85
:101354001B6F5B4A43F0010313670BE0584B1B6F91
:10136400574A23F001031367554B1B6F544A23F06C
:10137400040313677B689B68002B15D0FFF7B4FB4D
:1013840038610AE0FFF7B0FB02463B69D31A41F229
:101394008832934201D90323CBE0494B1B6F03F0FE
:1013A4000203002BEED014E0FFF79EFB38610AE045
:1013B400FFF79AFB02463B69D31A41F28832934203
:1013C40001D90323B5E03E4B1B6F03F00203002B4E
:1013D400EED1FB7D012B05D1394B1B6C384A23F030
:1013E400805313647B689B69002B00F0A180344B0D
:1013F4009B6803F00C03082B5CD07B689B69022B71
:1014040041D1314B00221A60FFF76EFB386108E0CE
:10141400FFF76AFB02463B69D31A022B01D9032367
:1014240087E0274B1B6803F00073002BF0D17B6827
:10143400DA697B681B6A1A437B685B6A9B011A43FF
:101444007B689B6A5B08013B1B041A437B68DB6A6D
:101454001B061B4913434B601B4B01221A60FFF709
:1014640043FB386108E0FFF73FFB02463B69D31AB0
:10147400022B01D903235CE0114B1B6803F00073BA
:10148400002BF0D054E0104B00221A60FFF72CFB25
:10149400386108E0FFF728FB02463B69D31A022BA8
:1014A40001D9032345E0064B1B6803F00073002BAE
:1014B400F0D13DE07B689B69012B07D1012338E023
:1014C4000038024000700040600047421B4B5B68DC
:1014D400FB607B689B69012B28D0FB6803F48002C6
:1014E4007B68DB699A4221D1FB6803F03F027B6889
:1014F4001B6A9A421AD1FA6847F6C07313407A6895
:10150400526A9201934211D1FB6803F440327B6822
:101514009B6A5B08013B1B049A4207D1FB6803F0FA
:1015240070627B68DB6A1B069A4201D0012300E0EB
:10153400002318461837BD4680BD00BF003802405E
:1015440080B584B000AF786039607B68002B01D12E
:101554000123CCE0684B1B6803F007033A689A4206
:101564000CD9654B3A68D2B21A70634B1B6803F00E
:1015740007033A689A4201D00123B8E07B681B68EC
:1015840003F00203002B20D07B681B6803F00403E4
:10159400002B05D0594B9B68584A43F4E0539360A1
:1015A4007B681B6803F00803002B05D0534B9B6832
:1015B400524A43F460439360504B9B6823F0F0021B
:1015C4007B689B684D4913438B607B681B6803F001
:1015D4000103002B44D07B685B68012B07D1474B88
:1015E4001B6803F40033002B19D101237FE07B68CF
:1015F4005B68022B03D07B685B68032B07D13F4BEE
:101604001B6803F00073002B09D101236FE03B4BEF
:101614001B6803F00203002B01D1012367E0374B61
:101624009B6823F003027B685B68344913438B6037
:10163400FFF75AFAF8600AE0FFF756FA0246FB6829
:10164400D31A41F28832934201D903234FE02B4B42
:101654009B6803F00C027B685B689B009A42EBD1A9
:10166400254B1B6803F007033A689A420CD2224BBD
:101674003A68D2B21A70204B1B6803F007033A6829
:101684009A4201D0012332E07B681B6803F0040313
:10169400002B08D0194B9B6823F4E0527B68DB686D
:1016A400164913438B607B681B6803F00803002B07
:1016B40009D0124B9B6823F460427B681B69DB00F2
:1016C4000E4913438B6000F021F802460B4B9B68D4
:1016D4001B0903F00F030A49CB5C22FA03F3094AFE
:1016E4001360094B1B681846FFF7BAF90023184624
:1016F4001037BD4680BD00BF003C024000380240A8
:10170400B827000800000020040000202DE9B04F95
:1017140094B000AF00237B640023FB6400233B648C
:101724000023BB64794B9B6803F00C03082B0DD09A
:10173400082B00F2E180002B02D0042B03D0DBE065
:10174400734BBB64DBE0724BBB64D8E06F4B5B68EC
:1017540003F03F037B646D4B5B6803F48003002B51
:1017640063D06A4B5B689B090022BB63FA63BB6B63
:10177400C3F308033B6300237B63D7E90C4522468C
:101784002B464FF000004FF00001590141EAD261AD
:10179400500102460B462146511A3961294663EB32
:1017A40001037B614FF000024FF00003D7E904AB63
:1017B40059468B01514643EA916351468A01514689
:1017C400B2EB0108594663EB01094FF000024FF0F8
:1017D40000034FEAC90343EA58734FEAC80290462C
:1017E4009946234618EB0303BB602B4649EB0303DE
:1017F400FB604FF000024FF00003D7E90245294691
:101804008B02214643EA915321468A021046194627
:101814007B6C0022BB62FA62D7E90A23FEF7D8FC8C
:1018240002460B461346FB6458E0384B5B689B0941
:10183400002218461146C0F308033B6200237B6272
:10184400D7E9088942464B464FF000004FF00001AB
:10185400590141EAD261500102460B464146B2EBBE
:10186400010A494663EB010B4FF000024FF00003FD
:101874004FEA8B1343EA9A634FEA8A12B2EB0A04E3
:1018840063EB0B054FF000024FF00003EB0043EA5B
:101894005473E20014461D464346E3183B604B462E
:1018A40045EB03037B604FF000024FF00003D7E9E0
:1018B400004529468B02214643EA915321468A0278
:1018C400104619467B6C0022BB61FA61D7E90623F6
:1018D400FEF77EFC02460B461346FB640B4B5B682B
:1018E4001B0C03F0030301335B003B64FA6C3B6C99
:1018F400B2FBF3F3BB6402E0054BBB6400BFBB6CFB
:1019040018465037BD46BDE8B08F00BF00380240CE
:101914000024F40080B582B000AF78607B68002BAF
:1019240001D1012341E07B6893F83D30DBB2002B09
:1019340006D17B68002283F83C207868FEF75EFFBE
:101944007B68022283F83D207B681A687B68043335
:101954001946104600F070F87B68012283F846208F
:101964007B68012283F83E207B68012283F83F20B4
:101974007B68012283F840207B68012283F84120A0
:101984007B68012283F842207B68012283F843208C
:101994007B68012283F844207B68012283F8452078
:1019A4007B68012283F83D20002318460837BD4692
:1019B40080BD80B582B000AF786039607B6893F8F1
:1019C4003C30012B01D1022331E07B68012283F8F2
:1019D4003C207B68022283F83D203968786800F057
:1019E400ABF80346002B09D07B68012283F83D2025
:1019F4007B68002283F83C20012318E07B681B6885
:101A0400DA687B681B6822F04002DA607B681B6836
:101A1400DA687B681B6822F48042DA607B68012202
:101A240083F83D207B68002283F83C20002318467D
:101A34000837BD4680BD000080B485B000AF786033
:101A440039607B681B68FB607B68344A93420FD023
:101A54007B68B3F1804F0BD07B68314A934207D047
:101A64007B68304A934203D07B682F4A934208D163
:101A7400FB6823F07003FB603B685B68FA68134300
:101A8400FB607B68254A93421BD07B68B3F1804F8F
:101A940017D07B68224A934213D07B68214A934231
:101AA4000FD07B68204A93420BD07B681F4A934235
:101AB40007D07B681E4A934203D07B681D4A934239
:101AC40008D1FB6823F44073FB603B68DB68FA6869
:101AD4001343FB60FB6823F080023B685B6913439C
:101AE400FB607B68FA681A603B689A687B68DA6214
:101AF4003B681A687B689A627B68084A934203D100
:101B04003B681A697B681A637B6801225A6100BFCB
:101B14001437BD465DF8047B704700BF00000140E8
:101B24000004004000080040000C00400040014058
:101B3400004401400048014080B586B000AF7860A1
:101B440039600023FB757B681B689B683B613B69BC
:101B540023F070033B613B685B683A6913433B6164
:101B64003B6923F007033B613B681B683A691343F5
:101B74003B617B681B683A699A603B685B68702BC1
:101B84001AD0702B60D8602B54D0602B5CD8502BAB
:101B940046D0502B58D8402B19D0402B54D8302B3A
:101BA40055D0302B50D8202B51D0202B4CD8002B83
:101BB4004DD0102B4BD047E07B6818683B68D96840
:101BC4003B689A683B681B6900F0A6F840E03B68F4
:101BD4001B68052B01D101233BE07B681B681B6A52
:101BE400FB607B681B681A6A7B681B6822F0010231
:101BF4001A627B681B689B69BB60BB6823F0F003B7
:101C0400BB603B681B691B01BA681343BB607B68FC
:101C14001B68BA689A617B681B68FA681A6217E0E5
:101C24007B6818683B6899683B681B691A4600F032
:101C340014F80DE07B6818683B6899683B681B6979
:101C44001A4600F039F803E00123FB7500E000BFF9
:101C5400FB7D18461837BD4680BD80B487B000AF01
:101C6400F860B9607A60FB681B6A7B61FB681B6A79
:101C740023F00102FB681A62FB689B693B613B69C4
:101C840023F0F0033B617B681B013A6913433B611A
:101C94007B6923F00A037B617A69BB6813437B6128
:101CA400FB683A699A61FB687A691A6200BF1C375B
:101CB400BD465DF8047B704780B487B000AFF86020
:101CC400B9607A60FB681B6A23F01002FB681A6231
:101CD400FB689B697B61FB681B6A3B617B6923F43E
:101CE40070437B617B681B037A6913437B613B69A7
:101CF40023F0A0033B61BB681B013A6913433B61BA
:101D0400FB687A699A61FB683A691A6200BF1C37FA
:101D1400BD465DF8047B704780B487B000AFF860BF
:101D2400B9607A603B60FB689B687B617B6923F4E4
:101D34007F437B613B681A027B681A43BB68134389
:101D44007A6913437B61FB687A699A6000BF1C3728
:101D5400BD465DF8047B704780B485B000AF786001
:101D640039607B6893F83C30012B01D1022350E0A9
:101D74007B68012283F83C207B68022283F83D20A3
:101D84007B681B685B68FB607B681B689B68BB6047
:101D9400FB6823F07003FB603B681B68FA6813431D
:101DA400FB607B681B68FA685A607B681B681C4A86
:101DB400934218D07B681B68B3F1804F13D07B68C3
:101DC4001B68184A93420ED07B681B68164A9342DC
:101DD40009D07B681B68154A934204D07B681B6852
:101DE400134A93420CD1BB6823F08003BB603B6869
:101DF4005B68BA681343BB607B681B68BA689A6007
:101E04007B68012283F83D207B68002283F83C2014
:101E1400002318461437BD465DF8047B704700BFA5
:101E2400000001400004004000080040000C004095
:101E340000400140002310B50446C0E90033C0E966
:101E44000433836081814366C28183611946082219
:101E54005C3000F0E5F90D4B63620D4BA3620D4B52
:101E6400E3620D4B23630D4B24629C4206D003F1C5
:101E74006802944202D0D0339C4205D104F1580048
:101E8400BDE8104000F044BA10BD00BF7520000842
:101E940097200008CF200008F3200008D400002079
:101EA400024A0349034800F069B800BF0C0000204F
:101EB400192600081800002041680C4B994210B5FF
:101EC400044601D000F0A6FBA168094B994202D058
:101ED400204600F09FFBE168064B994204D020465F
:101EE400BDE8104000F096BB10BD00BFD400002038
:101EF4003C010020A401002010B50B4B0B4C0C4AF4
:101F04001A60204600220421FFF794FF04F16800C0
:101F140001220921FFF78EFF04F1D0000222BDE85F
:101F240010401221FFF786BF0C020020D4000020CD
:101F3400A51E0008014800F0ECB900BF15020020FE
:101F4400014800F0E7B900BF1502002010B50446AF
:101F5400FFF7F0FF236A1BB1BDE81040FFF7F0BFA5
:101F6400044B2362044B1B68002BF5D1FFF7C4FF1D
:101F7400F2E700BFBD1E00080C0200202DE9F84363
:101F84000746884614460026D4E90195B9F10109AB
:101F940005D52468002CF7D13046BDE8F883AB8919
:101FA400012B07D9B5F90E30013303D02946384641
:101FB400C04706436835E9E7036A70B58468054697
:101FC4000E460BB9FFF7C2FF636EDB0705D4A38986
:101FD400980502D4A06D00F09CF9A389190713D5C4
:101FE40023698BB1013EA36816F8011F013BA3606E
:101FF400E9B9002B2EDA22460A21284600F07BF8A4
:10200400013007D00A2507E02146284600F0B0F841
:102014000028E7D04FF0FF35636EDA0705D4A389B3
:102024009B0502D4A06D00F075F9284670BD002B05
:1020340004DAA2699A4206DC0A2904D023685A1CED
:1020440022601970CFE72246284600F054F8013088
:10205400C9D1DFE723680A255A1C22601D70DBE71B
:10206400024B01461868FFF7A7BF00BF64000020B9
:1020740010B50C46B1F90E1000F0FCF80028ABBF07
:10208400636DA3891B1823F48053ACBF6365A381DC
:1020940010BD2DE9F0411F468B89DB0505460C4632
:1020A400164605D5B1F90E100223002200F0D0F82F
:1020B400A389B4F90E1023F48053A38132463B461E
:1020C4002846BDE8F04100F0E7B810B50C46B1F978
:1020D4000E1000F0BDF8431CA38915BF606523F4FE
:1020E400805343F48053A38118BFA38110BDB1F979
:1020F4000E1000F09DB8F8B50E461446054618B10A
:10210400036A0BB9FFF722FFA369A360A3891A0727
:1021140025D523691BB323682269981A6369F6B22B
:102124008342374604DC2146284600F073FAE0B9BE
:10213400A368013BA36023685A1C22601E70626975
:10214400431C9A4204D0A389DB0706D50A2E04D186
:102154002146284600F05EFA38B93846F8BD2146D3
:10216400284600F005F80028D5D04FF0FF37F4E7F3
:1021740038B52A4B054618680C4618B1036A0BB9E2
:10218400FFF7E4FEA389B4F90C20180722D4D9067A
:1021940007D409232B6042F04003A3814FF0FF30A2
:1021A40034E0580712D5616B41B104F144039942FC
:1021B40002D0284600F0B0F800236363A38923F01B
:1021C4002403A3810023636023692360A38943F06C
:1021D4000803A38123694BB9A38903F42073B3F5DE
:1021E400007F03D02146284600F062FAA089B4F9A2
:1021F4000C2010F001030AD00023A36063695B4242
:10220400A361236943B910F08000C4D138BD8107AC
:1022140058BF6369A360F4E70020F7E76400002077
:1022240002440346934200D1704703F8011BF9E7C7
:1022340038B5064D0023044608462B60FEF747FBDD
:10224400431C02D12B6803B1236038BD1002002067
:1022540038B5074D04460846114600222A601A463E
:10226400FEF75CFB431C02D12B6803B1236038BD2D
:102274001002002038B5074D0446084611460022D6
:102284002A601A46FEF706FB431C02D12B6803B1F1
:10229400236038BD1002002038B5074D04460846B7
:1022A400114600222A601A46FEF75EFA431C02D148
:1022B4002B6803B1236038BD10020020014B18685D
:1022C400704700BF6400002070B50D4D0D4C641BB9
:1022D400A4100026A64209D10B4D0C4C00F056FA6E
:1022E400641BA4100026A64205D170BD55F8043B1A
:1022F40098470136EEE755F8043B98470136F2E774
:10230400D0270008D0270008D0270008D4270008C9
:10231400704770477047000037B5002944D051F822
:10232400043C0190002BA1F10404B8BFE41800F0B0
:10233400DFF81E4A0198136833B96360146003B070
:10234400BDE8304000F0DAB8A34208D92568611925
:102354008B4201BF19685B6849192160EDE71A4691
:102364005B680BB1A342FAD911685518A5420BD189
:10237400246821445418A3421160E0D11C685B68AE
:1023840053600C441460DAE702D90C230360D6E7E7
:10239400256861198B4204BF19685B68636004BFD8
:1023A400491921605460CAE703B030BD1802002007
:1023B40070B50E4E0C463168054611B900F0D6F9D9
:1023C40030602146284600F0D1F9431C0AD0C41CD1
:1023D40024F00304A04207D0211A284600F0C6F9CD
:1023E400013001D14FF0FF34204670BD1C020020A3
:1023F4002DE9F843CD1C25F0030508350C2D38BF15
:102404000C25002D074601DBA94205D90C233B60AE
:1024140000263046BDE8F883DFF8D08000F068F885
:10242400D8F800301C465CBB29463846FFF7C0FF8D
:10243400431C044655D1D8F800402646002E45D109
:10244400002C48D023683146384604EB030900F0D9
:102454008DF981453FD121686D1A29463846FFF729
:10246400A7FF013037D023682B442360D8F800300D
:10247400002B38D05A68A2422BD100225A600FE0B8
:102484002268521B1FD40B2A17D96119A342256055
:1024940018BF5960636808BFC8F8001062514B60E8
:1024A400384604F10B0600F029F826F00706231D30
:1024B400F21AAED09B1BA350ABE7A3426268DDD1F6
:1024C400C8F80020ECE723466468ACE73446766835
:1024D400B4E71346CCE70C233B60384600F00EF813
:1024E40097E72560DCE75B60FFDE00BF1802002091
:1024F4000148FFF70EBF00BF140200200148FFF798
:1025040009BF00BF140200208A892DE9F041054665
:1025140010070C4658D44B68002B05DC0B6C002BC1
:1025240002DC0020BDE8F081E66A002EF9D0002329
:1025340012F480522F68216A2B6032D0606DA38917
:102544005A0705D56368C01A636B0BB1236CC01AB4
:1025540000230246E66A216A2846B047431CA38941
:1025640006D129681D292BD8294A0A41D60727D420
:1025740000226260D9042269226004D5421C01D180
:102584002B6803B96065616B2F600029C9D004F121
:102594004403994202D02846FFF7BEFE0020606340
:1025A400C0E701232846B047411CC8D12B68002B43
:1025B400C5D01D2B01D0162B01D12F60B1E7A38903
:1025C40043F04003A381ADE70F69002FA9D093071F
:1025D4000E6808BF4B690F6018BF0023A6EB0708FD
:1025E4008B60B8F1000F9CDD216AA66A43463A4627
:1025F4002846B047002806DCA38943F04003A381A2
:102604004FF0FF308EE70744A8EB0008E9E700BF6E
:10261400FEFFBFDF38B50B6905460C4613B900252C
:10262400284638BD18B1036A0BB9FFF78FFCB4F91B
:102634000C30002BF3D0626ED00704D4990502D479
:10264400A06DFFF766FE28462146FFF75DFF636E27
:10265400DA070546E4D4A3899B05E1D4A06DFFF70E
:1026640059FEDDE770B50C46B1F90E10002996B09D
:1026740015461E460DDAA38913F0800F4FF00001B2
:102684000CBF4FF480634023002031602B6016B0F0
:1026940070BD6A4600F048F80028ECDB019901F4AB
:1026A4007041A1F50053594259414FF48063EBE75F
:1026B4008B8973B59D0706460C4607D504F147037D
:1026C400236023610123636102B070BD01AB6A46DC
:1026D400FFF7C8FF009905463046FFF789FE48B961
:1026E400B4F90C309A05EFD423F0030343F002034A
:1026F400A381E3E7A389206043F08003A381009BC7
:102704006361019B20615BB1B4F90E10304600F0A7
:102714001DF828B1A38923F0030343F00103A38127
:10272400A3891D43A581CFE738B5074D002304468F
:10273400084611462B60FEF7D6F8431C02D12B68DD
:1027440003B1236038BD00BF1002002038B5064D28
:102754000023044608462B60FEF7D5F8431C02D13B
:102764002B6803B1236038BD1002002038B5064D34
:102774000023044608462B60FEF7DEF8431C02D112
:102784002B6803B1236038BD10020020F8B500BFE8
:10279400F8BC08BC9E467047F8B500BFF8BC08BC3E
:0427A4009E46704796
:1027A80073616C616D2064756E79612000000000B2
:1027B80000000000000000000102030406070809E9
:0827C8003CDAFF7F0100000074
:0427D000B901000843
:0427D4009501000863
:1027D8000024F400100000000100000000000000C8
:1027E80003000000D400002000000000D4000020F6
:1027F8003C010020A40100200000000000000000AF
:1028080000000000000000000000000000000000C0
:1028180000000000000000000000000000000000B0
:1028280000000000000000000000000000000000A0
:08283800000000001800002060
:04000005080009CD19
:00000001FF
